:100000000C9492060C94D9060C94D9060C94D9063B
:100010000C94D9060C94D9060C94D9060C94D906E4
:100020000C94D9060C94D9060C9490270C94632850
:100030000C94671E0C94D9060C94D9060C94D9061E
:100040000C94D9060C94D9060C94D9060C94D906B4
:100050000C94D9060C94CF1E0C94D9060C94D90696
:100060000C94D9060C94D9060C94D9060C94D90694
:100070000C94D9060C94D9060C94D9060C94D90684
:100080000C94D9060C94D9060C94D9060C94D90674
:100090000C94D9060C94D9060C94D9060C94D90664
:1000A0000C94D9060C94D9060C94D90629001E008C
:1000B0001F0020002100220023002400250026002C
:1000C00027002D002E002A002B0014001A00080023
:1000D000150017001C0018000C00120013002F0060
:1000E00030003100390004001600070009000A0042
:1000F0000B000D000E000F00330034002C00280010
:10010000E1002C001D001B00060019000500110075
:100110001000360037003800E1001400E000E30072
:10012000E20000002C002C00E00046002C002A0019
:10013000E20001515100025135003A003B003C0001
:100140003D003E003F0040004100420043004400AB
:1001500045004C0001003470520035703670377025
:10016000387039703A703B7001004A004D000070E1
:100170000100500051004F00327030703170337008
:100180000100010001000100010048000100010020
:10019000010001000100010001000100AE00AC00FF
:1001A000AB00AD00010001000100010001000000F2
:1001B0000100010001000100010001000100010037
:1001C0000100010001000100010001000100010027
:1001D0000100010001000100010001000100010017
:1001E0000100010001000100010001000100010007
:1001F00001000100010001000100010001000100F7
:1002000001000100010001000100010001000100E6
:1002100001000100010001000100010001000100D6
:1002200001000100010001000100010001000100C6
:1002300001000100010001000100000001000100B7
:1002400001000100010001000100010001000100A6
:100250000100010001000100010001000100010096
:100260000100010001000100010001000100010086
:100270000100010001000100010001000100010076
:100280000100010001000100010001000100010066
:100290000100010001000100010001000100010056
:1002A0000100010001000100010001000100010046
:1002B0000100010001000100010001000100010036
:1002C0000100010001000000010001000100010027
:1002D0000100010001000100010001000100010016
:1002E0000100010001000100010001000100010006
:1002F00001000100010001000100010001000100F6
:1003000001000100010001000100010001000100E5
:1003100001000100010001000100010001000100D5
:1003200001000100010001000100010001000100C5
:1003300001000100010001000100010001000100B5
:1003400001000100010001000100010001000100A5
:100350000100000001000100010001000100010096
:100360000100010001000100010001000100010085
:100370000100010001000100010001000100010075
:100380000100010001000100010001000100010065
:100390000100010001000100010001000100010055
:1003A0000100010001000100010001000100010045
:1003B0000100010001000100010001000100010035
:1003C0000100010001000100010001000100010025
:1003D0000100010001000100010001000100000016
:1003E0000100010001000100010001000100010005
:1003F00001000100010001000100010001000100F5
:1004000001000100010001000100010001000100E4
:1004100001000100010001000100010001000100D4
:1004200001000100010001000100010001000100C4
:1004300001000100010001000100010001000100B4
:1004400001000100010001000100010001000100A4
:100450000100010001000100010001000100010094
:100460000100010001000100010000000100010085
:100470000100010001000100010001000100010074
:100480000100010001000100010001000100010064
:100490000100010001000100010001000100010054
:1004A0000100010001000100010001000100010044
:1004B0000100010001000100010001000100010034
:1004C0000100010001000100010001000100010024
:1004D0000100010001000100010001000100010014
:1004E0000100010001000100010001000100010004
:1004F00001000100010000000100010001000100F5
:1005000001000100010001000100010001000100E3
:1005100001000100010001000100010001000100D3
:1005200001000100010001000100010001000100C3
:1005300001000100010001000100010001000100B3
:1005400001000100010001000100010001000100A3
:100550000100010001000100010001000100010093
:100560000100010001000100010001000100010083
:100570000100010001000100010001000100010073
:100580000100000001000100010001000100010064
:100590000100010001000100010001000100010053
:1005A0000100010001000100010001000100010043
:1005B0000100010001000100010001000100010033
:1005C0000100010001000100010001000100010023
:1005D0000100010001000100010001000100010013
:1005E0000100010001000100010001000100010003
:1005F00001000100010001000100010001000100F3
:1006000001000100010001000100010001000000E3
:1006100001000100010001000100010001000100D2
:1006200001000100010001000100010001000100C2
:1006300001000100010001000100010001000100B2
:1006400001000100010001000100010001000100A2
:100650000100010001000100010001000100010092
:100660000100010001000100010001000100010082
:100670000100010001000100010001000100010072
:100680000100010001000100010001000100010062
:100690000100010001000100010000000100010053
:1006A0000100010001000100010001000100010042
:1006B0000100010001000100010001000100010032
:1006C0000100010001000100010001000100010022
:1006D0000100010001000100010001000100010012
:1006E0000100010001000100010001000100010002
:1006F00001000100010001000100010001000100F2
:1007000001000100010001000100010001000100E1
:1007100001000100010001000100010001000100D1
:1007200001000100010000000100010001000100C2
:1007300001000100010001000100010001000100B1
:1007400001000100010001000100010001000100A1
:100750000100010001000100010001000100010091
:100760000100010001000100010001000100010081
:100770000100010001000100010001000100010071
:100780000100010001000100010001000100010061
:100790000100010001000100010001000100010051
:1007A0000100010001000100010001000100010041
:1007B0000100000001000100010001000100010032
:1007C0000100010001000100010001000100010021
:1007D0000100010001000100010001000100010011
:1007E0000100010001000100010001000100010001
:1007F00001000100010001000100010001000100F1
:1008000001000100010001000100010001000100E0
:1008100001000100010001000100010001000100D0
:1008200001000100010001000100010001000100C0
:1008300001000100010001000100010001000000B1
:1008400001000100010001000100010001000100A0
:100850000100010001000100010001000100010090
:100860000100010001000100010001000100010080
:100870000100010001000100010001000100010070
:100880000100010001000100010001000100010060
:100890000100010001000100010001000100010050
:1008A0000100010001000100010001000100010040
:1008B0000100010001000100010001000100010030
:1008C0000100010001000100010000000100010021
:1008D0000100010001000100010001000100010010
:1008E0000100010001000100010001000100010000
:1008F00001000100010001000100010001000100F0
:1009000001000100010001000100010001000100DF
:1009100001000100010001000100010001000100CF
:1009200001000100010001000100010001000100BF
:1009300001000100010001000100010001000100AF
:10094000010001000100010001000100010001009F
:100950000100010001000000010001000100010090
:100960000100010001000100010001006432146473
:100970003214783C1E1E140A05000000000101011B
:100980000202030405050607090A0B0C0E0F1112DB
:10099000141517191B1D1F212325282A2C2F31342C
:1009A00036393B3E414346494C4F5255585A5D619A
:1009B00064676A6D707376797C7F8386898C8F9289
:1009C00095989B9EA2A5A7AAADB0B3B6B9BCBEC16F
:1009D000C4C6C9CBCED0D3D5D7DADCDEE0E2E4E6BC
:1009E000E8EAEBEDEEF0F1F3F4F5F6F8F9FAFAFBDC
:1009F000FCFDFDFEFEFEFFFFFFFFFFFFFFFEFEFE14
:100A0000FDFDFCFBFAFAF9F8F6F5F4F3F1F0EEED82
:100A1000EBEAE8E6E4E2E0DEDCDAD7D5D3D0CECB11
:100A2000C9C6C4C1BEBCB9B6B3B0ADAAA7A5A29E83
:100A30009B9895928F8C898683807C797673706D74
:100A40006A6764615D5A5855524F4C494643413E6E
:100A50003B393634312F2C2A282523211F1D1B1901
:100A600017151412110F0E0C0B0A090706050504C1
:100A7000030202010101000000000000000001016A
:100A8000010101010101010202020202020202024D
:100A9000030303030303030304040404040405051C
:100AA00005050506060606060707070708080808DD
:100AB0000909090A0A0A0A0B0B0B0C0C0C0D0D0D87
:100AC0000E0E0F0F0F101011111112121313141418
:100AD000151516161717181819191A1A1B1C1C1D8C
:100AE0001D1E1F1F202021222223242525262727E3
:100AF00028292A2B2B2C2D2E2F2F30313233343511
:100B000036363738393A3B3C3D3E3F40414243441C
:100B1000464748494A4B4C4D4F50515253555657F2
:100B2000585A5B5C5E5F606263646667696A6C6D9D
:100B30006E707173747678797B7C7E808183848615
:100B4000888A8B8D8F91929496989A9B9D9FA1A352
:100B5000A5A7A9ABADAFB1B3B5B7B9BBBDBFC1C454
:100B6000C6C8CACCCFD1D3D6D8DADCDFE1E4E6E818
:100B7000EBEDF0F2F5F7FAFCFF12036B006500797C
:100B80000062006F006100720064000000160371D3
:100B9000006D006B006200750069006C0064006508
:100BA00000720000000403090409026D0004010042
:100BB000A0FA09040000010301010009211101004C
:100BC000012240000705810308000A090401000111
:100BD00003010200092111010001224D00070582D5
:100BE0000308000A090402000103000000092111A2
:100BF0000100012236000705830308000A090403E7
:100C00000001030000000921110100012239000741
:100C10000584032000011201100100000008EDFE10
:100C2000606001000102000105010906A10105073C
:100C300019E029E7150025019508750181020508CD
:100C40001901290595057501910295017503910119
:100C50000507190029F71500250195F8750181028E
:100C6000C005010980A10185021601002603001AB2
:100C700081002A8300751095018100C0050C0901CF
:100C8000A1018503160100269C021A01002A9C027C
:100C9000751095018100C005010902A1010901A19A
:100CA0000005091901290515002501950575018122
:100CB000029501750381010501093009311581256E
:100CC0007F95027508810609381581257F95017584
:100CD000088106050C0A38021581257F95017508E3
:100CE0008106C0C005010906A101050719E029E731
:100CF000150025019508750181029501750881018E
:100D000005081901290595057501910295017503DD
:100D100091010507190029FF150026FF00950675AA
:100D2000088100C011241FBECFEFDAE0DEBFCDBFC7
:100D300004B603FE27C080919F029091A002A0916B
:100D4000A102B091A2028730904BA740B04BD1F4E2
:100D500010929F021092A0021092A1021092A20281
:100D600014BE84B7877F84BF0FB6F894A89580918E
:100D70006000886180936000109260000FBEE0E028
:100D8000F8E3099511E0A0E0B1E0E2E7F7E502C081
:100D900005900D92AC33B107D9F722E0ACE3B1E096
:100DA00001C01D92AF39B207E1F70E94DD240C9417
:100DB000B72B0C94000090E080E00895089508950A
:100DC00081E0089581FF03C0809A889808958098F3
:100DD000FCCF81E008950C94E0060E94C6162FEF28
:100DE00084E39CE0215080409040E1F700C0000087
:100DF0000C94F41EFF920F931F93CF93DF938C01FB
:100E0000FC01C081D18180918D01811148C0828116
:100E1000882309F43FC0CE010E942D1CF82E682FB4
:100E2000CE010E94D31BBE018F2D0E94D408EC017D
:100E3000B8010E94EB06882309F478C0B801CE01FE
:100E40000E94040B882309F471C0C633F0E7DF0762
:100E500009F484C0C0F5C53190E7D90728F5C23040
:100E6000E0E7DE0708F099C0C115F0E7DF0709F4F5
:100E700058C0C130D04709F460C081E080933E0182
:100E800080933F01C801DF91CF911F910F91FF9097
:100E90000C94E906CE010E94021CF82EC4CFCE01AC
:100EA0000E942D1CBE01C1CFC43390E7D90709F4BD
:100EB0004EC0C533D04709F7F80182818823B1F1CC
:100EC0000E942D0F33C0CA33F0E7DF0709F457C083
:100ED00070F4F8018281C833F0E7DF0709F44AC0F3
:100EE00008F443C0882311F10E94710E1FC0CC3357
:100EF000E0E7DE0709F4D5C008F448C0CD33D04799
:100F000009F0BBCFF8018281882309F4F1C0109267
:100F10003F010E94991E90933D0180933C0180E225
:100F2000CDC0F801828181110E94ED0680E0DF9141
:100F3000CF911F910F91FF900895F801828188232E
:100F4000A9F380912002816080932002EFCFF80105
:100F50008281882359F30E94370FE8CFF8018281FC
:100F6000882321F30E94220EE1CF8823F9F20E9408
:100F70003A0EDCCF8823D1F20E94590ED7CFF80168
:100F80008281882399F20E94890ED0CFF801828154
:100F9000882361F20E94A10EC9CFF80182818823C3
:100FA00009F470CF0E94EA1D811102C00E94C41D85
:100FB0000E94071E90E09093900280938F02FE01A2
:100FC000E350F04780918F028160E231F105C8F46F
:100FD000E451F84F0C94692BFE070A080E0812081A
:100FE00016081A081E08220826082A082E083208A1
:100FF00036083A083E08420846084A0880918F029F
:10100000826080938F0280918F020E940B1E0E944B
:10101000C6168CCF80918F028460F3CF80918F02AF
:101020008860EFCF80918F028061EBCF80918F023B
:101030008062E7CF80918F028064E3CF80918F023E
:101040008068DFCF80918F028460EACF80918F0229
:101050008E7FD7CF80918F028D7FD3CF80918F02EB
:101060008B7FCFCF80918F02877FCBCF80918F02F4
:101070008F7EC7CF80918F028F7DC3CF80918F02EB
:101080008F7BBFCF80918F028F77BBCF80918F02F4
:101090008B7FEACF90918F02892F97FB87F9805839
:1010A000B0CFF8018281882361F010923E010E9446
:1010B000991E90933D0180933C0182E00E94301480
:1010C00035CF80913E0181110FC080913C019091FC
:1010D0003D010E94A51E883C910530F486E20E94E5
:1010E000051386E20E94E11382E00E9437141ECFAE
:1010F00080913F0181110FC080913C0190913D0191
:101100000E94A51E883C910530F487E20E940513D9
:1011100087E20E94E11380E2E8CF0C94550B269AF7
:101120002E988FEF9FEF909387008093860082E246
:101130008093800089E1809381000C9492220E9428
:101140008F080C94530B282F2E988091800021112A
:1011500008C08F7D8093800010928B0010928A00CF
:101160000895806280938000233039F48FEF9FEFE1
:1011700090938B0080938A00089583E090E0821B17
:101180009109880F991F2FEF3FEF02C036952795E1
:101190008A95E2F730938B0020938A0008950C948F
:1011A000E2060C94CF080895972F70E02EE0929FEE
:1011B000600D711D1124FB0196E4899FE00DF11D66
:1011C0001124EE0FFF1FE455FF4F85919491089570
:1011D000FC01EE0FFF1FE459F64F8591949108959D
:1011E0000E94D4080E94830A811520E5920708F026
:1011F00040C0811530E4930708F0FAC0883E91059D
:1012000018F5803E910508F07DC1883A910580F47B
:10121000853A910508F087C08130910509F472C1C3
:1012200020F08430910508F06DC190E080E00895D1
:101230008D3B910508F482C0803C9105B0F3805C41
:1012400091090E94E8080895811540E2940750F43E
:10125000811521E0920708F055C1803F910528F3E0
:1012600090650895811530E3930708F0BEC09F7024
:10127000E8CF811545E5940760F5811524E59207CF
:1012800008F0E5C0811532E5930750F4811541E57A
:10129000940708F4B0C0982F8827816F906A08954A
:1012A000282F26952695AC01437055278115934527
:1012B00008F0BEC081E090E002C0880F991F4A95F7
:1012C000E2F740E2249F90011124822B932B9C682B
:1012D0000895803340E7940798F4803220E792071E
:1012E00008F0BFC0811536E5930708F4B5C09C012E
:1012F00030569F702115304108F097CF90620895C5
:10130000813320E7920709F4B3C008F4AEC08233FA
:1013100040E7940709F4AFC08333904709F085CFC5
:1013200080E093ED0895853A910509F4A7C0863AC7
:10133000910509F0A6C082E890E40895883A9105E5
:1013400009F4A2C0893A910509F4A1C08A3A91052D
:1013500009F4A0C08B3A910509F49FC08C3A91051D
:1013600009F49EC08B3B910509F49DC08C3B91050F
:1013700009F49CC08D3A910509F49BC0803B91050E
:1013800009F49AC08E3A910509F499C08F3A9105F3
:1013900009F498C0813B910509F497C0823B9105FF
:1013A00009F496C0833B910509F495C0843B9105EF
:1013B00009F494C0853B910509F493C0863B9105DF
:1013C00009F492C0873B910509F491C0883B9105CF
:1013D00009F490C0893B910509F48FC08A3B9105BF
:1013E00009F48EC080E094E408959927906C0895E4
:1013F0009F70906A08959C0154E0369527955A9500
:10140000E1F7922F9370482F437021E030E002C043
:10141000220F331F4A95E2F73C68392B8695869553
:10142000837040E2849FC0011124822B932B089586
:1014300081E090E002C0880F991F4A95E2F740E2F0
:10144000249F90011124822B932B9A680895982F42
:101450008827846F906A0895982F882788279F711E
:101460004DCF80529047946D089580E091ED08959E
:1014700080E090ED089580E092ED089581E890E499
:10148000089583E890E4089582EE94E4089589EE47
:1014900094E408958AEE94E4089585EB94E4089525
:1014A00086EB94E4089583EB94E4089584EB94E44C
:1014B000089587EB94E408958CEC94E408958DEC02
:1014C00094E4089583E895E408958AE895E40895FE
:1014D00082E995E4089584E995E4089581E296E42B
:1014E000089583E296E4089584E296E4089585E2FF
:1014F00096E4089586E296E4089587E296E40895D6
:101500008AE296E408958238910549F1B0F4813376
:10151000910509F45CC048F48932910509F452C080
:101520008A32910509F458C008958533910509F46C
:1015300044C08933910599F00895833E910531F1B6
:1015400038F4803E910591F0823E9105B1F0089506
:10155000863E910511F1873E910541F10895209154
:101560008F022370C9F080EE90E0089520918F02E1
:1015700020FF12C089E390E0089520918F0222FF9E
:101580000BC024FF2EC090E080E0089520918F02D0
:1015900022FD2AC024FDF7CF089520918F0223FF5A
:1015A000FBCF24FDF0CF87EE90E0089520918F02CD
:1015B00023FFF0CF86EE90E0089520918F0225FD65
:1015C00016C0089520918F0225FD14C00895209122
:1015D0008F0226FD12C0089520918F0226FD10C0B3
:1015E000089583EE90E0089582EE90E0089589E2F8
:1015F00090E0089585E390E008958AE290E00895F0
:1016000081E390E0C9CF08950F931F93CF938C018E
:10161000FB018281811106C0C1E08C2FCF911F9107
:101620000F910895C0914D01C11125C0053110479A
:1016300099F70E94030B81E080934D010E94991E4F
:1016400090934C0180934B01109240011092420103
:1016500010924101109244011092430110924601F0
:1016600010924501109248011092470110924A01D0
:1016700010924901D2CF80914B0190914C010E9470
:10168000A51E883C910540F680914001E82FF0E0CE
:10169000EE0FFF1FEF5BFE4F118300838F5F809380
:1016A0004001C0E0BACF0C94DE060C94DF06CF9365
:1016B000DF9385B7806885BF85B7806885BFA4E163
:1016C000B1E042E251E0C1E0D0E08D91E82FE29537
:1016D000EF70F0E061A18F709E0101C0220F8A952A
:1016E000EAF7922F9095962391A382A1822B82A351
:1016F0004A175B0751F7A2E2B1E061E070E08D911B
:10170000E82FE295EF70F0E041A18F709B0101C0DE
:10171000220F8A95EAF7922F9095942391A382A1A4
:10172000822B82A381E0A732B80749F710925901B2
:101730001092580110924F0110924E0110925B01CD
:1017400010925A01109251011092500110925D01B5
:1017500010925C01109253011092520110925F019D
:1017600010925E0110925501109254011092610185
:10177000109260011092570110925601DF91CF91A3
:101780000C949F084F925F926F927F928F929F92DC
:10179000AF92BF92CF92DF92EF92FF920F931F937F
:1017A000CF93DF9304E111E0512C412CEE24E3941C
:1017B000F12C77247394E80189918E01E82FE2954A
:1017C000EF70F0E091A18F70970101C0220F8A9510
:1017D000EAF7892F822B81A382A1922E90948921EE
:1017E00082A3D0EADA95F1F76701042C02C0CC0C91
:1017F000DD1C0A94E2F75601A094B094AEE4B1E087
:1018000042E251E0812C6D917C911197EA0169903F
:10181000AE01862D82958F7090E0EC0188A190E05A
:10182000D62DDF7002C095958795DA95E2F780FD99
:1018300075C0CB018C299D2911969C938E938D9117
:101840009C9111976817790711F088248394129658
:1018500081E047325807B9F681A1982291A282A16E
:10186000282B22A3882041F0709262010E94991EC9
:101870009093640180936301CFEF4C1A5C0ADEE021
:101880004D16510409F097CF80916201882391F1A0
:1018900080916301909164010E94A51E069750F10A
:1018A00080914E0190914F0190935901809358017E
:1018B000809150019091510190935B0180935A0166
:1018C000809152019091530190935D0180935C014E
:1018D000809154019091550190935F0180935E0136
:1018E000809156019091570190936101809360011E
:1018F000109262010E948D0881E0DF91CF911F91CB
:101900000F91FF90EF90DF90CF90BF90AF909F909E
:101910008F907F906F905F904F900895CB018A21B8
:101920009B218ACFE82FF0E0EE0FFF1FE85AFE4F11
:10193000808191810895089535B1242F2095232326
:1019400035B1432B3FB7F894FC01680F791FE617B8
:10195000F70711F43FBF0895819198E045B9000061
:1019600000C087FF25B9880F000000C000C000C07C
:1019700025B900C09A9591F7EACF24B1242B24B958
:101980009B01220F331F620F731F0E949C0C87EC78
:1019900090E00197F1F700C00000089541E00C9439
:1019A000BD0CCF92DF92EF92FF920F931F93CF93D4
:1019B000DF93E901662309F466C0E42EF12CEFEF12
:1019C000F0E0E61BF109EE9D8001EF9D100DFE9DFC
:1019D000100D1124212FE12FFF27EE1AFF0A5CE3DF
:1019E000C52ED12CB6010E94412BFB01BC01E69E05
:1019F000C001E79E900DF69E900D1124B6010E9445
:101A0000412BE230F10589F168F4812F262F210F57
:101A1000309781F0242F461B319761F080E020E061
:101A200040E008C0E430F10551F128F1842F861B15
:101A30003597A1F7E42FF0E0E758F54F4491E22FF6
:101A4000F0E0E758F54F9491E82FF0E0E758F54FB4
:101A5000E49149839883EA83DF91CF911F910F919D
:101A6000FF90EF90DF90CF900895862F810FE42FA5
:101A7000412F2E2FDFCFE42FE61B842FF9CF842FA9
:101A8000462F410FD7CF842F242FD4CF88E090E06A
:101A90000C94772BAB01BC0188E090E00C94952B63
:101AA000EDE4F2E083E0808310924E028FEF8283B8
:101AB000838360914D0270914E0280914F0290910C
:101AC00050020C944A0D80914D02E5E5F2E080FF52
:101AD00006C062E170E085E592E00C94CE0C1182C4
:101AE00010821282339682E0EB38F807C1F7F1CF0B
:101AF000E5E5F2E0818360834283339692E0EB3840
:101B0000F907C1F70C94630DEF92FF920F931F93A7
:101B1000CF93DF9300D01F92CDB7DEB7182FE92EF9
:101B2000F62E042F80914D0290914E02A0914F020B
:101B3000B09150028093510290935202A0935302AD
:101B4000B093540280914D0280FF1FC09E012F5F11
:101B50003F4F812F9E2D0E94D10C8091510210FB8E
:101B600087F9809351021695809152028078812BDB
:101B7000E0FA87F980935202F092530200935402E4
:101B80004B8169818A810E94780D0F900F900F9090
:101B9000DF91CF911F910F91FF90EF9008950F93D8
:101BA0001F93CF93DF93EC01062F142F90914D02DA
:101BB00090FF43C0892F8E77823021F5CE010E949D
:101BC000840D80914D02C0FB87F980934D02C6952C
:101BD00080914E028078C82BD0FBC7F9C0934E028B
:101BE00000934F021093500260914D0270914E028B
:101BF00080914F0290915002DF91CF911F910F91F0
:101C00000C944A0D892F86958F732EE3280F2F731E
:101C1000243018F410915002D4CF865C8F73893031
:101C200080F6991F9927991FD0914E02CD2FCC0F86
:101C3000C92BD7FBDD27D0F9C4CFDF91CF911F91FE
:101C40000F910895EDE4F2E02081221F2227221F48
:101C500030914E02432F440F842F822B37FB99275C
:101C600090F9089668E671E00E94552B43816281E5
:101C70000C94CF0D20914D02221F2227221F30915C
:101C80004E02432F440F842F822B37FB992790F964
:101C90008830910540F4805A9E4F409150026091E7
:101CA0004F020C94CF0D089768E671E00E94552B07
:101CB000F4CF60914F02683F90F4685F80914D02CD
:101CC000881F8827881F90914E02292F220F97FB8B
:101CD000992790F940915002822B0C94CF0D6FEF11
:101CE000EDCF60914F02683090F0685080914D02C6
:101CF000881F8827881F90914E02292F220F97FB5B
:101D0000992790F940915002822B0C94CF0D60E0FE
:101D1000EDCF40915002483F90F4485F80914D02D2
:101D2000881F8827881F90914E02292F220F97FB2A
:101D3000992790F960914F02822B0C94CF0D4FEFB1
:101D4000EDCF40915002483090F0485080914D02C4
:101D5000881F8827881F90914E02292F220F97FBFA
:101D6000992790F960914F02822B0C94CF0D40E09F
:101D7000EDCF90914D0290FF3BC09178811126C02C
:101D8000926090934D0260914D0270914E0280914D
:101D90004F02909150020E944A0D80914D02982F5F
:101DA0009E779230D9F410927A01881F8827881F75
:101DB00090914E02292F220F97FB992790F940917D
:101DC000500260914F02822B0C94CF0D893110F09C
:101DD0009063D7CF8F73880F982BD3CF982F96957A
:101DE000925C9F73963108F791E090937A01DDCF72
:101DF00008958091200281608093200281E0809389
:101E00007B010E94EA1D811104C00E94C41D0E9432
:101E1000500D0E94460D60934D0270934E028093C8
:101E20004F02909350026E7761F40E94500D0E9411
:101E3000460D60934D0270934E0280934F02909333
:101E4000500281E080937A0180914D0280FF04C0AE
:101E500086958F730C94B90E089580914D028695E6
:101E60008F738F5F893108F081E00C94B90E9091E7
:101E70004D02892F8E7F90FF816080934D0260918B
:101E80004D0270914E0280914F02909150020E943B
:101E90004A0D80914D0280FF04C086958F730C948B
:101EA000B90E10927A012FEF80E792E02150804026
:101EB0009040E1F700C000000C94630DCF93C82F51
:101EC00080917801909179010E94A51EEC2FF0E09D
:101ED000EB58F64FE491E817190609F010F50E9447
:101EE000991E9093790180937801E0917701F0E059
:101EF000E758F64F449180914D02881F8827881F2C
:101F000090914E02292F220F97FB992790F960910B
:101F10004F02822B0E94840D809177018F5F809306
:101F20007701CF910895CF93C82F8091750190913B
:101F300076010E94A51EEC2FF0E0EE58F64FE491DA
:101F4000E817190609F0E8F40E94991E90937601AB
:101F5000809375014091500260914F02809173010E
:101F6000909174010E94840D80917301909174018D
:101F7000019668E671E00E94412B90937401809372
:101F80007301CF910895CF92DF92FF920F931F9329
:101F9000CF93DF93F82E80917101909172010E948E
:101FA000A51EEF2DE695F0E0EE58F64FE491E81708
:101FB000190609F0A8F50E94991E9093720180936A
:101FC000710105E512E0D0E0C0E088E6C82EDD240E
:101FD000D39480916F01909170018C0F9D1FB60179
:101FE0000E94412B98014091500260914F020E9443
:101FF000D10C64960D5F1F4FC83681E0D80749F7B2
:102000000E94630D80916F0190917001F0FE10C0ED
:102010000196BE010E94412B9093700180936F0145
:10202000DF91CF911F910F91FF90DF90CF90089596
:102030000197F2CFAF92BF92CF92DF92EF92FF92D1
:102040000F931F93CF93DF93C82FFF24FA9480FD43
:1020500002C0FF24F39480916D0190916E010E9463
:10206000A51EC695EC2FF0E0E159F64FE491E81774
:10207000190611F008F053C00E94991E90936E014A
:1020800080936D01C5E5D2E010E000E097E0C92E35
:10209000D12C198218821A8287E0A82EB12CE12C4B
:1020A00080916C018E0D87FD8E5E082E000C990BC1
:1020B00008171907E9F4209150022A9DC0012B9DB1
:1020C000900D1124B6010E94552B462F80914D0290
:1020D000881F8827881F90914E02592F550F97FB14
:1020E000992790F99E0160914F02852B0E94D10C97
:1020F000EF0C81E0A81AB10899F60F5F1F4F2396E5
:102100000231110531F60E94630D80916C0191E05E
:10211000F91212C081110EC081E180936C01DF9130
:10212000CF911F910F91FF90EF90DF90CF90BF90D4
:10213000AF9008958150F1CF90E00196B8010E94D0
:10214000552BEBCFBF92CF92DF92EF92FF920F937E
:102150001F93CF93DF93CDB7DEB7E6970FB6F89412
:10216000DEBF0FBECDBF182F80916A0190916B0129
:102170000E94A51EE12FF0E0E459F64FE491E81724
:10218000190611F008F07AC00E94991E90936B0115
:1021900080936A018E010F5F1F4FF12CE12C6801C3
:1021A000D80111961C9211971C9212961C92B12C78
:1021B0009091000180916901B99E800D11248231B6
:1021C0000CF081E187FD80E0082E000C990BE816E9
:1021D000F906A1F480914D02881F8827881F9091ED
:1021E0004E02592F550F97FB992790F9980140916E
:1021F000500260914F02852B0E94D10CB394B7E03E
:10220000BB12D6CFEFEFEE1AFE0A0D5F1F4FF2E1C1
:10221000EF16F10429F625E532E009E010E052E17D
:10222000E52EF12CC801B7010E94552BFC01EE0FE1
:10223000FF1FE80FF91FEC0DFD1D8181D9011196DB
:102240008C93119780818C93828112968C930F5F6F
:102250001F4F2D5F3F4F0B31110521F70E94630D7A
:1022600090910001809169019130E1F48A3FB4F4CA
:1022700089EF809369018FEF80930001E6960FB696
:10228000F894DEBF0FBECDBFDF91CF911F910F91AC
:10229000FF90EF90DF90CF90BF9008958150809392
:1022A0006901ECCF89312CF088E18093690181E0EC
:1022B000E3CF8F5FF4CFCF93DF938091670190914D
:1022C00068010E94A51E883E934028F10E94991E35
:1022D00090936801809367018091650190916601F8
:1022E0000196817099279093660180936501C5E5F9
:1022F000D2E09E014091500260914F0290E080E058
:102300000E94D10C239682E0CB38D80791F7DF9159
:10231000CF910C94630DDF91CF91089580917A0154
:10232000882371F180914D0286958F739EE3980FFB
:102330009F73943018F482500C945E0F9AE3980FB8
:102340009F73933018F486500C94930F97E3980F73
:102350009F73963018F489500C94C30F91E3980F33
:102360009F73963018F48F500C941A109BE2980FBC
:102370009F73933018F485510C94A2100C945B1148
:10238000089590938101809380010895E0918001E8
:10239000F0918101309721F00190F081E02D0994B6
:1023A00080E00895E0918001F0918101309721F063
:1023B0000280F381E02D09940895E0918001F0916D
:1023C0008101309721F00480F581E02D0994089572
:1023D00020917E0130917F012817390771F0909389
:1023E0007F0180937E01E0918001F091810130971F
:1023F00021F00680F781E02D0994089520917C0159
:1024000030917D012817390771F090937D018093F9
:102410007C01E0918001F0918101309721F00084EE
:10242000F185E02D0994089508950C9414120E94EA
:10243000901E0E94570B0E94611F0E9492220C94D2
:10244000F90E5F926F927F928F929F92AF92BF929E
:10245000CF92DF92EF92FF920F931F93CF93DF9370
:10246000CDB7DEB72A970FB6F894DEBF0FBECDBF4B
:102470000E94C20B93E8A92E91E0B92E10E000E073
:1024800088248394912C502E802F0E94920C7C01E2
:10249000F501C190D1905F01C816D90609F45EC05C
:1024A0008091200281FD0E949B0C90E080E0CE2470
:1024B000DF243401082E02C0660C771C0A94E2F770
:1024C000960126213721232B09F443C08E835F8296
:1024D000E620F72081E0EF2809F480E088870E9459
:1024E000991E8160782F9A8789874E815F816885E0
:1024F0008A850E94DB12000F111FF801ED57FE4F75
:102500008081918168267926718260820E94E4210F
:102510000E94C611909182018917B9F10E94C611DB
:10252000809382012A960FB6F894DEBF0FBECDBF0E
:10253000DF91CF911F910F91FF90EF90DF90CF909F
:10254000BF90AF909F908F907F906F905F900C9412
:10255000D10801968E30910509F0ABCF0F5F1F4F68
:102560000530110509F08FCF8FEF89838A831B8295
:102570000E94991E8160782F9D838C8349815A81A6
:102580006B818D810E94DB12C1CF2A960FB6F89421
:10259000DEBF0FBECDBFDF91CF911F910F91FF9096
:1025A000EF90DF90CF90BF90AF909F908F907F90F3
:1025B0006F905F900895CF93DF93CDB7DEB72B97E1
:1025C0000FB6F894DEBF0FBECDBF4F835887698723
:1025D0007A878B871E821D8285E0FE013796DE0199
:1025E000119601900D928A95E1F749815A816B818C
:1025F0007C818D819E812B960FB6F894DEBF0FBE35
:10260000CDBFDF91CF910C947819882309F4D8C0FD
:10261000823871F40E94C61181FDD2C089E30E9404
:10262000CD1C0E94951D89E30E940A1D0C94951DE6
:10263000833859F40E94C61180FDC2C083E50E9410
:10264000CD1C0E94951D83E5EFCF843859F40E947C
:10265000C61182FDB5C087E40E94CD1C0E94951D65
:1026600087E4E2CF9CEF980F913A18F40E94CD1CBA
:10267000DDCF90E2980F983050F4877091E001C060
:10268000990F8A95EAF7892F0E944C1DCFCF9BE5C1
:10269000980F933070F4853A31F0863A39F083E838
:1026A00090E00C94E81181E890E0FBCF82E890E0A4
:1026B000F8CF98E5980F953108F082C0883A09F470
:1026C00040C0893A09F440C08A3A09F440C08B3AC4
:1026D00009F440C08C3A09F440C08B3B09F440C077
:1026E0008C3B09F440C08D3A09F440C0803B09F4AA
:1026F00040C08E3A09F440C08F3A09F440C0813B93
:1027000009F440C0823B09F440C0833B09F440C057
:10271000843B09F440C0853B09F440C0863B09F482
:1027200040C0873B09F440C0883B09F440C0893B66
:1027300009F440C08A3B09F440C090E080E00C946A
:10274000FE1182EE90E0FBCF89EE90E0F8CF8AEEAA
:1027500090E0F5CF85EB90E0F2CF86EB90E0EFCF05
:1027600083EB90E0ECCF84EB90E0E9CF87EB90E057
:10277000E6CF8CEC90E0E3CF8DEC90E0E0CF83E807
:1027800091E0DDCF8AE891E0DACF82E991E0D7CF1E
:1027900084E991E0D4CF81E292E0D1CF83E292E06C
:1027A000CECF84E292E0CBCF85E292E0C8CF86E242
:1027B00092E0C5CF87E292E0C2CF8AE292E0BFCF3B
:1027C0000895882309F44BC0823871F40E94C61121
:1027D00081FF45C089E30E94CD1C0E94951D89E3BD
:1027E0000E940A1D0C94951D833859F40E94C6114D
:1027F00080FF35C083E50E94CD1C0E94951D83E5B6
:10280000EFCF843859F40E94C61182FF28C087E4B4
:102810000E94CD1C0E94951D87E4E2CF9CEF980F8B
:10282000913AF0F290E2980F983050F4877091E06E
:1028300001C0990F8A95EAF7892F0E94521DD2CFC5
:102840009BE5980F933020F490E080E00C94E81121
:10285000885A853120F490E080E00C94FE110895B0
:10286000882321F00E944C1D0C94951D0895882307
:1028700021F00E94521D0C94951D08958F929F92F5
:10288000AF92BF92DF92EF92FF920F931F93CF937D
:10289000DF937C01D62FC72FFC01058102950F70B5
:1028A000128111110E946B1D0E94C61CD82E882314
:1028B00071F0112321F180E28D0F883000F182E068
:1028C0000E94B01C0E94C61C91E0D82ED926EC2F85
:1028D000E295EF70F0E0E159FB4E0C94692B811406
:1028E0008114D114D11413152F15AE14AE143A154A
:1028F000AE14D215D21545164E16AE146E16D12C46
:10290000E6CF0C2F0F70C07F11F00295007F1123CE
:10291000A9F0002359F080E28D0F883010F0D1111A
:1029200009C0802F0E944C1D0E94951D8D2F0E9472
:10293000051314C0802F0E945D1DF6CF8D2F0E94BD
:10294000E113002359F080E28D0F883010F0D1118F
:1029500024C0802F0E94521D0E94951DDD2009F485
:10296000C4C10E94A31C80FDC0C1F70112820E9455
:102970009D1C0E94171BC7010E9481160E949D1C6E
:10298000DF91CF911F910F91FF90EF90DF90BF905B
:10299000AF909F908F900C94381B802F0E94631DE6
:1029A000DBCFFC2FFF70BF2EC07FC03219F0B29476
:1029B00080EFB822DD2369F0D13029F1112369F1CC
:1029C000002359F0F701858180FFB0CF8F70858398
:1029D00004C0112361F0011104C08B2D0E9430143A
:1029E000BDCF8B2D0130D1F70E947F1DB7CF0111D4
:1029F00006C00E94821D8B2D0E943714AFCF01307C
:102A000009F4ACCFF6CF112321F0063008F0A6CFA1
:102A1000E4CF053008F0A2CFEECF002361F38D2F75
:102A20000E94E1139BCF8C2F86958695837069F069
:102A3000813009F093CF8D2F9C2F9370111102C01C
:102A400090E080E00E94FE1189CF8D2F9C2F937023
:102A5000111102C090E080E00E94E8117FCF8D2F1D
:102A6000112329F00E94ED200E94D92177CF0E94E6
:102A70005521FACF8C2F837009F047C011116ECF0A
:102A80002D2F229526952770220F220F6D2F6F7004
:102A9000862E912CB12CA12C022E04C0880C991CDE
:102AA000AA1CBB1C0A94D2F760E070E0CB01D4FFF3
:102AB0000FC06FE070E080E090E004C0660F771F09
:102AC000881F991F2A95D2F76095709580959095EB
:102AD000C695C695C370C23051F080F46829792933
:102AE0008A299B29C13071F00E94C01A37CF68290A
:102AF00079298A299B290E94DC1A30CF0E94C01AAA
:102B0000C501B4010E94A41A29CF8695112311F0A2
:102B10008C2F8170882309F421CF2D2F22952695A3
:102B20002770220F220F6D2F6F70862E912CB12CE3
:102B3000A12C022E04C0880C991CAA1CBB1C0A9450
:102B4000D2F760E070E0CB01D4FF0FC06FE070E01F
:102B500080E090E004C0660F771F881F991F2A95B8
:102B6000D2F76095709580959095C695C695C3707F
:102B7000C23051F080F4682979298A299B29C13013
:102B800071F00E949A1BEACE682979298A299B292B
:102B90000E94B61BE3CE0E949A1BC501B4010E949D
:102BA0007E1BDCCEE0E2ED0FE53108F062C0F0E024
:102BB000E452FA4E0C94692BF115F115F115F1154B
:102BC000F115F115F115F115F115F115F115F115D5
:102BD000F115F115F115F115FE150C1613161A164F
:102BE0002416DF708C2F8F71112321F00E94171B88
:102BF0008D2FF4CE0E94381B8D2FFECE112341F075
:102C0000053008F0ABCE8C2F8F710E945D1BA6CED5
:102C1000063008F0A3CEF7CF8C2F8F71112339F037
:102C20000E94171B9BCE8C2F8F711123C9F30E941A
:102C3000381B94CE112329F08C2F8F710E94021B18
:102C40008DCE0E94F81A8ACE112349F0CF718C2FB5
:102C50000E94171B63E08C2F0E94A71C7FCE81E08F
:102C60000E94B01C023008F479CE82E00E94B01CB1
:102C700075CE112329F0011159CE8C2F8F71D0CF31
:102C80000111CDCE8C2F8F71D2CF4C2F4F706D2F65
:102C9000C7010E94DB060E94211A60CE11115ECE90
:102CA000CF70C230A9F040F4CC2379F0C13009F0E4
:102CB00055CE0E94BB2252CEC33069F0C43009F019
:102CC0004DCE8D2F0E940A2349CE0E94A32246CECC
:102CD0000E94D42243CE0E94E72240CE4C2F4F7058
:102CE0006D2FC7010E94D30839CEDF91CF911F917C
:102CF0000F91FF90EF90DF90BF90AF909F908F90DB
:102D000008950F931F93CF93DF93EC0198818981EE
:102D10002B813C81232B39F08F3F19F481E09F3FB9
:102D200019F080E001C081E080FD17C0CE010E9453
:102D3000FA06882391F0688179818A810E94791C42
:102D40008C010E94D21B0E94991AB801CE01DF911A
:102D5000CF911F910F910C943E14DF91CF911F9151
:102D60000F9108950E946B1D0E947C1D0E943E1DC4
:102D70000E94951D0E9486220E94D92190E080E049
:102D80000E94E81190E080E00C94FE110E945A1D10
:102D90000C94B2160E946F1CE92FE295EF70E2507E
:102DA000EE30E0F4F0E0E952F94E0C94692BE516B0
:102DB000E516EE16EE16F016EE16EE16EE16E51603
:102DC000E516F516EE16EE16F516803F19F020F40E
:102DD000803E20F481E00895843FE1F380E008958F
:102DE000803EC0F3813FD1F7F5CF93FB882780F970
:102DF0000895CF93DF9300D000D01F92CDB7DEB7F8
:102E00000F900F900F900F900F90DF91CF9108953A
:102E1000CF93DF9300D000D000D0CDB7DEB7269699
:102E20000FB6F894DEBF0FBECDBFDF91CF910895EE
:102E30001F93CF93DF93C0918E0116E080918F0195
:102E40008C1304C0DF91CF911F910895D0E01C9F97
:102E5000F0011D9FF00D1124E057FE4F408151817C
:102E600062817381848195810E9408172196C770C1
:102E7000E5CF4091C0015091C1016091C2017091B4
:102E8000C3018091C4019091C5010C9408171F9350
:102E9000CF93DF938091C501807FD1F48091C201EF
:102EA0008823B1F080918E01D0918F01B091C00143
:102EB000C091C1014091C3015091C401A1E0BF3F45
:102EC00009F0A0E0BA016095709516E0D81304C02F
:102ED000DF91CF911F91089521E04115510521F017
:102EE0002A2FCF3F09F020E090E020FD38C0189F46
:102EF000F001199FF00D1124E057FE4F21812C1392
:102F00002EC020812B132BC02281211128C02381A8
:102F100034812417350700F1241B350B283C31057B
:102F2000F0F42091C5012F7020612093C50126E0A7
:102F3000289FF001299FF00D1124EB56FE4F808150
:102F40008F708061808380EC91E00E948116DF9118
:102F5000CF911F910C941817260F371FDFCF0196C2
:102F60008770B4CFAF92BF92CF92DF92EF92FF9271
:102F70000F931F93CF93DF93CDB7DEB761970FB653
:102F8000F894DEBF0FBECDBF8C0185E0F801DE01F5
:102F90001D9601900D928A95E1F7D8014C911196FA
:102FA0005C9111971296EC903091C0016091C10133
:102FB0008091C3019091C40121E0009731F06F3FEF
:102FC00019F421E03F3F09F020E0B22FB170BB2E91
:102FD00020FD80C1F801C380D480A090C201AA2046
:102FE00009F427C1C816D906D0F1D601A81BB90B20
:102FF000CD01FF24F394883C910508F0F12C8091D9
:10300000C501982F907FFF2009F4CAC0911187C095
:10301000FE2C651329C0341327C0E11025C08F7022
:1030200080618093C5010E94391780EC91E00E9475
:1030300081168091C501F80185838F2D61960FB6A9
:10304000F894DEBF0FBECDBFDF91CF911F910F91DE
:10305000FF90EF90DF90CF90BF90AF900895809554
:1030600090958C0D9D1DC5CF81E0CD2831F05F3F3F
:1030700019F481E04F3F09F080E080FD24C081E039
:103080008E25F82FF170DF2E80FF3FC080918E01DA
:1030900020918F0136E0821318C04D875E878D85A1
:1030A0009E850E946F1C292F22952F70223008F1D7
:1030B000243030F59F7009F1D80115969C91907FCE
:1030C000E1F4FB2CBACF80E0DCCF90E0389FF00138
:1030D000399FF00D1124E057FE4F6181561306C051
:1030E0006081461303C062816E110FC00196877024
:1030F000D2CF9F7011F0882321F3805E883008F3CF
:10310000C8010E948116BD2CDCCFEE2009F495CFBA
:103110008091C50181608093C501F12C8ECF65132C
:1031200012C0341310C0E1100EC0F8018583C8012D
:103130000E94811686E0F801A0ECB1E001900D92AA
:103140008A95E1F741C04D875E878D859E850E94F7
:10315000CA16882309F4C8C0EE2009F4C5C08091BE
:10316000C501803270F02091C0013091C1013887D3
:103170002F831986DB86CA868C87CE0107960E942C
:10318000811686E0F801A0ECB1E001900D928A95DD
:10319000E1F70E9447170E943917FF24F3944DCF9F
:1031A000911115C07C2DD98AC88A6E2D89890E94FB
:1031B000F91680EC91E00E94811686E0E0ECF1E0E7
:1031C000DF011D928A95E9F70E94391736CF651302
:1031D00012C0341310C0E1100EC0F8018583C8017D
:1031E0000E948116E0ECF1E086E0DF011D928A95F5
:1031F000E9F7FA2C22CF4D875E878D859E850E9448
:10320000CA16882309F470C0EE2009F46DC08091BD
:10321000C501803208F4B5CF2091C0013091C101C1
:103220003A8329831B82DD82CC828E83CE01019674
:10323000A6CFC816D90638F1F601E81BF90BCF0165
:10324000F12C883C910508F03DC0FE2CEE2009F4DD
:103250004BC0651326C0341324C08091C50180FD86
:1032600017C0982F907FA1F0D80115968C931597D1
:10327000903F09F45CCF982F907F905F8F70892BDF
:1032800015968C9354CF809590958C0D9D1DD8CF1D
:1032900086E0F801A0ECB1E001900D928A95E1F78B
:1032A000CCCE4D875E878D859E850E94CA16811182
:1032B00068CF8091C50181608093C501C8010E94DB
:1032C0008116BBCE7C2DD98AC88A6E2D89890E9431
:1032D000F91673CFEE2041F04D875E878D859E8570
:1032E0000E94CA1681114DCFC8010E94811655CF88
:1032F0001F93CF93DF93CDB7DEB72C970FB6F8941B
:10330000DEBF0FBECDBF4F83588769877A878B8713
:103310009C87CE0107960E94B217882309F442C009
:103320009F8188852A853B85232B39F08F3F19F4AF
:1033300081E09F3F19F080E001C081E080FD08C07E
:103340004F81588569857A858B859C850E940817F1
:1033500016E080918E0190918F01891709F467C062
:10336000819FC001112480579E4F0E94B21788236D
:1033700009F45DC0E0918E011E9FF0011124E05719
:10338000FE4F4081518162817381848195810E94C9
:10339000081780918E0190E001968770992780939D
:1033A0008E01D7CF86E0FE013796DE01119601909F
:1033B0000D928A95E1F79F8188852A853B85232B8D
:1033C00039F08F3F19F481E09F3F19F080E001C090
:1033D00081E080FDBDCF20918F0130E0C9010196D1
:1033E0008770992740918E014817190699F096E049
:1033F000929FD001939FB00D1124A057BE4FFE01A4
:10340000319601900D929A95E1F780938F010E9479
:1034100018179ECF0E94C61610928F0110928E012F
:1034200086E0E0ECF1E0DF011D928A95E9F72C9649
:103430000FB6F894DEBF0FBECDBFDF91CF911F91C5
:103440000895EF92FF920F931F93CF93DF938C0118
:10345000892B81F0F12CEE24E394E8012196F80108
:103460008491843770F4843008F05FC08130B1F00B
:103470008230A1F1DF91CF911F910F91FF90EF90DA
:103480000895853709F44CC008F43DC09CE7980FB7
:10349000903780F78F770E94E11349C00E5F1F4F6E
:1034A000FE01849190E2980F983060F48770FE2DB1
:1034B00001C0FF0F8A95EAF78F2F0E946E1D0E94B0
:1034C000951D02C00E9405138F2D815030F2EFE947
:1034D000FFE03197F1F700C00000F7CF0E5F1F4FFC
:1034E000FE01849190E2980F983050F48770FE2D81
:1034F00001C0FF0F8A95EAF78F2F0E94741DDFCF5E
:103500000E94E113E1CF0E5F1F4FFE01C491C15035
:10351000D8F28FE99FE00197F1F700C00000F7CFE4
:103520000E5F1F4FFE01F490CFCF0E9405138E0156
:10353000CBCF08956093F7017093F8018093F90160
:103540009093FA010C94B2160F931F930091F70118
:103550001091F8012091F9013091FA01DC01CB01C1
:10356000802B912BA22BB32B8093F7019093F80122
:10357000A093F901B093FA011F910F910C94B21628
:103580000F931F930091F7011091F8012091F90119
:103590003091FA01DC01CB0180239123A223B323D4
:1035A0008093F7019093F801A093F901B093FA0189
:1035B0001F910F910C94B2160F931F930091F70176
:1035C0001091F8012091F9013091FA01DC01CB0151
:1035D00080279127A227B3278093F7019093F801C2
:1035E000A093F901B093FA011F910F910C94B216B8
:1035F0001092F3011092F4011092F5011092F6016D
:103600000C94B21641E050E060E070E004C0440F5A
:10361000551F661F771F8A95D2F74093F301509389
:10362000F4016093F5017093F6010C94B21641E039
:1036300050E060E070E004C0440F551F661F771F24
:103640008A95D2F78091F3019091F401A091F50150
:10365000B091F601842B952BA62BB72B8093F30109
:103660009093F401A093F501B093F6010C94B21677
:1036700041E050E060E070E004C0440F551F661F59
:10368000771F8A95D2F740955095609570958091F7
:10369000F3019091F401A091F501B091F60184231A
:1036A0009523A623B7238093F3019093F401A0936D
:1036B000F501B093F6010C94B21641E050E060E0E1
:1036C00070E004C0440F551F661F771F8A95D2F71C
:1036D0008091F3019091F401A091F501B091F60170
:1036E00084279527A627B7278093F3019093F401A9
:1036F000A093F501B093F6010C94B2160F931F93AB
:103700000091F3011091F4012091F5013091F6013F
:10371000DC01CB01802B912BA22BB32B8093F301E7
:103720009093F401A093F501B093F6011F910F91CE
:103730000C94B2160F931F930091F3011091F401B2
:103740002091F5013091F601DC01CB01802391231A
:10375000A223B3238093F3019093F401A093F50186
:10376000B093F6011F910F910C94B2160F931F9313
:103770000091F3011091F4012091F5013091F601CF
:10378000DC01CB0180279127A227B3278093F30187
:103790009093F401A093F501B093F6011F910F915E
:1037A0000C94B21608952EE0929F800D1124982F4C
:1037B000977071E001C0770F9A95EAF78695869524
:1037C000869525E0829FC001112450E040E0A62F9D
:1037D000B0E0FC01E40FF51FEA53FE4F60819D014C
:1037E000042E02C0369527950A94E2F721702195A0
:1037F00026272723262720834F5F5F4F453051051B
:1038000041F708952EE0929F800D1124982F977014
:1038100086958695869525E0829FA001112470E00B
:1038200060E080E0FA01E60FF71FEA53FE4F2081C7
:1038300030E0092E02C0369527950A94E2F72170F0
:103840003327062E01C0220F0A94EAF7822B6F5FFE
:103850007F4F6530710531F70895BF92CF92DF92A7
:10386000EF92FF920F931F93CF93DF938C01C09041
:10387000F301D090F401E090F501F090F601809111
:10388000F7019091F801A091F901B091FA01C82ACD
:10389000D92AEA2AFB2ACFE1D0E0BC2ED701C60103
:1038A0000C2E04C0B695A795979587950A94D2F7E4
:1038B00080FD0EC0219788F7B12C8B2DDF91CF9121
:1038C0001F910F91FF90EF90DF90CF90BF900895E0
:1038D000B8018C2F0E94F008019761F3EECFCF93CF
:1038E000DF93EC010E942D1CBE01DF91CF910C945F
:1038F000F0081F93CF93DF93EB0190918D019923F3
:1039000031F0CB01DF91CF911F910C946F1C882374
:1039100079F0CB010E942D1C182F682FCE010E9438
:10392000D31BBE01812FDF91CF911F910C94F00822
:10393000CB010E94021C182FF4CF8091FB018595CA
:103940008595859508958091FB018770089598E08D
:10395000899F90011124622B6093FB010C94171B2B
:103960009091FB01809589238093FB01282F27707C
:1039700061F4282F082E000C330B9217130629F040
:103980008595859585950C94381B08959091FB013C
:10399000977081E009F480E00895909113019923D4
:1039A000E1F090918F0297FF18C0E82FE695E69519
:1039B000E695EF3139F12091010130910201E20FDA
:1039C000F32FF11D877021E030E001C0220F8A95AE
:1039D000EAF78181822B8183089520910101309142
:1039E0000201F90132969FEF40E05191851751F0A5
:1039F0009F3F19F4511101C0942F4F5F4E31A9F729
:103A00009F3F09F40895290F311D97FD3A95F9015B
:103A100082830895909113019923F1F090918F0280
:103A200097FF1AC0E82FE695E695E695EF3129F164
:103A30002091010130910201E20FF32FF11D282F97
:103A4000277081E090E001C0880F2A95EAF7809501
:103A50009181892381830895209101013091020190
:103A6000F9013296205E3F4F9191891303C0DF0127
:103A700011971C92E217F307B9F7089581E090E0DF
:103A8000E0910101F0910201E80FF91F1082019607
:103A900080329105A9F7089590911F02892B809398
:103AA0001F020895982F909580911F02892380937B
:103AB0001F02089510921F02089590911E02892BF3
:103AC00080931E020895982F909580911E0289235D
:103AD00080931E02089510921E02089590911D0277
:103AE000892B80931D020895982F909580911D0237
:103AF000892380931D02089510921D0208958093DA
:103B0000FC0108951092FC0108952091010130916B
:103B10000201F9013196205E3F4F80E091919111B1
:103B20008F5FE217F307D1F70895E0910101F0915B
:103B3000020180911F028083E0910101F091020156
:103B4000808190911E02892B8083E0910101F09188
:103B50000201808190911D02892B80839091FC014C
:103B6000992361F0E0910101F09102018081892B9C
:103B700080830E94851D81111092FC0180910101BA
:103B8000909102010C94D2116DEE7EEF90E080E0F6
:103B90000E94A12B60E082E090E00E94832B60E015
:103BA00083E090E00E94832B60E084E090E00E943C
:103BB000832B60E085E090E00E94832B60E086E04C
:103BC00090E00E94832B40E050E0BA0188E090E052
:103BD0000C94952B90E080E00E947D2B21E08D3E9F
:103BE0009E4F09F020E0822F089582E090E00C942F
:103BF0006F2B682F82E090E00C94832B83E090E0A1
:103C00000C946F2B682F83E090E00C94832B84E05E
:103C100090E00C946F2B682F84E090E00C94832B41
:103C200086E090E00C946F2B682F86E090E00C9477
:103C3000832B80919602843051F11092210288E109
:103C400090E020E40FB6F894A895809360000FBE32
:103C50002093600080E00E94A30880E00E94D108C9
:103C600083B7817F846083BF83B7816083BF78948B
:103C7000889583B78E7F83BF0FB6F894A8958091FF
:103C80006000886180936000109260000FBE08950C
:103C900008950895CF930E94481E0E94C20B0E946F
:103CA000491EC0E08C2F0E94920C892B31F4CF5F0B
:103CB000C530C1F780E0CF91089581E0FCCF0E942C
:103CC000C6160E9492220E94C6110C94D1081F921F
:103CD0000F920FB60F9211248F939F93AF93BF93C0
:103CE00080912102811113C080918B0290918C02EE
:103CF000A0918D02B0918E024196A11DB11D8093BD
:103D00008B0290938C02A0938D02B0938E02BF9190
:103D1000AF919F918F910F900FBE0F901F901895AC
:103D200082E084BD93E095BD9AEF97BD80936E00CD
:103D300008952FB7F89480918B0290918C02A091F6
:103D40008D02B0918E022FBF0895CF92DF92EF9235
:103D5000FF920F931F932FB7F89440918B025091CD
:103D60008C0260918D0270918E022FBF6A017B01DF
:103D7000EE24FF248C0130E020E0C016D106E206DC
:103D8000F30650F0481B590BCA011F910F91FF9089
:103D9000EF90DF90CF90089541505109F3CF1F92DB
:103DA0000F920FB60F9211248F939F93AF93BF93EF
:103DB00080918B0290918C02A0918D02B0918E0225
:103DC0000196A11DB11D80938B0290938C02A0934C
:103DD0008D02B0938E02BF91AF919F918F910F9002
:103DE0000FBE0F901F9018950E941527F8942FEF83
:103DF00087EA91E6215080409040E1F700C0000042
:103E000087E090EBDC0180939F029093A002A09347
:103E1000A102B093A20288E19CE00FB6F894A895A5
:103E2000809360000FBE90936000FFCFAF92BF926F
:103E3000CF92DF92EF92FF920F931F93CF93C0E048
:103E4000CC24C394D12CE82EF12C8C2F0E94920C00
:103E50005C0110E000E0C601002E02C0880F991F2F
:103E60000A94E2F78A219B21892B99F40F5F1F4F57
:103E70000E30110581F7CF5FC53039F780E0CF9163
:103E80001F910F91FF90EF90DF90CF90BF90AF9078
:103E90000895602F7C2F80E00E94D408E816F90670
:103EA00029F781E0ECCFCF93C82F8CE20E94161F38
:103EB000882321F08C2FCF910C94161F80E0CF9196
:103EC0000895CF930E94EA1D811102C00E94C41D73
:103ED000C5E608C00E94C20B8FE39CE90197F1F789
:103EE00000C00000C150B1F789E20E94531F811148
:103EF000EFC08AE20E94531F81110E94C41D85E019
:103F00000E94531F81110E94F41E0E94F51D809390
:103F1000200287E00E94531F882371F08BE10E94EA
:103F2000531F882309F4B1C090912002892F8D7FFF
:103F300091FF826080932002809120020E94F91DEF
:103F40000E94071E90E09093900280938F0280EE73
:103F50000E94531F882341F090918F02892F8E7FFA
:103F600090FF816080938F0289E30E94531F882312
:103F700041F090918F02892F8D7F91FF8260809315
:103F80008F0282EE0E94531F882341F090918F028E
:103F9000892F8B7F92FF846080938F0286EE0E9430
:103FA000531F882341F090918F02892F877F93FFC1
:103FB000886080938F0283EE0E94531F882341F014
:103FC00090918F02892F8F7E94FF806180938F0262
:103FD00085E30E94531F882341F090918F02892F1F
:103FE0008F7D95FF806280938F0281E30E94531F33
:103FF000882341F090918F02892F8F7B96FF8064F8
:1040000080938F0281E10E94531F882341F0909199
:104010008F02892F97FB87F9805880938F028091B8
:104020008F020E940B1E87E20E94531FC82F8EE151
:104030000E94531F8111C2608FE10E94531F8111A2
:10404000C46080E20E94531F8111C86081E20E9417
:10405000531F8111C06182E20E94531F8111C0620F
:1040600083E20E94531F8111C06484E20E94531FA7
:10407000882341F1C0688C2F0E94021E6C2F70E0D3
:1040800090E080E0CF910C949A1A8EE00E94531F2A
:10409000882339F090912002892F8B7F92FF8460D2
:1040A00049CF80E10E94531F90912002882329F07C
:1040B000892F877F93FF88603DCF892F8E7F90FF68
:1040C000816038CFC111D7CF0E94FE1D682FD7CF96
:1040D000CF9108958091240280FF12C06091060163
:1040E00085E0689FB0011124759567957595679572
:1040F00060387105A8F561157105A1F1862F089545
:1041000081FF09C06091060185E0689FB00111241C
:1041100075956795EDCF82FF07C06091060185E038
:10412000689FB0011124E4CF209125022223A9F039
:10413000909105016091060185E0689FB00111240E
:104140002917B0F6269FA001279F500D1124692F33
:1041500070E0CA010E94552BCBCF65E070E0CECF56
:104160008FE7089581E008958091240280FF0CC0BC
:104170006091040170E07595679575956795611577
:10418000710549F1862F089581FF06C060910401F1
:1041900070E075956795F3CF6091040182FD0BC0C7
:1041A000909125029923A1F060910301809104016F
:1041B000961738F0682F70E06038710500F38FE7CC
:1041C0000895899FC001112470E00E94552BF4CFFF
:1041D00061E070E0D7CF81E00895803F31F40E9424
:1041E0006A208195809328020895813F19F40E94E6
:1041F0006A20F8CF823F31F40E946A208195809333
:1042000027020895833F19F40E946A20F8CF893F5E
:1042100029F40E94B4208093290208958A3F21F452
:104220000E94B4208195F7CF8B3F31F40E94B420D7
:10423000819580932A0208958C3F19F40E94B4203E
:10424000F8CF843F31F4809126028160809326026A
:104250000895853F21F4809126028260F7CF863F42
:1042600021F4809126028460F1CF873F21F4809170
:1042700026028860EBCF883F21F48091260280617E
:10428000E5CF8D3F31F48091240281608093240238
:1042900008958E3F21F4809124028260F7CF8F3FF2
:1042A000B9F7809124028460F1CF803FC1F48091FE
:1042B000280287FD109228028091270281110EC0EA
:1042C0008091280281110AC080912902811106C0C3
:1042D00080912A02811102C0109225020895813F27
:1042E00029F48091280218162CF3E6CF909127022A
:1042F000823F29F497FFE0CF10922702DDCF833F62
:1043000019F41916CCF3D8CF893F39F480912902DA
:10431000181694F610922902CFCF8A3F29F4809183
:10432000290287FFC9CFF6CF8B3F39F480912A024B
:1043300087FFC2CF10922A02BFCF8C3F29F4809111
:104340002A021816BCF3B8CF843F31F480912602BC
:104350008E7F80932602B0CF853F21F48091260284
:104360008D7FF7CF863F21F4809126028B7FF1CF9E
:10437000873F21F480912602877FEBCF883F21F48D
:10438000809126028F7EE5CF8D3F31F4809124020B
:104390008E7F8093240290CF8E3F21F4809124025F
:1043A0008D7FF7CF8F3F09F087CF809124028B7FDD
:1043B000F0CF86E292E00E94DD110E94991E909358
:1043C00023028093220208951F93CF93DF9380915D
:1043D0002202909123020E94A51EAC019091250219
:1043E0002091070130E0911106C0209108018AE078
:1043F000289F900111244217530780F080912702D3
:10440000C091280210912902D0912A0281110AC07C
:10441000C11178C0111176C0D11174C0DF91CF9154
:104420001F9108959F3F19F09F5F909325021816E2
:1044300024F40E946A20809327028091270287FF3C
:1044400005C00E946A208195809327021C1624F4DF
:104450000E946A20809328028091280287FF05C06D
:104460000E946A208195809328026091270266232A
:1044700031F1C0912802CC2311F1062E000C770BEC
:10448000880B990B0E94482A23E333E343E35FE35D
:104490000E94AC2A0E94102A609327026C2FCC0F36
:1044A000770B880B990B0E94482A23E333E343E3FD
:1044B0005FE30E94AC2A0E94102A60932802111622
:1044C00024F40E94B420809329028091290287FF5E
:1044D00005C00E94B4208195809329021D1624F402
:1044E0000E94B42080932A0280912A0287FF05C08F
:1044F0000E94B420819580932A02DF91CF911F9171
:104500000C94D9219F3F09F08FCFA0CF85E0E6E240
:10451000F2E0DF011D928A95E9F7109225021092D0
:10452000240208950E94EA1D811102C00E94C41D48
:104530000E94101E8093910280FF03C086950C9408
:10454000A30880E0FCCF80919102982F969593303C
:1045500030F49F5F990F8170892B80939102809135
:1045600091028160809391020E94141E80919102B9
:1045700086950C94A30880919102982F9E7F79F0E4
:104580008250809391028E7F91E009F490E08091B7
:10459000910290FB80F9809391020E94141E8091F9
:1045A000910286950C94A30890919102892F8E7F99
:1045B00090FF8160809391020E94141E809191026D
:1045C00080FF03C086950C94A30880E0FCCF9091F7
:1045D0009102892F86958F5F8F7791708430B8F420
:1045E000880F892B80939102809191028E7F91E0B8
:1045F00009F490E08091910290FB80F98093910200
:104600000E94141E8091910286950C94A3089093A9
:104610009102EACF90919102292F26958227880F47
:104620009170982B909391029E7F21E009F420E0F5
:104630008091910220FB80F9809391020E94141EC8
:104640008091910286950C94A30880914B02089565
:10465000CF93DF9300D01F92CDB7DEB79C0180913E
:104660009602843019F593E099833B832A839093D3
:10467000E9008FEF9091E800815095FD06C095ED1F
:104680009A95F1F700008111F5CF8091E80085FF40
:104690000DC050E040E063E070E0CE0101960E9462
:1046A00085258091E8008E778093E8000F900F9029
:1046B0000F90DF91CF910895CF93DF9300D01F9299
:1046C000CDB7DEB720919602243031F522E0298360
:1046D000805891099B838A8383E08093E9008FEF60
:1046E0009091E800815095FD06C095ED9A95F1F7FF
:1046F00000008111F5CF8091E80085FF0DC050E0EA
:1047000040E063E070E0CE0101960E948525809133
:10471000E8008E778093E8000F900F900F90DF9164
:10472000CF9108959C01809196028430F9F482E043
:104730008093E9009FEF8091E800915085FD06C0CD
:1047400085ED8A95F1F700009111F5CF8091E80091
:1047500085FF0CC050E040E065E070E0C9010E94B8
:1047600085258091E8008E778093E8000895CF93A7
:10477000DF93EC01809196028430F1F49091130163
:104780009923E9F090918F0297FF19C08093E90077
:104790008FEF9091E800815095FD06C095E19A95C4
:1047A000F1F700008111F5CF8091E80050E040E082
:1047B00060E270E085FD1AC0DF91CF91089581E03D
:1047C0008093E9008FEF9091E800815095FD06C03D
:1047D00095ED9A95F1F700008111F5CF8091E800F1
:1047E00085FFEACF50E040E068E070E0CE010E9433
:1047F00085258091E8008E778093E80080E2FE01B5
:10480000ABE2B2E001900D928A95E1F7D5CF8091AD
:104810009502811109C00E9415270E94722780917C
:10482000E20084608093E20008951092950208955A
:10483000089508950C945F1E42E061EC81E00E94AF
:10484000932642E061EC82E00E94932642E061EC14
:1048500083E00E94932642E261EC84E00C9493266C
:1048600080919802833009F455C030F4813071F1A1
:10487000823009F491C008958A3009F47DC08B30EC
:1048800009F463C0893009F044C0809197028132F5
:1048900009F03FC080919B0290919C02009711F01B
:1048A0000397B9F58091E800877F8093E8008091B5
:1048B000E80082FF2AC08091F10080934B02809132
:1048C000E8008B778093E8000C94C72680919702CC
:1048D000813AF9F48091E800877F8093E800809125
:1048E0009B0290919C02892B61F460E28BE292E042
:1048F00070E00E94D4258091E8008B778093E800D7
:10490000089560E090E080E0F3CF809196028111FD
:10491000CECF089580919702813AD9F780919B027A
:1049200090919C02892BA9F78091E800877F809362
:10493000E8008091E80080FFFCCF80911301809314
:10494000F1008091E8008E77BDCF8091970281328F
:1049500001F780919B0290919C02892BD1F6809166
:10496000E800877F8093E8000E94C7268091990223
:10497000809313010C94C61680919702813249F6F8
:104980008091E800877F8093E8000E94C72680918D
:104990009A0280934C02089580919702813A09F01F
:1049A000B8CF8091E800877F8093E8008091E8008D
:1049B00080FFFCCF80914C02C2CF84B7877F84BF39
:1049C0000FB6F894A895809160008861809360008C
:1049D000109260000FBE80E8809361001092610029
:1049E0000E9415120E9415270E9472278091E200F2
:1049F00084608093E20078940E94F4290E94171248
:104A000089E091E00E94C11180919602853029F0E1
:104A10000E9421120E948E11F7CF0E94191E8091D0
:104A20009402882389F30E944A1E882369F30E9416
:104A30006F25EACF292F33272330310579F158F438
:104A400021303105F1F02230310519F190E080E09C
:104A500030E020E01AC02132310599F122323105CF
:104A6000A9F7643098F770E0FB01EE0FFF1FE55DDA
:104A7000FE4F20813181695D7E4FFB01808190E096
:104A800004C082E190E026E13CE0FA01318320831A
:104A900008958DE690E029EA3BE0F7CF9927813031
:104AA000910561F028F0029789F6E9E7FBE002C082
:104AB000E5EAFBE0849190E09F01E7CFEDE8FBE0C1
:104AC000F9CF643008F0C2CFE62FF0E0EE0FFF1F01
:104AD000ED5CFE4F2081318189E090E0D6CF80E10E
:104AE00089BD82E189BD09B400FEFDCF8091D80067
:104AF0008F7D8093D8008091E00082608093E000F9
:104B00008091E00081FDFCCF0895AF92BF92CF92DB
:104B1000DF92FF920F931F93CF93DF936C01EB0112
:104B20008A010E94E626F82E811123C00115110585
:104B300039F0F80180819181C81BD90BC80ED91EAC
:104B4000B12CA12C2097A9F08091E80085FD22C00E
:104B50008091E8008E778093E80001151105A1F09F
:104B6000F80180819181A80EB91EB182A08285E0F2
:104B7000F82E8F2DDF91CF911F910F91FF90DF9035
:104B8000CF90BF90AF9008950E94E6268823D1F27F
:104B9000F82EEFCFF60181916F018093F1002197FC
:104BA000FFEFAF1ABF0ACECFFC0180919D0290911A
:104BB0009E0286179707A0F06115710529F4909160
:104BC000E8009E779093E80090E06115710551F43C
:104BD000911108C08091E80082FF35C080E00895FF
:104BE000BC01F2CF809196028823C9F18530C9F1CA
:104BF0008091E80083FD31C08091E80082FDEACF1A
:104C00008091E80080FFE1CF2091F3008091F200D5
:104C1000322F282F6115710519F02830310558F011
:104C200091E02830310509F090E02091E8002E77DE
:104C30002093E800CACF81918093F10061507109FF
:104C40002F5F3F4FE7CF80919602882341F0853058
:104C500041F08091E80083FFBDCF81E0089582E0BC
:104C6000089583E00895FC0180919D0290919E0239
:104C700086179707A0F06115710529F48091E80067
:104C80008E778093E80090E06115710551F49111E1
:104C900008C08091E80082FF36C080E00895BC0122
:104CA000F2CF809196028823D1F18530D1F18091A5
:104CB000E80083FD32C08091E80082FDEACF809158
:104CC000E80080FFE1CF2091F3008091F200322FC5
:104CD000282F6115710519F02830310558F091E041
:104CE0002830310509F090E08091E8008E778093BC
:104CF000E800CACF84918093F10031966150710928
:104D00002F5F3F4FE6CF80919602882341F0853098
:104D100041F08091E80083FFBCCF81E0089582E0FC
:104D2000089583E00895982F973028F08F7080932E
:104D3000E90081E008959093E900242F762F50E058
:104D4000981731F07091EC002091ED005091F00037
:104D500021FD02C09F5FE8CF3091EB003E7F309392
:104D6000EB003091ED003D7F3093ED003091EB0092
:104D700031603093EB007093EC002093ED00509382
:104D8000F0002091EE0027FDE5CF80E008958091AE
:104D9000970287FF13C08091E80082FF06C08091D0
:104DA000E8008B778093E80004C08091960281111F
:104DB000F2CF0895809196028823D9F38091E8007C
:104DC00080FFF8CF8091E8008E77ECCF2091E4004F
:104DD0003091E50085E69091EC0090FF06C090913F
:104DE000E80090FF06C080E008959091E80092FDF1
:104DF000FACF90919602992391F0953091F090918D
:104E0000EB0095FD10C04091E4005091E50024179F
:104E1000350709F381509A01F1F684E0089582E0A4
:104E2000089583E0089581E008950E9483270E94F9
:104E30008B27E0EEF0E0808181608083E8EDF0E098
:104E400080818F77808319BCA7EDB0E08C918E7F35
:104E50008C9380818F7E80831092950208950F93AA
:104E60001F93CF93DF930E9483270E948B27C8ED67
:104E7000D0E088818F778883888180688883888163
:104E80008F7D888319BC1092960210929202109224
:104E900094021092930200EE10E0F80180818B7F63
:104EA000808388818160888342E060E080E00E94A6
:104EB0009326E1EEF0E080818E7F8083E2EEF0E0E9
:104EC000808181608083808188608083F801808117
:104ED0008E7F8083888180618883DF91CF911F914D
:104EE0000F910895E8EDF0E080818F7E8083E7EDFB
:104EF000F0E080818160808384E082BF81E08093E4
:104F000095020C942F27E8EDF0E080818E7F80835E
:104F10001092E20008951092DA001092E1000895D4
:104F20001F920F920FB60F9211242F933F934F931E
:104F30005F936F937F938F939F93AF93BF93EF9301
:104F4000FF938091E10082FF0BC08091E20082FF1D
:104F500007C08091E1008B7F8093E1000E94F329DC
:104F60008091DA0080FF19C08091D80080FF15C0C1
:104F70008091DA008E7F8093DA008091D90080FFE3
:104F800094C080E189BD82E189BD09B400FEFDCFF6
:104F900081E0809396020E9407248091E10080FFC7
:104FA00019C08091E20080FF15C08091E2008E7FE1
:104FB0008093E2008091E20080618093E200809122
:104FC000D80080628093D80019BC85E08093960257
:104FD0000E9419248091E10084FF29C08091E200A1
:104FE00084FF25C080E189BD82E189BD09B400FE4E
:104FF000FDCF8091D8008F7D8093D8008091E10013
:105000008F7E8093E1008091E2008F7E8093E200AA
:105010008091E20081608093E20080919202882377
:1050200009F449C084E0809396020E941A2480917A
:10503000E10083FF29C08091E20083FF25C08091B9
:10504000E100877F8093E10082E0809396021092D6
:1050500092028091E1008E7F8093E1008091E200D6
:105060008E7F8093E2008091E20080618093E20075
:1050700042E060E080E00E9493268091F00088602A
:105080008093F0000E941824FF91EF91BF91AF919F
:105090009F918F917F916F915F914F913F912F9150
:1050A0000F900FBE0F901F90189519BC109296028A
:1050B0000E94152472CF8091E30087FD02C081E039
:1050C000B2CF83E0B0CF1F920F920FB60F92112490
:1050D0002F933F934F935F936F937F938F939F9300
:1050E000AF93BF93CF93EF93FF93C091E900CF703D
:1050F0008091EC001092E9008091F000877F80930E
:10510000F00078940E949F281092E9008091F000AE
:1051100088608093F000C093E900FF91EF91CF91F8
:10512000BF91AF919F918F917F916F915F914F91BF
:105130003F912F910F900FBE0F901F9018951F93C6
:10514000CF93DF93CDB7DEB7AA970FB6F894DEBF43
:105150000FBECDBFE7E9F2E08091F100819322E03C
:10516000EF39F207C9F70E9430248091E80083FFED
:1051700042C080919702909198029A3008F03BC00B
:10518000E92FF0E0EA53F74D0C94692BD028F4286E
:10519000FB28F428FB284F297129FB28C629D3298D
:1051A000803879F0823839F580919B028F70809336
:1051B000E9008091EB0085FB882780F91092E900D7
:1051C00006C0809193029091940291118260909117
:1051D000E800977F9093E8008093F1001092F1002F
:1051E0008091E8008E772DC0282F2D7F21F4882311
:1051F000D1F0823059F18091E80083FF0AC080919C
:10520000E800877F8093E8008091EB0080628093C4
:10521000EB00AA960FB6F894DEBF0FBECDBFDF91AC
:10522000CF911F91089580919902813021F7933099
:1052300009F080E0809394021092E9008091E800E8
:10524000877F8093E8000E94C726D5CF809199027E
:105250008111F2CF80919B028F7069F28093E900F7
:105260002091EB0020FFE8CF933031F48091EB00E8
:1052700080628093EB00E0CF9091EB00906190937F
:10528000EB0021E030E001C0220F8A95EAF720937D
:10529000EA001092EA008091EB008860EACF811169
:1052A000AACF109199021F778091E3008078812B1B
:1052B0008093E3008091E800877F8093E8000E945C
:1052C000C7268091E80080FFFCCF8091E3008068D2
:1052D0008093E30083E0111101C082E08093960285
:1052E0008ACF8058823008F086CF809199029091C1
:1052F0009A028C3D23E09207A1F583E08A838AE23B
:1053000089834FB7F894DE01139620E03EE051E226
:10531000E32FF0E050935700E49120FF03C0E295A3
:10532000EF703F5FEF708E2F90E0EA30C0F0C796CD
:105330008D939D932F5F243159F74FBF8091E800E3
:10534000877F8093E8006AE270E0CE0101960E94B8
:10535000D4258091E8008B778093E8004CCFC096ED
:10536000E7CFAE014F5F5F4F60919B020E941A250D
:10537000BC01892B09F43FCF9091E800977F90936F
:10538000E80089819A810E943326E3CF803809F0B2
:1053900032CF8091E800877F8093E800809192026D
:1053A0008093F1001DCF811126CF90919902923008
:1053B00008F021CF8091E800877F8093E8009093E8
:1053C00092020E94C72680919202882331F084E0E5
:1053D000809396020E941C240ECF8091E30087FDEB
:1053E000F6CF81E0F5CF0895CF9380919602882380
:1053F00099F0C091E900CF708091EC0080FD0EC063
:1054000080E0C82B1092E9008091E80083FD0E94A3
:105410009F28CF70C093E900CF91089580E8F1CF25
:105420000E94172A6894B1110C94A62A08950E942C
:105430008B2A88F09F5798F0B92F9927B751B0F071
:10544000E1F0660F771F881F991F1AF0BA95C9F708
:1054500014C0B13091F00E94A52AB1E008950C94D7
:10546000A52A672F782F8827B85F39F0B93FCCF38A
:10547000869577956795B395D9F73EF49095809585
:10548000709561957F4F8F4F9F4F0895E89409C0A5
:1054900097FB3EF490958095709561957F4F8F4F67
:1054A0009F4F9923A9F0F92F96E9BB279395F6957D
:1054B000879577956795B795F111F8CFFAF4BB0FFB
:1054C00011F460FF1BC06F5F7F4F8F4F9F4F16C05F
:1054D000882311F096E911C0772321F09EE8872FE9
:1054E000762F05C0662371F096E8862F70E060E0A5
:1054F0002AF09A95660F771F881FDAF7880F96951E
:10550000879597F9089557FD9058440F551F59F006
:105510005F3F71F04795880F97FB991F61F09F3FA0
:1055200079F087950895121613061406551FF2CFC9
:105530004695F1DF08C0161617061806991FF1CF19
:1055400086957105610508940895E894BB27662740
:105550007727CB0197F908950E94BF2A0C94302B2E
:105560000E94222B38F00E94292B20F0952311F065
:105570000C94192B0C941F2B11240C94A62A0E9416
:10558000832A70F3959FC1F3950F50E0551F629FDA
:10559000F001729FBB27F00DB11D639FAA27F00D8C
:1055A000B11DAA1F649F6627B00DA11D661F829FB3
:1055B0002227B00DA11D621F739FB00DA11D621F98
:1055C000839FA00D611D221F749F3327A00D611DB5
:1055D000231F849F600D211D822F762F6A2F112497
:1055E0009F5750409AF0F1F088234AF0EE0FFF1FCA
:1055F000BB1F661F771F881F91505040A9F79E3F21
:10560000510580F00C94192B0C94A62A5F3FE4F30B
:10561000983ED4F3869577956795B795F795E79576
:105620009F5FC1F7FE2B880F911D9695879597F97F
:10563000089597F99F6780E870E060E008959FEF14
:1056400080EC089500240A94161617061806090619
:10565000089500240A9412161306140605060895E8
:10566000092E0394000C11F4882352F0BB0F40F470
:10567000BF2B11F460FF04C06F5F7F4F8F4F9F4FB0
:105680000895AA1BBB1B51E107C0AA1FBB1FA61789
:10569000B70710F0A61BB70B881F991F5A95A9F7DB
:1056A00080959095BC01CD01089597FB072E16F4C7
:1056B000009407D077FD09D00E94412B07FC05D04C
:1056C0003EF4909581959F4F0895709561957F4F19
:1056D0000895EE0FFF1F0590F491E02D0994F999BC
:1056E000FECF92BD81BDF89A992780B50895A6E1B5
:1056F000B0E044E050E00C94A92BA8E1B0E042E017
:1057000050E00C94A92B262FF999FECF92BD81BDB4
:10571000F89A019700B4021639F01FBA20BD0FB6EF
:10572000F894FA9AF99A0FBE08950396272F0E94CB
:10573000842B0E94832B252F0E94842B242F0C94D2
:10574000842B0196272F0E94842B0C94832BDC0141
:10575000CB01FC01F999FECF06C0F2BDE1BDF89A7C
:10576000319600B40D9241505040B8F70895F89426
:02577000FFCF69
:10577200FFFD012808140A321E2523B72392235C59
:1057820023282301C63337909192939594969734A8
:105792003567F7F6F1F4F5404D3639E40C970C61B4
:0C57A2000C280CBB0BD40BED0B060C000C
:00000001FF
