:100000000C94D4060C9418070C9418070C94180739
:100010000C9418070C9418070C9418070C941807E4
:100020000C9418070C9418070C94FF2B0C94D12CEB
:100030000C9477220C9418070C9418070C9418074A
:100040000C9418070C9418070C9418070C941807B4
:100050000C94D60A0C94DE220C9418070C94180702
:100060000C9418070C9418070C9418070C94180794
:100070000C9418070C9418070C9418070C94180784
:100080000C9418070C9418070C9418070C94180774
:100090000C9418070C9418070C9418070C94180764
:1000A0000C9418070C9418070C9418072F0739079D
:1000B00043074D07560760076B078E08940898089A
:1000C0009B089F08A308A708AB08B008B408B808A5
:1000D000BC08BF08C308C708CB08CF08D4083A1823
:1000E0003A1874187418B318D5186B1A6B1A1B19B0
:1000F0006B1AC219C219391A401A6B1A661ACF192B
:10010000CF19CF19CF19CF19CF19CF19CF19CF19AF
:10011000CF19CF19CF19CF19CF19CF19CF19E1198D
:10012000F119F819FF19091AFF1AFF1A121B121BED
:10013000081B121B121B121BFF1AFF1A0E1B121B8D
:10014000121B0E1B362D5D2D4B2E5D2D4B2EA52D1E
:10015000C82D4B2E1E2E2D2E07634236B79BD8A7D7
:100160001A39685618AEBAAB558C1D3CB7CC5763DC
:10017000BD6DEDFD753EF6177231BF000000803F8A
:1001800005A84CCDB2D44EB93836A9020C50B9915D
:100190008688083CA6AAAA2ABE000000803F00F07C
:1001A00001F002F003F004F005F006F000001E007C
:1001B0001F0020002100220023002400250026002B
:1001C00027002D002E002A002B0014001A00080022
:1001D000150017001C0018000C00120013002F005F
:1001E00030003100390004001600070009000A0041
:1001F0000B000D000E000F00330034002C0028000F
:10020000E1002C001D001B00060019000500110074
:100210001000360037003800E1001400E000E30071
:10022000E20000002C002C00E00046002C002A0018
:10023000E20001515100025135003A003B003C0000
:100240003D003E003F0040004100420043004400AA
:1002500045004C000100C05C5200C15CC35CC45C42
:10026000C55CC65CC75CC85C01004A004D00005C10
:100270000100500051004F00BD5CBB5CBC5CBE5C2B
:10028000010001000100010001004800010001001F
:10029000010001000100010001000100AE00AC00FE
:1002A000AB00AD00010001000100010001000000F1
:1002B0000100010001000100010001000100010036
:1002C0000100010001000100010001000100010026
:1002D0000100010001000100010001000100010016
:1002E0000100010001000100010001000100010006
:1002F00001000100010001000100010001000100F6
:1003000001000100010001000100010001000100E5
:1003100001000100010001000100010001000100D5
:1003200001000100010001000100010001000100C5
:1003300001000100010001000100000001000100B6
:1003400001000100010001000100010001000100A5
:100350000100010001000100010001000100010095
:100360000100010001000100010001000100010085
:100370000100010001000100010001000100010075
:100380000100010001000100010001000100010065
:100390000100010001000100010001000100010055
:1003A0000100010001000100010001000100010045
:1003B0000100010001000100010001000100010035
:1003C0000100010001000000010001000100010026
:1003D0000100010001000100010001000100010015
:1003E0000100010001000100010001000100010005
:1003F00001000100010001000100010001000100F5
:1004000001000100010001000100010001000100E4
:1004100001000100010001000100010001000100D4
:1004200001000100010001000100010001000100C4
:1004300001000100010001000100010001000100B4
:1004400001000100010001000100010001000100A4
:100450000100000001000100010001000100010095
:100460000100010001000100010001000100010084
:100470000100010001000100010001000100010074
:100480000100010001000100010001000100010064
:100490000100010001000100010001000100010054
:1004A0000100010001000100010001000100010044
:1004B0000100010001000100010001000100010034
:1004C0000100010001000100010001000100010024
:1004D0000100010001000100010001000100000015
:1004E0000100010001000100010001000100010004
:1004F00001000100010001000100010001000100F4
:1005000001000100010001000100010001000100E3
:1005100001000100010001000100010001000100D3
:1005200001000100010001000100010001000100C3
:1005300001000100010001000100010001000100B3
:1005400001000100010001000100010001000100A3
:100550000100010001000100010001000100010093
:100560000100010001000100010000000100010084
:100570000100010001000100010001000100010073
:100580000100010001000100010001000100010063
:100590000100010001000100010001000100010053
:1005A0000100010001000100010001000100010043
:1005B0000100010001000100010001000100010033
:1005C0000100010001000100010001000100010023
:1005D0000100010001000100010001000100010013
:1005E0000100010001000100010001000100010003
:1005F00001000100010000000100010001000100F4
:1006000001000100010001000100010001000100E2
:1006100001000100010001000100010001000100D2
:1006200001000100010001000100010001000100C2
:1006300001000100010001000100010001000100B2
:1006400001000100010001000100010001000100A2
:100650000100010001000100010001000100010092
:100660000100010001000100010001000100010082
:100670000100010001000100010001000100010072
:100680000100000001000100010001000100010063
:100690000100010001000100010001000100010052
:1006A0000100010001000100010001000100010042
:1006B0000100010001000100010001000100010032
:1006C0000100010001000100010001000100010022
:1006D0000100010001000100010001000100010012
:1006E0000100010001000100010001000100010002
:1006F00001000100010001000100010001000100F2
:1007000001000100010001000100010001000000E2
:1007100001000100010001000100010001000100D1
:1007200001000100010001000100010001000100C1
:1007300001000100010001000100010001000100B1
:1007400001000100010001000100010001000100A1
:100750000100010001000100010001000100010091
:100760000100010001000100010001000100010081
:100770000100010001000100010001000100010071
:100780000100010001000100010001000100010061
:100790000100010001000100010000000100010052
:1007A0000100010001000100010001000100010041
:1007B0000100010001000100010001000100010031
:1007C0000100010001000100010001000100010021
:1007D0000100010001000100010001000100010011
:1007E0000100010001000100010001000100010001
:1007F00001000100010001000100010001000100F1
:1008000001000100010001000100010001000100E0
:1008100001000100010001000100010001000100D0
:1008200001000100010000000100010001000100C1
:1008300001000100010001000100010001000100B0
:1008400001000100010001000100010001000100A0
:100850000100010001000100010001000100010090
:100860000100010001000100010001000100010080
:100870000100010001000100010001000100010070
:100880000100010001000100010001000100010060
:100890000100010001000100010001000100010050
:1008A0000100010001000100010001000100010040
:1008B0000100000001000100010001000100010031
:1008C0000100010001000100010001000100010020
:1008D0000100010001000100010001000100010010
:1008E0000100010001000100010001000100010000
:1008F00001000100010001000100010001000100F0
:1009000001000100010001000100010001000100DF
:1009100001000100010001000100010001000100CF
:1009200001000100010001000100010001000100BF
:1009300001000100010001000100010001000000B0
:10094000010001000100010001000100010001009F
:10095000010001000100010001000100010001008F
:10096000010001000100010001000100010001007F
:10097000010001000100010001000100010001006F
:10098000010001000100010001000100010001005F
:10099000010001000100010001000100010001004F
:1009A000010001000100010001000100010001003F
:1009B000010001000100010001000100010001002F
:1009C0000100010001000100010000000100010020
:1009D000010001000100010001000100010001000F
:1009E00001000100010001000100010001000100FF
:1009F00001000100010001000100010001000100EF
:100A000001000100010001000100010001000100DE
:100A100001000100010001000100010001000100CE
:100A200001000100010001000100010001000100BE
:100A300001000100010001000100010001000100AE
:100A4000010001000100010001000100010001009E
:100A5000010001000100000001000100010001008F
:100A60000100010001000100010001000000000080
:100A70000000000000000001010203040506080A4E
:100A80000C0F1114181C2024292E33393F464C53C7
:100A90005B626A7179818A929AA2AAB2B9C1C8CFFF
:100AA000D5DCE1E7EBF0F4F7FAFCFDFEFFFEFDFC20
:100AB000FAF7F4F0EBE7E1DCD5CFC8C1B9B2AAA2EE
:100AC0009A928A8179716A625B534C463F39332E20
:100AD0002924201C1814110F0C0A0806050403020F
:100AE0000101000000000000000000006801F000AB
:100AF000B40078005A007F3F1F64321464321478C7
:100B00003C1E1E140A050000000000010101010145
:100B100001010101020202020202020202030303B6
:100B20000303030303040404040404050505050585
:100B30000606060606070707070808080809090940
:100B40000A0A0A0A0B0B0B0C0C0C0D0D0D0E0E0FE6
:100B50000F0F101011111112121313141415151672
:100B6000161717181819191A1A1B1C1C1D1D1E1FE1
:100B70001F20202122222324252526272728292A31
:100B80002B2B2C2D2E2F2F30313233343536363758
:100B900038393A3B3C3D3E3F40414243444647485A
:100BA000494A4B4C4D4F50515253555657585A5B2A
:100BB0005C5E5F606263646667696A6C6D6E7071CB
:100BC00073747678797B7C7E8081838486888A8B37
:100BD0008D8F91929496989A9B9D9FA1A3A5A7A96A
:100BE000ABADAFB1B3B5B7B9BBBDBFC1C4C6C8CA61
:100BF000CCCFD1D3D6D8DADCDFE1E4E6E8EBEDF018
:100C0000F2F5F7FAFCFF04033000000010037A004D
:100C100065006B006C006500770061000000080350
:100C200064006F00750000000403090409026D00F0
:100C3000040100A0FA0904000001030101000921D8
:100C4000110100012240000705810308000A090480
:100C500001000103010200092111010001224D00E0
:100C60000705820308000A090402000103000000CE
:100C70000921110100012236000705830308000A3B
:100C800009040300010300000009211101000122F1
:100C90003900070584032000011201100100000043
:100CA00008EDFE606001000102030105010906A1D3
:100CB00001050719E029E71500250195087501814F
:100CC000020508190129059505750191029501751F
:100CD0000391010507190029F71500250195F875FD
:100CE000018102C005010980A101850216010026CB
:100CF00003001A81002A8300751095018100C00548
:100D00000C0901A1018503160100269C021A0100AD
:100D10002A9C02751095018100C005010902A101FC
:100D20000901A100050919012905150025019505ED
:100D300075018102950175038101050109300931B1
:100D40001581257F95027508810609381581257F53
:100D5000950175088106050C0A38021581257F95D5
:100D60000175088106C0C005010906A10105071922
:100D7000E029E715002501950875018102950175A7
:100D8000088101050819012905950575019102954C
:100D900001750391010507190029FF150026FF00C1
:100DA000950675088100C00011241FBECFEFDAE060
:100DB000DEBFCDBF04B603FE24C08091AA0290918D
:100DC000AB02A091AC02B091AD028730904BA7402E
:100DD000B04BB9F41092AA021092AB021092AC027E
:100DE0001092AD0214BE84B7877F84BF88E10FB62E
:100DF000F89480936000109260000FBEE0E0F8E38A
:100E0000099511E0A0E0B1E0E6EAF4E602C0059041
:100E10000D92AE33B107D9F722E0AEE3B1E001C0E5
:100E20001D92AA3AB207E1F70E9429290C94513287
:100E30000C94000080E090E008950895089581E00A
:100E40000895462F50E04730510508F050C0FA0190
:100E5000EA5AFF4FDC0112968C910C94E9318823F9
:100E600009F445C00E944E1281E00E94BE1140E08C
:100E70003AC08823E1F10E944E1281E00E94BE1127
:100E800040E061E631C0882391F10E944E1281E07A
:100E90000E94BE1140E06FEF27C0882341F10E94FD
:100EA0004E1281E00E94BE1140E008C08823F9F094
:100EB0000E944E1281E00E94BE114FEF6FEF09C0F9
:100EC0008823A9F00E944E1281E00E94BE114FEFCC
:100ED00060E080E00AC0882351F00E944E1281E059
:100EE0000E94BE1140EF60E08FEF0C941210089545
:100EF00081FF02C0809A01C0809888980895CF929F
:100F0000DF92EF92FF928C3724E1920730F469E090
:100F100070E00E949F31CB0127C0A0E0B0E08A5072
:100F2000974DAF4FBF4F6627782F892F9A2F25EF08
:100F300038E241E050E00E94C73169017A01CA01FC
:100F4000B9010E948F319B01AC01C701B6010E941B
:100F50008F31BB27A92F982F872F009721E0A20759
:100F6000B10511F48FEF9FEFFF90EF90DF90CF90DE
:100F7000089581E008950C941F070E94ED1A2FEF49
:100F800084E39CE0215080409040E1F700C00000E5
:100F90000C9404230C94410E843030F4811105C06C
:100FA000909180009F7D04C083E0909180009062CA
:100FB00090938000282F30E0AFEFBFEF0E94EF3119
:100FC00023E030E040E050E00E94C731C9010E94B8
:100FD0007F0790938B0080938A00089580916F0023
:100FE0008170089510923F0110923E0110924001CD
:100FF000EFE6F0E08081816080830895EFE6F0E025
:1010000080818E7F80830E9458270C94CC070E9499
:10101000EE0781110C94FE070C94F207FF920F93D8
:101020001F93CF93DF938C01FC01C081D18180910C
:101030009501811113C08281882349F0CE010E945D
:101040004320F82E682FCE010E94E91F04C0CE0174
:101050000E941720F82EBE018F2D04C0CE010E94E1
:101060004320BE010E945D0BEC01B8010E94BB074A
:10107000882309F494C2B801CE010E94F30D88239D
:1010800009F48DC2C73CFCE5DF0741F4F801828119
:10109000882309F484C20E94891181C2C83C8CE56E
:1010A000D80708F03AC1C03C9CE5D90741F4F801E3
:1010B0008281882309F473C20E94821270C2C13CEB
:1010C000ECE5DE0708F0DEC0C531FCE5DF0708F01F
:1010D000A4C0C2308CE5D80708F478C0F80182813A
:1010E000882309F47FC00E947421811102C00E94EC
:1010F0004E210E94912190E090939B0280939A024E
:10110000FE01E350FC45E231F10520F4E35AFF4FC4
:101110000C94E93180919A02816003C080919A0217
:10112000826080939A024BC080919A028460F9CFCA
:1011300080919A0213C080919A028061F2CF8091CF
:101140009A028062EECF80919A028064EACF809109
:101150009A028068E6CF80919A0284608860E1CF2D
:1011600080919A028E7FDDCF80919A028D7FD9CFB8
:1011700080919A028B7FD5CF80919A0213C0809183
:101180009A028F7ECECF80919A028F7DCACF8091B6
:101190009A028F7BC6CF80919A028F77C2CF8091BF
:1011A0009A028B7F877FBDCF90919A0297FB882709
:1011B00080F921E0822780FB97F990939A02809131
:1011C0009A020E9495210E94ED1AE9C1C1159CE581
:1011D000D90781F0C130DC45A9F081E08093460158
:1011E00080934701C801DF91CF911F910F91FF902C
:1011F0000C94B907F8018281882309F4D0C10E94B8
:10120000BD07CDC1F8018281882309F4C8C180914E
:101210002802816080932802C2C1C531FCE5DF0746
:1012200029F50E941521382FF801228180910301B0
:1012300090910401222371F03A7A21E009F420E030
:1012400020934101222311F065E301C069E20E946D
:101250000A2209C020914101222311F065E301C057
:1012600069E20E9415220E94E22099C1CF3BDC4531
:1012700009F0B3CFF8018281882309F490C10E945C
:1012800007088DC1C33C9CE5D90741F4F801828170
:10129000882309F484C10E941C1181C1C43CECE57F
:1012A000DE0700F5C13CFCE5DF0761F4F80182814F
:1012B000882309F474C10E941521827281F00E9472
:1012C00045126DC1C23CDC4509F087CFF80182812F
:1012D000882309F464C10E941521827281F30E945F
:1012E0003B125DC1F8018281C53CFCE5DF0731F4AA
:1012F000882309F454C10E94541151C1C63CDC45F5
:1013000030F4882309F44BC10E94351148C1882369
:1013100009F445C10E946F1142C1CE3CECE5DE07E5
:10132000B9F4F8018281882309F439C10E94EC0FD5
:10133000653171058105910538F00E94EC0F673128
:1013400071058105910558F285E10E94BE1127C102
:10135000CF3CFCE5DF0708F07AC0CA3C8CE5D80733
:10136000B1F4F8018281882309F419C10E94EC0FBD
:10137000623071058105910540F00E94EC0F6530E7
:1013800071058105910508F4AACF82E0DECFCB3C40
:101390009CE5D907B8F4C83CECE5DE0741F4F80158
:1013A0008281882309F4FBC00E94A411F8C0C93CC3
:1013B000DC4509F012CFF8018281882309F4EFC0DF
:1013C00081E0C3CFF8018281CC3CFCE5DF07A1F4CA
:1013D000882309F4E4C00E94EC0F6930710581058F
:1013E000910540F00E94EC0F6E307105810591056A
:1013F00008F475CF89E0A9CFCD3CDC45A0F4882363
:1014000009F4CDC00E94EC0F66307105810591058D
:1014100040F00E94EC0F683071058105910508F4D9
:101420005ECF86E092CF882309F4B9C00E94EC0F0A
:101430006F3071058105910540F00E94EC0F643119
:1014400071058105910508F44ACF8FE07ECFC23D3A
:10145000ECE5DE0739F5F8018281882361F010920E
:1014600047010E94A922909345018093440180E2A4
:101470000E94EA1794C08091470181110FC08091AA
:101480004401909145010E94B522883C910530F4B9
:1014900087E20E94911687E20E94891780E20E94EB
:1014A000F1177DC0C33DFCE5DF0708F043C0F8013C
:1014B0008281C03DFCE5DF07A1F4882309F46FC0F9
:1014C0000E94EC0F693171058105910540F00E9481
:1014D000EC0F623271058105910508F400CF89E1B6
:1014E00034CFC13DDC4528F4882309F458C088E195
:1014F0002CCF882351F0109246010E94A92290938C
:1015000043018093420182E0B3CF80914601811173
:101510000FC080914201909143010E94B522883C06
:10152000910530F486E20E94911686E20E948917A6
:1015300082E0B5CFC63DECE5DE0731F4F8018281EB
:10154000882369F180E009C0C73DFCE5DF0741F46D
:10155000F8018281882319F182E00E94C5291FC009
:10156000C33DDC4509F039CEF8018281811177CF86
:1015700080914701811192CF809144019091450162
:101580000E94B522883C910508F088CF80E20E9435
:10159000F11788E20E94911688E20E94891780E084
:1015A000DF91CF911F910F91FF9008951F920F929D
:1015B0000FB60F9211242F933F934F935F936F9326
:1015C0007F938F939F93AF93BF93CF93EF93FF93AB
:1015D0002091000180913E0190913F01019644EFDE
:1015E000249F90011124B9010E949F3190933F01E3
:1015F00080933E01B901660F672F661F770B7195C7
:101600000E949F316F7780914001823019F46034DD
:1016100051F404C0813039F46F3729F480916F00A0
:101620008E7F80936F00E62FF0E0E459F54FC49170
:101630000E945827F82F41E051E0C49FC001C59F88
:10164000900D112463E070E00E949F31F69FC0016D
:10165000F79F900D11240E947F0790938B00809339
:101660008A00FF91EF91CF91BF91AF919F918F91A0
:101670007F916F915F914F913F912F910F900FBE8E
:101680000F901F901895269A2E9882E280938000E2
:1016900089E1809381008FEF9FEF90938700809383
:1016A00086000E94A9260C94F2070E94430B0C941A
:1016B0003F0E0C9478070C94590B9EE0799FF00133
:1016C000112496E4899FE00DF11D1124E60FF11D10
:1016D000EE0FFF1FE455FE4F859194910895880FFA
:1016E000991F82569E4FFC01859194910895CF9346
:1016F000DF930E945D0B0E94530DEC01811521E5E3
:10170000920708F043C0811530E5930708F021C126
:10171000883E910508F5803E910508F0C0C1883AE1
:10172000910578F4853A910508F09EC081309105C5
:1017300009F4B5C108F46CC18430910508F0AFC15B
:1017400067C18D3B910508F49AC0803C910508F46F
:101750005FC1805C9109ECC0C11580E3D80780F4BB
:10176000C11520E2D20708F0E1C0C03FD10508F45E
:101770004FC1CF3FD10511F008F091C1D0658FC1A5
:10178000C11530E4D30708F0E1C0D6C0C11589E522
:10179000D80740F5C11528E5D20708F025C1C115C5
:1017A00034E5D30778F4C11583E5D80708F002C102
:1017B000C11522E5D20708F0E8C0DC2FCC27C16FA5
:1017C000D06A6DC1C11535E5D30708F408C1C1154C
:1017D00086E5D80708F01CC1CF71DD27DC2FCC27A8
:1017E000D0625DC1CB3B2CE5D20709F408C1D8F427
:1017F000C93B8CE5D80709F4FCC008F0FDC0C11551
:101800003AE5D30708F004C18C2F8F70806E90E00A
:10181000906A34E0D695C7953A95E1F7CF709C0170
:101820003C2BE9013CC1CE3B8CE5D80709F4EDC067
:1018300060F4CC3B3CE5D30709F4E4C0CD3BDC4588
:1018400009F0E6C0C0E0D2ED2AC1CE019056811564
:10185000904208F0DDC08D2F8F710E94CF0DDD27E3
:10186000D0628F71D82B1BC1853A910509F4D3C082
:10187000863A910509F4D2C0C3E8D0E410C1883A91
:10188000910509F4CEC0893A910509F4CDC08A3A90
:10189000910509F4CCC08B3A910509F4CBC08C3A80
:1018A000910509F4CAC08B3B910509F4C9C08C3B72
:1018B000910509F4C8C08D3A910509F4C7C0803B71
:1018C000910509F4C6C08E3A910509F4C5C08F3A56
:1018D000910509F4C4C0813B910509F4C3C0823B62
:1018E000910509F4C2C0833B910509F4C1C0843B52
:1018F000910509F4C0C0853B910509F4BFC0863B42
:10190000910509F4BEC0873B910509F4BDC0883B31
:10191000910509F4BCC0893B910509F4BBC08A3B21
:10192000910509F0BAC0CAE2D6E4B9C0CE019F70F1
:101930000E946F0BEC01B3C0CE019927D3FF03C007
:10194000EC01D86CACC0EC01D06CA9C0DF70D06ADF
:10195000A6C0282F237081E090E002C0880F991F55
:101960002A95E2F79C689E01E4E036952795EA9572
:10197000E1F72370922BCF70C695C69530E2C39FD6
:10198000E0011124C82BD92B8AC08C2F869586950F
:1019900020E2829FC00111249E0123703327C1E001
:1019A000D0E002C0CC0FDD1F2A95E2F7C82BD92B5F
:1019B000DC6875C08C2F8695869530E2839FC001C8
:1019C00011249E0123703327C1E0D0E002C0CC0F68
:1019D000DD1F2A95E2F7C82BD92BDA6860C0DC2F0F
:1019E000CC27C46FD06A5BC0DC2FCC27C06FD06A15
:1019F00056C0C0E0D4ED53C0C0E0D5ED50C0C0E04B
:101A0000D1ED4DC0C0E0D0ED4AC0C0E0D3ED47C03D
:101A1000C0E0D0E044C0C1E8D0E441C0C2E8D0E4B6
:101A20003EC0C2EED4E43BC0C9EED4E438C0CAEE36
:101A3000D4E435C0C5EBD4E432C0C6EBD4E42FC047
:101A4000C3EBD4E42CC0C4EBD4E429C0C7EBD4E48A
:101A500026C0CCECD4E423C0CDECD4E420C0C3E851
:101A6000D5E41DC0CAE8D5E41AC0C2E9D5E417C060
:101A7000C4E9D5E414C0C1E2D6E411C0C3E2D6E49F
:101A80000EC0C4E2D6E40BC0C5E2D6E408C0C6E28C
:101A9000D6E405C0C7E2D6E402C0C0E0D4E4CE017B
:101AA000DF91CF9108958238910549F1B0F48133E7
:101AB000910509F459C048F48932910509F44FC0E1
:101AC0008A32910509F455C008958533910509F4CA
:101AD00041C08933910599F00895833E910531F114
:101AE00038F4803E910591F0823E9105A9F0089569
:101AF000863E910501F1873E910539F108952091C7
:101B00009A0220FD3BC021FD39C0089580919A02C0
:101B100080FF34C089E341C080919A0282FF32C0C5
:101B200080919A0284FF2CC080E037C080919A0295
:101B300082FD28C0F5CF80919A0283FF25C0809155
:101B40009A0284FDF1CF87EE28C080919A0283FD2E
:101B50001BC0F5CF80919A0285FF18C019C08091F3
:101B60009A0285FF15C012C080919A0286FF12C0AA
:101B700013C080919A0286FF0FC00CC080EE0DC08A
:101B800083EE0BC082EE09C086EE07C085E305C078
:101B900089E203C081E301C08AE290E00895909158
:101BA0009A0292FF0DC0282F2871283019F4877FE0
:101BB000846006C0282F2471243011F48B7F886044
:101BC00093FF0DC0282F2871283119F4877E846176
:101BD00006C0282F2471243111F48B7E886194FD76
:101BE000877E08950895CF93DF93EC01FB018281F6
:101BF000811102C081E040C080915501811125C052
:101C0000C631DC45B9F70E94F20D81E080935501A1
:101C10000E94A9229093540180935301109248018D
:101C200010924A011092490110924C0110924B01FE
:101C300010924E0110924D011092500110924F01DE
:101C4000109252011092510116C08091530190914F
:101C500054010E94B522883C910560F680914801AC
:101C6000E82FF0E0EE0FFF1FE75BFE4FD183C0834C
:101C70008F5F8093480180E0DF91CF9108950C94AD
:101C80001D070C941E0785B7806885BF85B78068DF
:101C900085BFA6E1B1E021E030E08D91E82FE2952B
:101CA000EF70F0E041A18F70B90102C0660F771F9D
:101CB0008A95E2F7CB01962F9095492341A392A1F3
:101CC000982B92A371E0A432B70739F7A4E2B1E0F0
:101CD00021E030E08D91E82FE295EF70F0E041A136
:101CE0008F70B90102C0660F771F8A95E2F7CB01AA
:101CF000962F9095492341A392A1982B92A371E02E
:101D0000A932B70739F7E0E6F1E0A6E5B1E01192B4
:101D100011921D921D9281E0EA36F807C1F70C94EA
:101D2000550B2F923F924F925F926F927F928F92BC
:101D30009F92AF92BF92CF92DF92EF92FF920F935A
:101D40001F93CF93DF9306E111E0212C312CEE2479
:101D5000E394F12C55245394E80189918E01E82FE6
:101D6000E295EF70F0E021A18F70A70102C0440F4F
:101D7000551F8A95E2F7CA01242B21A322A1742EB4
:101D80007094272122A350EA5A95F1F76701022C9B
:101D900002C0CC0CDD1C0A94E2F7460180949094BA
:101DA00024E231E0A6E5B1E0612C5D014D915C914A
:101DB0001197E90149909E01642D62956F7070E062
:101DC000EB0168A170E0D42DDF700D2E02C0759577
:101DD00067950A94E2F760FD04C0BA016C297D2979
:101DE00003C0BA016821792111967C936E931296F3
:101DF000E501688179814617570711F066246394DD
:101E0000D1E029323D0789F691A1972191A392A1B2
:101E1000982B92A3662041F050926A010E94A92259
:101E200090936C0180936B01EFEF2E1A3E0AFEE057
:101E30002F16310409F090CF80916A018823B1F008
:101E400080916B0190916C010E94B522069770F011
:101E5000E6E5F1E0A0E6B1E0819191918D939D934B
:101E600021E0E036F207C1F710926A010E94CA072A
:101E700081E0DF91CF911F910F91FF90EF90DF9064
:101E8000CF90BF90AF909F908F907F906F905F901A
:101E90004F903F902F900895E82FF0E0EE0FFF1F36
:101EA000E05AFE4F8081918108950895DF92EF926C
:101EB000FF920F931F93CF93DF93662309F44AC0D9
:101EC000E42FF0E0AFEFB0E0A61BB109BF01A69F81
:101ED000E001A79FD00DB69FD00D1124FD2FDD2E60
:101EE0007B01ED1AF1080CE310E0B8010E949F316C
:101EF000EB01BC01E69EC001E79E900DF69E900DA1
:101F00001124B8010E949F31C230D105B1F040F4D4
:101F1000209779F0219709F58F2FD42E461B20C0EA
:101F2000C430D10599F068F02597B9F4842F861B49
:101F300017C08F2FD62EDF0E13C0862F8F0FD42EF3
:101F400003C0D42ED61A842F4F2F0AC0842F462FB9
:101F50004F0F06C0842FD42E03C080E0D12C40E068
:101F6000E42FF0E0EA5FF44F4491ED2DF0E0EA5FFA
:101F7000F44F9491E82FF0E0EA5FF44FE491D90137
:101F800011964C9311979C931296EC93DF91CF91FD
:101F90001F910F91FF90EF90DF90089588E090E0FF
:101FA0000C941132AB01BC0188E090E00C942F320C
:101FB00083E080935602109257028FEF809358026D
:101FC0008093590260915602709157028091580295
:101FD000909159020C94D20F6091560260FF06C096
:101FE00066956F7370E080E090E0089560E070E0C7
:101FF000CB0108958091560280FF06C062E170E037
:102000008EE592E00C943A15E0E6F2E0DF011197DC
:102010001C9211971C921082339682E0E639F807E1
:10202000A9F7ECCF9091560290FF0FC0E0E6F2E0E6
:10203000DF0111978C9311976C934083339692E054
:10204000E639F907A9F70C94FA0F0895CF92DF92B9
:10205000EF92FF920F931F93CF93DF9300D01F92C5
:10206000CDB7DEB7F82EC92ED62EE42E009156023B
:1020700010915702209158023091590200935A0250
:1020800010935B0220935C0230935D0280915602B4
:1020900080FF1EC09E012F5F3F4F8F2D0E94560F65
:1020A00080915A02F0FA87F980935A02F6942091AF
:1020B0005B0220782F29C0FA27F920935B02D09287
:1020C0005C02E0925D024B8169818A810E9412105C
:1020D0000F900F900F90DF91CF911F910F91FF9074
:1020E000EF90DF90CF9008958F929F92AF92BF9222
:1020F000CF92DF92EF92FF920F931F93CF93DF93D4
:10210000EC01862E942E8091560280FF88C0982F75
:102110009E77923021F4CE010E94261056C0E82FFF
:10212000E695EF739EE39E0F9F73943018F49090A2
:1021300059024BC09AE39E0F9F73993070F4881F29
:102140008827881F90915702292F220FC22FC82B52
:1021500097FB992790F9D92F38C087E28E0F8F739C
:102160008A3098F5F0E07997E0FF02C02FEF01C0C8
:1021700021E0EE7FE451F54F8591949162E170E0AA
:102180000E949F3126036001279FD00C11247E01FD
:1021900088E9E81A8EEFF80A0EE512E088E6A82E24
:1021A000BB24B394C701B5010E949F319801492D0A
:1021B000682D0E94560FEC0CFD1C0D5F1F4F92E026
:1021C0000439190779F70E94FA0F809156029C2F63
:1021D000C0FB87F9809356029695809157028078CC
:1021E000892BD0FB87F980935702809258029092F6
:1021F0005902609156027091570280915802909155
:102200005902DF91CF911F910F91FF90EF90DF90D6
:10221000CF90BF90AF909F908F900C94D20FDF9192
:10222000CF911F910F91FF90EF90DF90CF90BF90D3
:10223000AF909F908F90089520915602221F2227E1
:10224000221F30915702432F440F842F822B37FBDC
:10225000992790F9089668E671E00E94B3314091A1
:102260005902609158020C94741020915602221F5A
:102270002227221F30915702432F440F842F822B95
:1022800037FB992790F9883091051CF4805A9E4FAE
:1022900001C0089768E671E00E94B331409159028D
:1022A000609158020C94741060915802862F90E04F
:1022B000883F910514F4685F01C06FEF809156026A
:1022C000881F8827881F90915702292F220F97FB7C
:1022D000992790F940915902822B0C9474106091C7
:1022E0005802862F90E0089714F0685001C060E013
:1022F00080915602881F8827881F90915702292FA6
:10230000220F97FB992790F940915902822B0C9448
:10231000741040915902842F90E0883F910514F485
:10232000485F01C04FEF80915602881F8827881FA1
:1023300090915702292F220F97FB992790F96091CE
:102340005802822B0C94741040915902842F90E013
:10235000089714F0485001C040E080915602881F51
:102360008827881F90915702292F220F97FB9927C2
:1023700090F960915802822B0C947410909156023F
:1023800090FF44C09178811102C0926003C08332F3
:1023900020F094649093560205C08F73880F892BA8
:1023A00080935602609156027091570280915802B4
:1023B000909159020E94D20F80915602982F9E77D9
:1023C000923019F41092820110C0982F96959F7345
:1023D0002EE3290F2F73273120F491E0909382018F
:1023E00004C0995D9F739A3068F3881F8827881FFF
:1023F00090915702292F220F97FB992790F940912E
:10240000590260915802822B0C94741008958091A7
:10241000280281608093280281E0809383010E94DA
:102420007421811104C00E944E210E94D80F0E9485
:10243000CE0F609356027093570280935802909388
:1024400059026E7761F40E94D80F0E94CE0F6093FC
:10245000560270935702809358029093590281E07C
:10246000809382018091560280FF04C086958F730D
:102470000C94BE1108958091560286958F738F5FDC
:10248000833208F081E00C94BE118091560286954B
:102490008F73815009F482E20C94BE11CF93DF93C5
:1024A000C6E5D2E088818160888360915602709190
:1024B000570280915802909159020E94D20F888150
:1024C00086958F73DF91CF910C94BE11E6E5F2E013
:1024D00080818E7F80836091560270915702809137
:1024E0005802909159020E94D20F109282012FEF50
:1024F00080E792E0215080409040E1F700C000006A
:102500000C94FA0F8091560280FD0C9466120C9484
:102510004E12CF93C82F80918001909181010E942B
:10252000B522EC2FF0E0EE5FF44FE491F0E08E176F
:102530009F0708F442C00E94A922909381018093D2
:10254000800160917F0170E080E090E00E94AD2FFB
:1025500020E030E04FE753E40E94E62E2BED3FE011
:1025600049E450E40E94CE300E9431310E94532F42
:102570002BE43AE34EE25FE30E94812E20EF3BEF33
:1025800048ED52E40E94CE300E947F2F462F80916A
:102590005602881F8827881F90915702292F220FE3
:1025A00097FB992790F960915802822B0E94261080
:1025B00080917F018F5F80937F01CF910895CF93AA
:1025C000C82F80917D0190917E010E94B522EC2F51
:1025D000F0E0E150F54FE491F0E08E179F07E8F04E
:1025E0000E94A92290937E0180937D01409159021F
:1025F0006091580280917B0190917C010E9426108D
:1026000080917B0190917C01019668E671E00E94C7
:102610009F3190937C0180937B01CF910895DF924D
:10262000EF92FF920F931F93CF93DF93D82E809159
:10263000790190917A010E94B522ED2DE695F0E0A6
:10264000E450F54FE491F0E08E179F07E8F10E9407
:10265000A92290937A01809379010EE512E0C0E0FF
:10266000D0E028E6E22EFF24F39480917701909148
:1026700078018C0F9D1FB7010E949F3198014091F6
:102680005902609158020E94560F64960D5F1F4FC9
:10269000C83681E0D80749F70E94FA0F20917701E8
:1026A00030917801D0FE0AC0C9010196BE010E9496
:1026B0009F31909378018093770106C021503109B2
:1026C0003093780120937701DF91CF911F910F9183
:1026D000FF90EF90DF900895AF92BF92CF92DF927C
:1026E000EF92FF920F931F93CF93DF93C82F80FD3C
:1026F00003C0BB24B39402C0BB24BA94809175017B
:10270000909176010E94B522C695EC2FF0E0E7503B
:10271000F54FE491F0E08E179F0708F466C00E9421
:10272000A92290937601809375015EE5E52E52E033
:10273000F52E00E612E0C0E0D0E0F80131971082FB
:10274000F7011082F801108244E0C42ED12CA12C94
:10275000809174018A0D87FD8E5E992787FD909583
:10276000C817D907E9F4809159028C9DA0018D9D6D
:10277000500D1124559547955595479580915602D2
:10278000881F8827881F90915702592F550F97FB54
:10279000992790F9970160915802852B0E94560F56
:1027A000AB0CF1E0CF1AD108C114D10489F62196FF
:1027B00083E0E80EF11C0D5F1F4FC231D10509F017
:1027C000BCCF0E94FA0F8091740191E0B91206C04B
:1027D000811102C081E107C0815005C090E00196DF
:1027E000BE010E94B33180937401DF91CF911F919C
:1027F0000F91FF90EF90DF90CF90BF90AF90089532
:102800000F931F93CF93DF93C82F80917201909104
:1028100073010E94B522EC2FF0E0EA50F54FE491ED
:10282000F0E08E179F0708F467C00E94A9229093DA
:10283000730180937201E0E6F2E0DF0111971C92D0
:1028400011971C921082339682E0E639F807A9F7B7
:10285000C0E0D0E002E110E0CE01B8010E94B33147
:1028600020917101332727FD3095FC01EE0FFF1FEA
:10287000C217D3070CF120910201332727FD3095B1
:102880002C173D07CCF09F01280F391F225A3D4FCE
:1028900080915602881F8827881F90915702592FD0
:1028A000550F97FB992790F9409159026091580272
:1028B000852B0E94560F07C0E80FF91FE25AFD4F03
:1028C0001182108212822196C231D10529F60E940E
:1028D000FA0F2091010180917101820F80937101A3
:1028E00090910201920F90930201191614F4813114
:1028F0001CF0219520930101DF91CF911F910F9141
:102900000895EF92FF920F931F93CF93DF938091DF
:102910006F01909170010E94B522883E9340C8F1EA
:102920000E94A9229093700180936F01C0916D0164
:10293000D0916E012196C170DD27D0936E01C093B6
:102940006D010EE512E0F12C78E7E72E8F2D8695CC
:10295000FE01E80FF11DCF01817099279801409188
:10296000590260915802FC01EE9EC001EF9E900D4D
:1029700011240E94560FF3940D5F1F4FF2E1FF12D6
:10298000E5CFDF91CF911F910F91FF90EF900C94C5
:10299000FA0FDF91CF911F910F91FF90EF90089563
:1029A00080918201882391F120915602822F869591
:1029B0008F739EE3980F9F73943018F482500C9499
:1029C00089129AE3980F9F73933018F486500C94F1
:1029D000DF1297E3980F9F73963018F489500C9488
:1029E0000F1391E3980F9F73963018F48F500C9447
:1029F0006C139BE2980F9F73933018F485510C94DD
:102A000000142E77203311F40C948114089535B1FD
:102A1000242F2095232335B1342B4FB7F894FC0194
:102A2000680F791FE617F70789F0819198E035B9AB
:102A3000000000C087FF25B9880F000000C000C05B
:102A400000C025B900C09A9591F7ECCF4FBF08950B
:102A500024B1242B24B99B01220F331F260F371FCB
:102A6000B9010E94071587EC90E00197F1F700C0CB
:102A70000000089541E00C942815909389018093FB
:102A800088010895E0918801F0918901309721F043
:102A90000190F081E02D099480E00895E091880193
:102AA000F0918901309721F00280F381E02D0994A3
:102AB0000895E0918801F0918901309721F0048018
:102AC000F581E02D099408952091860130918701C8
:102AD0008217930771F09093870180938601E091AC
:102AE0008801F0918901309721F00680F781E02D6F
:102AF00009940895209184013091850182179307EC
:102B000071F09093850180938401E0918801F091A8
:102B10008901309721F00084F185E02D0994089512
:102B200008950C94901581E008950E94A0220E94BF
:102B3000430E0E9474230E94A9260C9407125F92F0
:102B40006F927F928F929F92AF92BF92CF92DF92BD
:102B5000EF92FF920F931F93CF93DF93CDB7DEB722
:102B60002A970FB6F894DEBF0FBECDBF0E94910E1C
:102B70000E949315811111C08FEF89838A831B8274
:102B80000E94A9228160782F9D838C8349815A817C
:102B90006B818D810E945D1657C09BE8C92E91E024
:102BA000D92E00E010E0AA24A394B12C502E802F3F
:102BB0000E944C0F3C01F601E190F1906F01E82674
:102BC000F926E114F10431F40F5F1F4F05301105B0
:102BD00069F7D2CF8091280281FD0E94550F20E035
:102BE00030E04501022E02C0880C991C0A94E2F7DD
:102BF000C4018E219F21892B09F12E835F826820D9
:102C0000792081E0672809F480E088870E94A92262
:102C10008160782F9A8789874E815F8168858A8550
:102C20000E945D16F801EE0FFF1FE557FE4F8081F1
:102C30009181882599259183808306C02F5F3F4F1E
:102C40002E30310571F6C0CF0E94142610918A01F2
:102C50000E9442151817D9F00E94421580938A01EC
:102C60002A960FB6F894DEBF0FBECDBFDF91CF918D
:102C70001F910F91FF90EF90DF90CF90BF90AF909A
:102C80009F908F907F906F905F900C945B0B2A9633
:102C90000FB6F894DEBF0FBECDBFDF91CF911F916D
:102CA0000F91FF90EF90DF90CF90BF90AF909F90EB
:102CB0008F907F906F905F900895CF93DF93CDB703
:102CC000DEB72B970FB6F894DEBF0FBECDBF4F8394
:102CD000588769877A878B87DE01119686E0FD0128
:102CE00011928A95E9F785E0FE01379601900D92E1
:102CF0008A95E1F749815A816B817C818D819E8122
:102D00000E94C71D2B960FB6F894DEBF0FBECDBF35
:102D1000DF91CF910895FC01808191810E948320F1
:102D20000895882309F4F4C08238C1F40E94421542
:102D300081FDEEC069E380910301909104010E943E
:102D40000A220E94E2202FEF81EE94E02150804081
:102D50009040E1F700C0000069E319C08338F9F43E
:102D60000E94421580FDD4C063E5809103019091DB
:102D700004010E940A220E94E2202FEF81EE94E0DB
:102D8000215080409040E1F700C0000063E5809151
:102D90000301909104010E9415220C94E2208438D2
:102DA000C1F40E94421582FDB3C067E48091030123
:102DB000909104010E940A220E94E2202FEF81EEEE
:102DC00094E0215080409040E1F700C0000067E4AB
:102DD000DECF9CEF980F913A40F4682F8091030169
:102DE000909104010E940A22D8CF90E2980F983067
:102DF00050F4877091E001C0990F8A95EAF7892F06
:102E00000E941821CACF9BE5980F933070F4853A41
:102E100029F0863A31F482E890E005C081E890E03C
:102E200002C083E890E00C94641598E5980F953102
:102E300008F06EC0883A61F1893A69F18A3A71F115
:102E40008B3A79F18C3A81F18B3B89F18C3B91F192
:102E50008D3A99F1803BA1F18E3AA9F18F3AB1F107
:102E6000813BB9F1823BC1F1833BC9F1843BD1F194
:102E7000853BD9F1863BE1F1873BE9F1883BF1F1F4
:102E8000893BF9F18A3B09F03FC08AE292E03EC0FB
:102E900082EE90E03BC089EE90E038C08AEE90E090
:102EA00035C085EB90E032C086EB90E02FC083EB1D
:102EB00090E02CC084EB90E029C087EB90E026C026
:102EC0008CEC90E023C08DEC90E020C083E891E092
:102ED0001DC08AE891E01AC082E991E017C084E938
:102EE00091E014C081E292E011C083E292E00EC052
:102EF00084E292E00BC085E292E008C086E292E0B4
:102F000005C087E292E002C080E090E00C947A1560
:102F10000895882309F45DC0823879F40E9442152F
:102F200081FF57C069E380910301909104010E94E1
:102F30000A220E94E22069E310C08338B1F40E94A3
:102F4000421580FF46C063E5809103019091040122
:102F50000E940A220E94E22063E580910301909181
:102F600004010E9415220C94E220843879F40E9416
:102F7000421582FF2EC067E4809103019091040105
:102F80000E940A220E94E22067E4E7CF9CEF980F9C
:102F9000913A10F4682FE1CF90E2980F983050F4F6
:102FA000877091E001C0990F8A95EAF7892F0E94F6
:102FB0001E21D9CF9BE5980F933020F480E090E05C
:102FC0000C946415885A853120F480E090E00C94CC
:102FD0007A150895882321F00E9418210C94E2208C
:102FE0000895882321F00E941E210C94E220089568
:102FF0008F929F92BF92CF92DF92EF92FF920F93A8
:103000001F93CF93DF9300D0CDB7DEB74C01472F8E
:10301000FC01C580C2949FE0C922D280DD2031F03E
:1030200079836A830E9435216A81498149836A8351
:103030000E94DB2049816A81882389F0DD2079F0B4
:1030400080E2860F883058F082E00E94C4200E94FF
:10305000DB20BB24B394B82649816A8101C0B12C1E
:10306000E42EE2948FE0E822F12CF701E159FF4FC2
:103070000C94E931842F807F142F1F70882311F066
:103080001295107FDD20C1F0112309F4DDC180E22B
:10309000860F883010F0611105C0812F6A830E946D
:1030A000182104C0812F6A830E9428216A816A83C3
:1030B0000E94E2206A81C8C1862F6A830E94891714
:1030C0006A81112309F407C280E2860F883010F06C
:1030D000611104C0812F0E941E2103C0812F0E9414
:1030E0002E210E94E220F7C1242F207F842F8F7091
:1030F000203211F08295807F662319F06130B9F09B
:1031000022C0DD2049F0CC2009F452C1F1E0CF12F9
:103110004FC10E944821DFC1CC2021F021E0C2161E
:1031200009F4D9C189830E944B21898147C1DD20DF
:1031300029F095E09C1508F4CEC13AC1E4E0EC1505
:1031400008F4C9C13BC1DD2051F0CC2009F430C1E5
:10315000F401958190FF78C19F70958329C1CC209F
:1031600009F42CC182C1242F26952695237030E0C6
:103170002115310521F02130310561F0ACC1DD2090
:1031800021F0862F942F937002C080E090E00E947F
:103190006415B1C1DD2021F0862F942F937002C0F9
:1031A00080E090E00E947A15A6C1DD20F9F0653F2D
:1031B00051F0663F71F0643FA9F4809194029091C0
:1031C000950281600BC0809194029091950282607B
:1031D00005C080919402909195028460909395022D
:1031E00080939402862F0E941C2522C0653F51F0D7
:1031F000663F91F0643FC9F48091940290919502EA
:103200008E7F05C080919402909195028D7F90935E
:1032100095028093940209C0209194023091950206
:103220002B7F3093950220939402862F0E94842551
:103230000E94092660C1842F837009F04EC0D1100E
:1032400056C1262F229526952770220F220F862FF2
:103250008F70C82ED12CE12CF12C022E04C0CC0C86
:10326000DD1CEE1CFF1C0A94D2F764FF10C06FE057
:1032700070E080E090E004C0660F771F881F991F00
:103280002A95D2F7609570958095909503C060E07F
:1032900070E0CB01242F26952695237030E0223054
:1032A000310569F02330310589F06C297D298E299B
:1032B0009F292130310571F00E94161F18C16C2919
:1032C0007D298E299F290E94281F11C10E94161F47
:1032D000C701B6010E94041F0AC1DD2019F0842F26
:1032E000817001C08695882309F401C1262F22959B
:1032F00026952770220F220F862F8F70C82ED12C73
:10330000E12CF12C022E04C0CC0CDD1CEE1CFF1CA9
:103310000A94D2F764FF10C06FE070E080E090E0A4
:1033200004C0660F771F881F991F2A95D2F76095F2
:1033300070958095909503C060E070E0CB01242FDC
:1033400026952695237030E02230310569F0233030
:10335000310589F06C297D298E299F29213031057D
:1033600071F00E94C41FC3C06C297D298E299F293A
:103370000E94D61FBCC00E94C41FC701B6010E9494
:10338000B21FB5C0062F10E0F801E05EF109E5318B
:10339000F10508F055C0E158FF4F0C94E931162FA4
:1033A0001F70842F8F71DD2031F00E945D1F812FEF
:1033B0000E94EA1790C00E94781F812F0E94F11787
:1033C0008AC0DD2049F0F4E0FC1508F484C0842FA5
:1033D0008F710E94971F7FC025E02C1508F47BC0D9
:1033E000F6CFDD2039F0842F8F710E945D1F73C0EE
:1033F000DD20C9F3842F8F710E94781F6CC0DD20FF
:1034000029F0842F8F710E944E1F65C00E94491FB2
:1034100062C0DD2051F0142F1F71812F0E945D1FAB
:1034200063E0812F0E94BB2056C081E00E94C4202F
:1034300081E08C1508F04FC082E00E94C4204BC090
:10344000DD2031F0CC2079F2862F0E94911643C006
:10345000CC2081F2693349F49FEFE7EEF3E091501D
:10346000E040F040E1F700C00000862F0E9489177D
:1034700032C04F70C4010E941A070E94741E3BC0E4
:10348000D11039C0942F9F70892F90E08230910520
:1034900099F03CF4009769F00197E9F40E94E22664
:1034A0002AC08430910571F054F00597A1F480E0B2
:1034B0000AC00E94C6261FC00E94FE261CC00E9491
:1034C000182719C083E00E943D2715C04F70C40122
:1034D0000E94210710C028E0E216F10441F05CF0E0
:1034E0009AE0E91AF108E2E0EE16F10420F40E94F5
:1034F00042150E945B0BBB20F1F00E94B72080FDBB
:103500001AC0F40112820E94B1200E945D1FC40102
:103510000E94A91A0E94B1200F900F90DF91CF91C5
:103520001F910F91FF90EF90DF90CF90BF909F90F1
:103530008F900C94781F0F900F90DF91CF911F9177
:103540000F91FF90EF90DF90CF90BF909F908F9062
:1035500008950F931F93CF93DF93EC012881398156
:103560008B819C81892B31F03F3F11F080E003C0BB
:103570002F3FE1F781E0811113C0CE010E940E08B8
:10358000882371F0688179818A810E948E208C0164
:103590000E94E81F0E94011FB801CE010E94F81787
:1035A000DF91CF911F910F9108950E9435210E94C4
:1035B000452180910301909104010E9420220E94E4
:1035C000E2200E949D260E94092680E090E00E9451
:1035D000641580E090E00C947A150E9425210C94EB
:1035E000D51A0E948320E92FE295EF70F0E0329720
:1035F000EE30F105B8F4EC56FF4F0C94E931803F02
:1036000059F018F4803E70F407C0843F59F404C0A8
:10361000803E10F0813F31F481E0089593FB8827CC
:1036200080F9089580E00895CF93DF9300D000D013
:103630001F92CDB7DEB70F900F900F900F900F90A5
:10364000DF91CF910895CF93DF9300D000D000D0C9
:10365000CDB7DEB726960FB6F894DEBF0FBECDBF4E
:10366000DF91CF9108951F93CF93DF93C09196017F
:1036700016E080919701C81799F0D0E01C9FF001E7
:103680001D9FF00D1124E856FE4F4081518162814B
:103690007381848195810E94231B2196C770E9CF95
:1036A000DF91CF911F9108954091C8015091C901B8
:1036B0006091CA017091CB018091CC019091CD01B4
:1036C0000C94231BCF938091CD0182958F7009F0CC
:1036D0005FC08091CA01882309F45AC020919601E5
:1036E000A09197016091C8017091C9018091CB01AF
:1036F0009091CC0131E06F3F09F030E0B32FC6E08C
:103700002A1709F445C0009721F07F3F21F44B2F81
:1037100003C041E001C040E030E040FD35C0C29F41
:10372000F001C39FF00D1124E856FE4F4181741340
:103730002BC04081641328C04281411125C04381C0
:1037400054814817590710F441505109481B590B2F
:10375000483C5105C8F48091CD018F708061809301
:10376000CD0186E0829FF001839FF00D1124E35686
:10377000FE4F80818F708061808388EC91E00E9491
:10378000A91ACF910C94331B2F5F3F4F2770B8CFEE
:10379000CF910895CF92DF92EF92FF920F931F93F4
:1037A000CF93DF93CDB7DEB762970FB6F894DEBF45
:1037B0000FBECDBF8C0185E0F801DE011D960190A2
:1037C0000D928A95E1F7D8014C9111965C91119771
:1037D00012966C9112971396ED90FC90149770913D
:1037E000C801E091C9012091CB013091CC01211594
:1037F000310531F0EF3F31F481E07F3F19F403C030
:1038000081E001C080E0B82FB170CB2E80FD6BC18C
:10381000D090CA01DD2009F4F5C0F091CD01E21687
:10382000F30638F0C701821B930B883C910548F0E2
:103830009DC0209530952E0D3F1D283C310508F088
:1038400095C08F2F807F09F052C0E51314C0741308
:1038500012C0D62E61110FC0FF70F061F093CD0140
:103860000E94541B88EC91E00E94A91A8091CD011E
:10387000F80185837CC1EF2831F05F3F31F481E0AE
:103880004F3F19F403C081E001C080E080FD03C018
:1038900081E0862701C080E0F82FF170FF2E80FFC5
:1038A0001CC0809196012091970136E0821709F49F
:1038B00038C190E0389FF001399FF00D1124E8568F
:1038C000FE4F7181571306C07081471303C0728188
:1038D000671303C001968770E9CFD62E662309F4DB
:1038E00046C18091CD0181608093CD0155C0E51323
:1038F00008C0741306C0611104C0D8011596FC936A
:10390000AEC04D875E878D859E856A8B0E94F11AB9
:103910006A89882329F1D62E662311F12091CD01E1
:10392000822F82958F7090E002970CF462C0809194
:10393000C8019091C90198878F831986FB86EA8612
:103940002C87CE01079653C0E51741F14D875E875E
:103950008D859E856A8B0E94F11A6A89811130C01B
:10396000C8010E94A91ADD24D39401C18F2F807F42
:1039700059F77E2DF98AE88A89890E94141B88EC00
:1039800091E00E94A91AE8ECF1E086E0DF011D92C7
:103990008A95E9F70E94541BD12CE9C07413D6CF45
:1039A0006111D4CFD8011596FC93C8010E94A91AC1
:1039B000E8ECF1E086E0DF011D928A95E9F7D7C0D7
:1039C000D62E662369F22091CD01822F82958F70C9
:1039D00090E0029774F08091C8019091C9019A8398
:1039E00089831B82FD82EC822E83CE0101960E9488
:1039F000A91A86E0F801A8ECB1E001900D928A9531
:103A0000E1F78AC0E216F30628F0C701821B930B88
:103A10009C0104C0209530952E0D3F1D283C31059A
:103A200008F053C0D62E662309F49ACFE5132CC0B4
:103A300074132AC08091CD0180FD1DC0982F9295EE
:103A40009F70C9F0D80115968C9315979F3039F067
:103A50009F5F9295907F8F70892B15968C93C801EC
:103A60000E94A91A86E0F801A8ECB1E001900D923D
:103A70008A95E1F753C086E0F801A8ECB1E0019027
:103A80000D928A95E1F773C04D875E878D859E857F
:103A90000E94F11A882381F096E0F801A8ECB1E0C9
:103AA00001900D929A95E1F78A8B0E94621B0E9409
:103AB000541B8A89D82E5BC08091CD018160809390
:103AC000CD01C8010E94A91A52C07E2DF98AE88A48
:103AD00089890E94141BE8ECF1E086E0DF011D9269
:103AE0008A95E9F71BC0662309F43ACF4D875E87B4
:103AF0008D859E850E94F11AD82E882309F430CF37
:103B000086E0F801A8ECB1E001900D928A95E1F70A
:103B100088EC91E00E948B160E94621B0E94541B4D
:103B200026C04D875E878D859E850E948320292F24
:103B300022952F7030E0223031052CF49F7041F037
:103B4000811106C00CC0243031052CF49F7049F45B
:103B5000805E883020F0C8010E94A91ACF2CDC2C8E
:103B600006C0D80115969C91907F91F7F8CF8D2DC6
:103B700062960FB6F894DEBF0FBECDBFDF91CF9136
:103B80001F910F91FF90EF90DF90CF9008951F93BA
:103B9000CF93DF93CDB7DEB72C970FB6F894DEBF87
:103BA0000FBECDBF4F83588769877A878B879C87E5
:103BB000CE0107960E94CA1B8823C1F02F81388549
:103BC0008A859B85892B31F03F3F11F080E003C04F
:103BD0002F3FE1F781E0811147C04F81588569850A
:103BE0007A858B859C850E94231B3EC086E0FE0162
:103BF0003796DE01119601900D928A95E1F7FF81CB
:103C0000E8854A855B854115510531F0EF3F31F478
:103C100081E0FF3F19F403C081E001C080E080FD36
:103C200023C02091970130E0C90101968770992740
:103C30006091960170E086179707F1F1F983EA83A6
:103C40005D834C8396E0929FD001939FB00D112429
:103C5000A856BE4FFE01319601900D929A95E1F75C
:103C6000809397010E94331B16E0809196019091FA
:103C70009701891779F1189FC001112488569E4F2A
:103C80000E94CA1B882331F1E09196011E9FF0012A
:103C90001124E856FE4F40815181628173818481F5
:103CA00095810E94231B8091960190E00196877078
:103CB000992780939601D9CF0E94ED1A109297010F
:103CC00010929601E8ECF1E086E0DF011D928A9502
:103CD000E9F7CACF2C960FB6F894DEBF0FBECDBF62
:103CE000DF91CF911F910895EF92FF920F931F9351
:103CF000CF93DF93FC01009709F46FC0F12CEE2401
:103D0000E394EF0121968491843740F4843008F0E5
:103D100055C0813081F0823021F15FC0853709F4D0
:103D200047C0C0F19CE7980F903708F056C08F77D6
:103D30000E94891745C08F010E5F1F4FFE018491BD
:103D400090E2980F983050F48770FE2D01C0FF0F5D
:103D50008A95EAF78F2F0E94382115C00E9491168C
:103D600014C08F010E5F1F4FFE01849190E2980FE7
:103D7000983068F48770FE2D01C0FF0F8A95EAF72E
:103D80008F2F0E943E210E94E220E80119C00E946C
:103D90008917FBCFCF010296FE01C491CC2361F0BD
:103DA000EFE9FFE03197F1F700C00000C150F6CF16
:103DB000CF010296FE01F490EC0102C00E94911620
:103DC0008F2D882341F0EFE9FFE03197F1F700C034
:103DD00000008150F6CFFE0194CFDF91CF911F916B
:103DE0000F91FF90EF90089508950E94F41E609344
:103DF000FF017093000280930102909302020C94E1
:103E0000D51A08950C94F51E0F931F930091FF018E
:103E1000109100022091010230910202602B712B5F
:103E2000822B932B1F910F910C94F51E0F931F93D0
:103E30000091FF01109100022091010230910202D5
:103E400060237123822393231F910F910C94F51EFD
:103E50000F931F930091FF01109100022091010226
:103E60003091020260277127822793271F910F91BB
:103E70000C94F51E08950C943A1F0E943B1F60930A
:103E8000FB017093FC018093FD019093FE010C9463
:103E9000D51A60E070E0CB010C943D1F41E050E08A
:103EA00060E070E004C0440F551F661F771F8A95BD
:103EB000D2F7CB01BA010C943D1F41E050E060E025
:103EC00070E004C0440F551F661F771F8A95D2F714
:103ED0008091FB019091FC01A091FD01B091FE0148
:103EE000482B592B6A2B7B2BCB01BA010C943D1F1D
:103EF00041E050E060E070E004C0440F551F661FD1
:103F0000771F8A95D2F7409550956095709580916E
:103F1000FB019091FC01A091FD01B091FE014823AD
:103F200059236A237B23CB01BA010C943D1F41E046
:103F300050E060E070E004C0440F551F661F771F1B
:103F40008A95D2F78091FB019091FC01A091FD012F
:103F5000B091FE01482759276A277B27CB01BA0178
:103F60000C943D1F0F931F930091FB011091FC01D6
:103F70002091FD013091FE01602B712B822B932B40
:103F80001F910F910C943D1F0F931F930091FB0104
:103F90001091FC012091FD013091FE0160237123FD
:103FA000822393231F910F910C943D1F0F931F9316
:103FB0000091FB011091FC012091FD013091FE0167
:103FC00060277127822793271F910F910C943D1F23
:103FD00008952EE0929F800D1124482F4695469516
:103FE00046958770B1E001C0BB0F8A95EAF785E07E
:103FF000489FA001112442535E4F80E090E070E0A2
:10400000FA01E80FF91FA0819B01082E02C0369526
:1040100027950A94E2F72170332721952A272B232D
:104020002A27208301968530910551F708952EE0C7
:10403000929F800D1124682F669566956695982F3E
:10404000977085E0689FB001112462537E4F40E075
:1040500050E080E0FB01E40FF51F208130E0092EE5
:1040600002C0369527950A94E2F721703327042E73
:1040700001C0220F0A94EAF7822B4F5F5F4F453051
:10408000510541F70895CF92DF92EF92FF920F937F
:104090001F93CF93DF93EC01C090FF01D0900002FB
:1040A000E0900102F09002028091FB019091FC01EE
:1040B000A091FD01B091FE01C82AD92AEA2AFB2A63
:1040C0000FE110E0B701A601002E04C076956795B8
:1040D000579547950A94D2F740FD05C00150110944
:1040E00088F780E007C0BE01802F0E94770B019700
:1040F000A9F3802FDF91CF911F910F91FF90EF9047
:10410000DF90CF900895CF93DF93EC010E9443207E
:10411000BE010E94770BDF91CF9108951F93CF933B
:10412000DF93EB0190919501992321F0CB010E943F
:10413000832013C0882349F0CB010E944320182F0D
:10414000682FCE010E94E91F04C0CB010E941720F6
:10415000182FBE01812F0E94770BDF91CF911F9105
:1041600008958091030285958595859508958091A0
:1041700003028770089598E0899F90011124622BB3
:10418000609303020C945D1F409103028095842389
:1041900080930302982F977069F450E0282F3327FB
:1041A00027FD30954217530729F08595859585950C
:1041B0000C94781F089590910302977081E009F4A0
:1041C00080E00895E0910301F091040180912702BD
:1041D0008083E0910301F091040180819091260297
:1041E000892B8083E0910301F091040180819091FB
:1041F0002502892B808390910402992381F0E0911C
:104200000301F09104018081892B80838091030157
:10421000909104010E94A3218111109204028091C7
:104220000301909104010C944E158091270208958A
:1042300090912702982B9093270208958095909152
:104240002702982390932702089510922702089539
:1042500090912602982B9093260208958095909134
:10426000260298239093260208951092260208951C
:1042700090912502982B9093250208958095909116
:1042800025029823909325020895109225020895FF
:104290008093040208951092040208956DEE7EEF5B
:1042A00080E090E00E943B3260E082E090E00E947B
:1042B0001D3260E083E090E00E941D3260E084E007
:1042C00090E00E941D3260E085E090E00E941D3287
:1042D00060E086E090E00E941D3240E050E0BA01CC
:1042E00088E090E00C942F3280E090E00E9417323A
:1042F00021E08D3E9E4F09F020E0822F089582E05C
:1043000090E00C940932682F82E090E00C941D320A
:1043100083E090E00C940932682F83E090E00C94E5
:104320001D3284E090E00C940932682F84E090E024
:104330000C941D3286E090E00C940932682F86E0E0
:1043400090E00C941D3220E030E040E0FC01E20FF0
:10435000F31F518151114F5F2F5F3F4F2F313105B7
:10436000A9F7842F089520E030E04FEFFC01E20F21
:10437000F31F5281561799F04F3F19F4511101C0A4
:10438000422F2F5F3F4F2E31310581F74F3F39F0DC
:10439000FC01E40FF11D47FDFA956283089508952D
:1043A00020E030E0FC01E20FF31F4281461301C020
:1043B00012822F5F3F4F2E313105A1F70895262F2E
:1043C0002695269526952F3170F4FC01E20FF11DFC
:1043D000677021E030E0062E01C0220F0A94EAF750
:1043E0008181822B81830895262F269526952695F7
:1043F0002F3178F4FC01E20FF11D677021E030E00D
:10440000062E01C0220F0A94EAF720958181282305
:104410002183089520911501222329F020919A02E9
:1044200027FD0C94DF210C94B32120911501222348
:1044300029F020919A0227FD0C94F4210C94D021AC
:1044400020E030E0FC01E20FF31F11822F5F3F4FAD
:104450002F313105B9F708958091A102843039F1E7
:104460001092290220E488E190E00FB6F894A89514
:10447000809360000FBE2093600080E00E94CC0714
:1044800080E00E945B0B83B7817F846083BF83B72A
:10449000816083BF7894889583B78E7F83BF88E1DE
:1044A0000FB6F89480936000109260000FBE0895DC
:1044B00008950895CF930E9458220E94910E0E9461
:1044C0005922C0E08C2F0E944C0F892B29F4CF5F1A
:1044D000C530C1F780E001C081E0CF9108950E940E
:1044E000ED1A0E94A9260E9442150C945B0B1F92A4
:1044F0000F920FB60F9211248F939F93AF93BF9398
:1045000080912902811113C08091960290919702A7
:10451000A0919802B09199024196A11DB11D80937E
:10452000960290939702A0939802B0939902BF913C
:10453000AF919F918F910F900FBE0F901F90189584
:1045400082E084BD93E095BD9AEF97BD80936E00A5
:1045500008952FB7F8948091960290919702A091B8
:104560009802B09199022FBF0895CF92DF92EF92F7
:10457000FF920F931F932FB7F8944091960250919A
:10458000970260919802709199022FBF6A017B0196
:10459000EE24FF248C0120E030E0C016D106E206B4
:1045A000F30610F441505109481B590BCA011F91E1
:1045B0000F91FF90EF90DF90CF90089578941F9225
:1045C0000F920FB60F9211248F939F93AF93BF93C7
:1045D0008091960290919702A0919802B0919902D1
:1045E0000196A11DB11D8093960290939702A0930E
:1045F0009802B0939902BF91AF919F918F910F90C4
:104600000FBE0F901F90189581E08093E00080E22C
:104610008093D8001092C9008FE19EE40197F1F7D2
:1046200000C0000087E090EBDC018093AA02909329
:10463000AB02A093AC02B093AD022CE088E190E015
:104640000FB6F894A895809360000FBE2093600089
:10465000FFCFBF92CF92DF92EF92FF920F931F9303
:10466000CF93DF93B12C01E010E0E82EF12C8B2DDD
:104670000E944C0F6C01C0E0D0E098010C2E02C0EB
:10468000220F331F0A94E2F72C213D21232B29F41A
:104690002196CE30D10589F70AC06C2F7B2D80E0A2
:1046A0000E945D0BE816F90699F781E005C0B39406
:1046B00085E0B812DCCF80E0DF91CF911F910F91A0
:1046C000FF90EF90DF90CF90BF900895CF93C82FC9
:1046D0008CE20E942923882321F08C2FCF910C9407
:1046E000292380E0CF910895CF930E9474218111F6
:1046F00002C00E944E21C5E6C15049F00E94910EB1
:104700008FE39CE90197F1F700C00000F5CF89E243
:104710000E94662381110DC18AE20E9466238111E5
:104720000E944E2185E00E94662381110E9404238D
:104730000E947F218093280287E00E9466238823BD
:1047400099F18BE10E946623882351F09091280211
:1047500091FB882780F921E0822780FB91F922C014
:104760008EE00E946623882351F09091280292FBEC
:10477000882780F921E0822780FB92F913C080E12D
:104780000E94662390912802882341F093FB88279A
:1047900080F921E0822780FB93F904C0892F80955E
:1047A00080FB90F990932802809128020E94832137
:1047B0000E94912190E090939B0280939A0280EE58
:1047C0000E946623882341F080919A02982F909549
:1047D00090FB80F980939A0289E30E9466238823E4
:1047E00059F090919A0291FB882780F921E0822765
:1047F00080FB91F990939A0282EE0E9466238823AF
:1048000059F090919A0292FB882780F921E0822743
:1048100080FB92F990939A0286EE0E946623882389
:1048200059F090919A0293FB882780F921E0822722
:1048300080FB93F990939A0283EE0E94662388236B
:1048400059F090919A0294FB882780F921E0822701
:1048500080FB94F990939A0285E30E946623882353
:1048600059F090919A0295FB882780F921E08227E0
:1048700080FB95F990939A0281E30E946623882336
:1048800059F090919A0296FB882780F921E08227BF
:1048900080FB96F990939A0281E10E946623882317
:1048A00059F090919A0297FB882780F921E082279E
:1048B00080FB97F990939A0280919A020E94952129
:1048C00087E20E946623C82F8EE10E946623811131
:1048D000C2608FE10E9466238111C46080E20E9461
:1048E00066238111C86081E20E9466238111C06144
:1048F00082E20E9466238111C06283E20E946623E5
:104900008111C06484E20E946623882311F0C0688C
:1049100002C0CC2329F08C2F0E948C216C2F03C065
:104920000E948821682F70E080E090E0CF910C9485
:10493000021FCF91089580912C0280FF0BC06091DF
:10494000080185E0689FB0011124759567957595FC
:1049500067952AC081FF09C06091080185E0689FC2
:10496000B0011124759567951FC082FF07C0609143
:10497000080185E0689FB001112416C040912D0206
:104980004423C9F060910701461788F72091080178
:1049900085E0289F90011124429FC001439F900D04
:1049A000112470E00E94B3316038710540F4611544
:1049B000710539F002C065E070E0862F08958FE739
:1049C000089581E0089580912C0280FF08C06091D5
:1049D000060170E0759567957595679521C081FF13
:1049E00006C06091060170E07595679519C082FF59
:1049F00004C06091060170E010C080912D028823F0
:104A0000C1F0609105018617A0F790910601989F6B
:104A1000C001112470E00E94B3316038710528F4A0
:104A20006115710521F0862F08958FE7089581E0C3
:104A3000089561E070E0F4CF803F21F40E949B2450
:104A4000819504C0813F29F40E949B248093300209
:104A50000895823F21F40E949B24819504C0833FE6
:104A600029F40E949B2480932F020895893F19F412
:104A70000E94E32405C08A3F31F40E94E32481951B
:104A80008093310208958B3F21F40E94E3248195A5
:104A900004C08C3F29F40E94E324809332020895DD
:104AA000843F21F480912E02816017C0853F21F45C
:104AB00080912E02826011C0863F21F480912E02E7
:104AC00084600BC0873F21F480912E02886005C06E
:104AD000883F31F480912E02806180932E020895E8
:104AE0008D3F21F480912C0281600BC08E3F21F418
:104AF00080912C02826005C08F3F29F480912C02A6
:104B0000846080932C020895803F39F480913002B4
:104B100087FF6CC01092300269C0813F29F48091F8
:104B200030021816BCF362C090912F02823F29F424
:104B300097FF5CC010922F0259C0833F19F41916D9
:104B4000CCF354C0893F41F48091310218160CF027
:104B50004DC0109231024AC08A3F29F4809131023F
:104B600087FF44C0F6CF8B3F39F48091320287FF34
:104B70003DC0109232023AC08C3F29F4809132023B
:104B80001816BCF333C0843F21F480912E028E7F2F
:104B900017C0853F21F480912E028D7F11C0863F82
:104BA00021F480912E028B7F0BC0873F21F48091EE
:104BB0002E02877F05C0883F31F480912E028F7EC0
:104BC00080932E0213C08D3F21F480912C028E7FA2
:104BD0000BC08E3F21F480912C028D7F05C08F3F4A
:104BE00029F480912C028B7F80932C0280912F02DC
:104BF00081110EC08091300281110AC08091310272
:104C0000811106C080913202811102C010922D02E2
:104C100008958EE292E00E9459150E94A922909375
:104C20002B0280932A0208951F93CF93DF938091E4
:104C30002A0290912B020E94B52240912D0244231A
:104C400021F02091090130E006C020910A015AE0CC
:104C5000259F900111248217930708F46AC0809160
:104C60002F0210913002D0913102C0913202811195
:104C700007C0111105C0D11103C0CC2309F459C0DC
:104C80004F3F19F04F5F40932D02181624F40E94F5
:104C90009B2480932F0280912F0287FF05C00E94E2
:104CA0009B24819580932F02111624F40E949B244B
:104CB000809330028091300287FF05C00E949B24C0
:104CC00081958093300220912F02222379F0409128
:104CD0003002442359F055EB250390011124309301
:104CE0002F024503C0011124909330021D1624F4B5
:104CF0000E94E324809331028091310287FF05C036
:104D00000E94E3248195809331021C1624F40E94B2
:104D1000E324809332028091320287FF05C00E9413
:104D2000E324819580933202DF91CF911F910C94FF
:104D30000926DF91CF911F910895EEE2F2E085E020
:104D4000DF011D928A95E9F710922D0210922C0234
:104D500008950E947421811102C00E944E210E9478
:104D60009A2180939C02282F269530E0243031052B
:104D700024F08170866080939C0280919C0280FF69
:104D800002C0869501C080E00C94CC0720919C0263
:104D9000322F3695832F90E0039744F491E0930FE0
:104DA000990F822F8170892B80939C0280919C02A5
:104DB000816080939C020E949E2180919C02869536
:104DC0000C94CC0780919C02982F969591F0915865
:104DD000990F8170892B80939C028E7F91E009F45A
:104DE00090E080919C0290FB80F980939C020E944D
:104DF0009E2180919C0286950C94CC0780919C0208
:104E0000982F909590FB80F980939C02813019F443
:104E100083E080939C0280919C020E949E2180915D
:104E20009C0280FF02C0869501C080E00C94CC07F4
:104E300030919C02232F26952F5F2F77822F90E0B1
:104E4000317004972CF4220F232B20939C0202C074
:104E500030939C0280919C028E7F91E009F490E057
:104E600080919C0290FB80F980939C020E949E217D
:104E700080919C0286950C94CC07843008F083E0E6
:104E8000880F90919C029170982B90939C029E7F2A
:104E900021E009F420E080919C0220FB80F98093BE
:104EA0009C020E949E2180919C0286950C94CC07C6
:104EB00080919C02869508958091530208950F93E6
:104EC0001F93CF93DF9300D01F92CDB7DEB78C0135
:104ED0000E94D529823011F0843019F583E089834E
:104EE0001B830A838093E9008FEF9091E800815043
:104EF00095FD06C095ED9A95F1F700008111F5CF6B
:104F00008091E80085FF0DC040E050E063E070E074
:104F1000CE0101960E94F2298091E8008E7780935D
:104F2000E8000F900F900F90DF91CF911F910F919C
:104F30000895CF93DF9300D01F92CDB7DEB72091B5
:104F4000A102243031F522E02983805891099B8306
:104F50008A8383E08093E9008FEF9091E80081508D
:104F600095FD06C095ED9A95F1F700008111F5CFFA
:104F70008091E80085FF0DC040E050E063E070E004
:104F8000CE0101960E94F2298091E8008E778093ED
:104F9000E8000F900F900F90DF91CF910895CF937D
:104FA000DF93EC010E94D529823011F08430F9F4AE
:104FB00082E08093E9008FEF9091E800815095FDA9
:104FC00006C095ED9A95F1F700008111F5CF80911B
:104FD000E80085FF0CC040E050E065E070E0CE01E5
:104FE0000E94F2298091E8008E778093E800DF919B
:104FF000CF910895CF93DF93EC010E94D5298230A1
:1050000019F0843009F047C0809115018823E1F040
:1050100080919A0287FF18C084E08093E9008FEFA7
:105020009091E800815095FD06C095E19A95F1F7C1
:1050300000008111F5CF8091E80085FF2CC040E091
:1050400050E060E270E017C081E08093E9008FEFEC
:105050009091E800815095FD06C095ED9A95F1F785
:1050600000008111F5CF8091E80085FF14C040E079
:1050700050E068E070E0CE010E94F2298091E800E3
:105080008E778093E80080E2FE01A3E3B2E0019016
:105090000D928A95E1F7DF91CF9108958091A0025A
:1050A000811109C00E94842B0E94E12B8091E200B3
:1050B00084608093E20008951092A00208950895FC
:1050C00008950C946F2242E061EC81E00E94FE2A78
:1050D00042E061EC82E00E94FE2A42E061EC83E063
:1050E0000E94FE2A42E261EC84E00C94FE2A809148
:1050F000A302833009F455C030F4813071F082305E
:1051000009F48EC008958A3009F47AC08B3009F40E
:1051100060C0893009F09CC020C08091A202813A11
:1051200009F096C08091E800877F8093E800809125
:10513000A6029091A702892B21F060E080E090E028
:1051400003C060E283E392E070E00E943B2A80911A
:10515000E8008B778093E80008958091A202813265
:1051600009F076C08091A6029091A702009719F0ED
:10517000039709F06DC08091E800877F8093E80075
:105180008091E80082FD05C08091A1028111F8CFD5
:105190005FC08091F100809353028091E8008B778B
:1051A00053C08091A202813A09F052C08091A602B8
:1051B0009091A702892B09F04BC08091E800877F6E
:1051C0008093E8008091E80080FFFCCF809115017A
:1051D00036C08091A2028132D9F58091A6029091C9
:1051E000A702892BA9F58091E800877F8093E800CA
:1051F0000E94332B8091A402809315010C94ED1A28
:105200008091A202813221F58091E800877F80930E
:10521000E8000E94332B8091A502809354020895E8
:105220008091A202813AA1F48091E800877F809367
:10523000E8008091E80080FFFCCF809154028093C9
:10524000F1008091E8008E778093E8000C94332B76
:10525000089584B7877F84BF88E10FB6F894809360
:105260006000109260000FBE80E880936100109291
:1052700061000E9491150E94842B0E94E12B809175
:10528000E20084608093E20078940E94642E0E9481
:1052900095158BE091E00E943D158091A10285302B
:1052A00069F40E942C2280919F028823B1F30E940E
:1052B0005A22882391F30E94DC29EFCF0E949F1588
:1052C0000E94D014EACF0C946529292F332723306C
:1052D0003105A9F06CF42130310509F448C02230C1
:1052E000310509F049C08DE690E02CE23CE048C071
:1052F00021323105F9F02232310549F13DC09927BB
:105300008130910571F02CF4892BB1F5E8E2FCE0D5
:105310000DC08230910541F0039771F5E6E0FCE0A5
:1053200005C0EEE1FCE002C0ECE0FCE0849190E01E
:105330009F0126C064307105F8F4FB01EE0FFF1FDA
:10534000EB5CFE4F2081318189E090E019C0643030
:10535000710590F4FB01EE0FFF1FE35DFE4F20810E
:105360003181FB01E75DFE4F808190E009C082E161
:1053700090E029E93CE004C080E090E020E030E0EB
:10538000FA013183208308950895CF93C82F0E9496
:10539000C429C0935502CF9108958091A102843011
:1053A00011F482E0089581E0089580915502811101
:1053B00002C00C94CD29089580E189BD82E189BDA8
:1053C00009B400FEFDCF8091D8008F7D8093D80076
:1053D0008091E00082608093E0008091E00081FD98
:1053E000FCCF0895CF92DF92EF92FF920F931F931D
:1053F000CF93DF937C018B01EA010E94542B811132
:1054000031C0209731F088819981081B190BE80E73
:10541000F91EC12CD12C0115110519F18091E8005C
:1054200085FD14C08091E8008E778093E800209776
:1054300041F0888199818C0D9D1D9983888385E039
:1054400011C00E94542B882331F30CC0F7018191C5
:105450007F018093F10001501109FFEFCF1ADF0A9D
:10546000DACF80E0DF91CF911F910F91FF90EF9005
:10547000DF90CF9008952091A8023091A9022617BD
:10548000370748F06115710539F42091E8002E774F
:105490002093E80001C0B901FC0120E0611571050D
:1054A000B9F18091A102882309F440C0853009F444
:1054B0003FC08091E80083FD3DC08091E80082FFFD
:1054C00006C08091E80082FF26C080E008958091A8
:1054D000E80080FFE3CF2091F3008091F20090E09C
:1054E000922B6115710551F08830910538F42191A6
:1054F0002093F100615071090196F3CF21E00897E4
:1055000009F020E08091E8008E778093E800C6CF14
:105510002111C7CFD6CF8091A102882339F08530E1
:1055200039F08091E80083FFCCCF04C082E0089579
:1055300083E0089581E008952091A8023091A902A6
:105540002617370748F06115710539F42091E800F6
:105550002E772093E80001C0B901FC0120E061151D
:105560007105C1F18091A102882309F441C0853001
:1055700009F440C08091E80083FD3EC08091E800BE
:1055800082FF06C08091E80082FF27C080E0089576
:105590008091E80080FFE3CF2091F3008091F2003A
:1055A00090E0922B6115710559F08830910540F417
:1055B00024912093F1003196615071090196F2CF48
:1055C00021E0089709F020E08091E8008E77809331
:1055D000E800C5CF2111C6CFD5CF8091A102882385
:1055E00039F0853039F08091E80083FFCBCF04C0DB
:1055F00082E0089583E0089581E00895982F973020
:1056000058F59093E900981739F07091EC002091CB
:10561000ED005091F00003C0242F762F50E021FFC1
:1056200019C03091EB003E7F3093EB003091ED00DC
:105630003D7F3093ED003091EB0031603093EB0013
:105640007093EC002093ED005093F0002091EE0059
:1056500027FF07C09F5FD3CF8F708093E90081E061
:10566000089580E008958091A20287FD05C0809191
:10567000E80080FF0EC012C08091E80082FD05C0E6
:105680008091A1028111F8CF08958091E8008B7775
:1056900008C08091A1028111EACF08958091E800AD
:1056A0008E778093E80008958091E4009091E50062
:1056B00045E62091EC0020FF21C02091E80020FD6C
:1056C00021C02091A102222389F0253089F0209168
:1056D000EB0025FD0FC02091E4003091E500281774
:1056E000390739F3415041F0C901E3CF82E0089511
:1056F00083E0089581E0089584E008952091E80012
:1057000022FFDFCF80E008950E94F22B0E94FA2B47
:10571000E0EEF0E0808181608083E8EDF0E0808160
:105720008F77808319BCA7EDB0E08C918E7F8C932E
:1057300080818F7E80831092A00208950F931F9323
:10574000CF93DF930E94F22B0E94FA2BC8EDD0E09A
:1057500088818F77888388818068888388818F7D1E
:10576000888319BC1092A10210929D0210929F0290
:1057700010929E0200EE10E0F80180818B7F808302
:1057800088818160888342E060E080E00E94FE2A98
:10579000E1EEF0E080818E7F8083E2EEF0E08081B8
:1057A00081608083808188608083F80180818E7F22
:1057B0008083888180618883DF91CF911F910F91D1
:1057C0000895E8EDF0E080818F7E8083E7EDF0E0E2
:1057D00080818160808384E082BF81E08093A00229
:1057E0000C949E2BE8EDF0E080818E7F80831092F8
:1057F000E20008951092DA001092E10008951F92DD
:105800000F920FB60F9211242F933F934F935F93F4
:105810006F937F938F939F93AF93BF93EF93FF9378
:105820008091E10082FF0BC08091E20082FF07C0FF
:105830008091E1008B7F8093E1000E94632E809134
:10584000DA0080FF1FC08091D80080FF1BC08091CC
:10585000DA008E7F8093DA008091D90080FF0DC03E
:1058600080E189BD82E189BD09B400FEFDCF81E000
:105870008093A1020E944E2805C019BC1092A1027B
:105880000E945C288091E10080FF19C08091E200B5
:1058900080FF15C08091E2008E7F8093E2008091AE
:1058A000E20080618093E2008091D8008062809362
:1058B000D80019BC85E08093A1020E9460288091E5
:1058C000E10084FF30C08091E20084FF2CC080E1C1
:1058D00089BD82E189BD09B400FEFDCF8091D80069
:1058E0008F7D8093D8008091E1008F7E8093E100CE
:1058F0008091E2008F7E8093E2008091E2008160DF
:105900008093E20080919D02882311F084E007C01B
:105910008091E30087FF02C083E001C081E08093B3
:10592000A1020E9461288091E10083FF29C080913B
:10593000E20083FF25C08091E100877F8093E10032
:1059400082E08093A10210929D028091E1008E7FFF
:105950008093E1008091E2008E7F8093E20080914D
:10596000E20080618093E20042E060E080E00E941B
:10597000FE2A8091F00088608093F0000E945F28EA
:10598000FF91EF91BF91AF919F918F917F916F9117
:105990005F914F913F912F910F900FBE0F901F90ED
:1059A00018951F920F920FB60F9211242F933F93C9
:1059B0004F935F936F937F938F939F93AF93BF9317
:1059C000CF93EF93FF93C091E900CF708091EC00EB
:1059D0001092E9008091F000877F8093F000789426
:1059E0000E940D2D1092E9008091F0008860809354
:1059F000F000C093E900FF91EF91CF91BF91AF917B
:105A00009F918F917F916F915F914F913F912F91D6
:105A10000F900FBE0F901F9018951F93CF93DF9399
:105A2000CDB7DEB7AA970FB6F894DEBF0FBECDBFD5
:105A3000E2EAF2E08091F100819322E0EA3AF20793
:105A4000C9F70E9477288091E80083FF24C1209144
:105A5000A2023091A302832F90E08A30910508F0D2
:105A60001AC1FC01EE55FF4F0C94E931203821F0AA
:105A7000223809F010C108C080919E0290919F02C7
:105A8000992389F082600FC08091A6028F708730C1
:105A900008F001C18093E9008091EB0085FB882725
:105AA00080F91092E9009091E800977F9093E800C8
:105AB0008093F1001092F100CCC0822F8D7F09F00D
:105AC000EAC0222319F0223061F0E5C08091A402DF
:105AD000813009F0E0C0333009F080E080939F020C
