:100000000C9492060C94D9060C94D9060C94D9063B
:100010000C94D9060C94D9060C94D9060C94D906E4
:100020000C94D9060C94D9060C9489270C945C285E
:100030000C94601E0C94D9060C94D9060C94D90625
:100040000C94D9060C94D9060C94D9060C94D906B4
:100050000C94D9060C94C81E0C94D9060C94D9069D
:100060000C94D9060C94D9060C94D9060C94D90694
:100070000C94D9060C94D9060C94D9060C94D90684
:100080000C94D9060C94D9060C94D9060C94D90674
:100090000C94D9060C94D9060C94D9060C94D90664
:1000A0000C94D9060C94D9060C94D90629001E008C
:1000B0001F0020002100220023002400250026002C
:1000C00027002D002E002A002B0014001A00080023
:1000D000150017001C0018000C00120013002F0060
:1000E00030003100E00004001600070009000A009B
:1000F0000B000D000E000F0033003400000028003C
:10010000E10000001D001B000600190005001100A1
:1001100010003600370038000000E5000000E30062
:10012000E200000000002C0000004600000000007B
:10013000000001510000025135003A003B003C0034
:100140003D003E003F0040004100420043004400AB
:1001500045004C00010032705200317030700100D7
:10016000010001000100010001004A004D00007083
:100170003900500051004F00010001000100010052
:100180000100E600E700E400000048000100000074
:100190000100010001000100010001000100AC00AC
:1001A000AB00AE00000001000000010001000000F3
:1001B000000001000000010000000000000001003C
:1001C0000000010001000100010001000100010028
:1001D0000100010001000100010001000100010017
:1001E0000100010001000100010001000100010007
:1001F00001000100010001000100010001000100F7
:1002000001000100010001000100010001000100E6
:1002100001000100000001000100000001000100D8
:1002200001000100010001000100010001000100C6
:1002300000000100000001000100000000000100BA
:1002400000000100000000000000010000000100AB
:100250000100010001000100010001000100010096
:100260000100010001000100010001000100010086
:100270000100010001000100010001000100010076
:100280000100010001000100010001000100010066
:100290000100010001000100010001000100010056
:1002A0000000010001000000010001000100010048
:1002B0000100010001000100010001000000010037
:1002C000000001000100000000000100000001002A
:1002D000000000000000010000000100010001001A
:1002E0000100010001000100010001000100010006
:1002F00001000100010001000100010001000100F6
:1003000001000100010001000100010001000100E5
:1003100001000100010001000100010001000100D5
:1003200001000100010001000100010000000100C6
:1003300001000000010001000100010001000100B6
:1003400001000100010001000000010000000100A7
:10035000010000000000010000000100000000009A
:100360000000010000000100010001000100010087
:100370000100010001000100010001000100010075
:100380000100010001000100010001000100010065
:100390000100010001000100010001000100010055
:1003A0000100010001000100010001000100010045
:1003B0000100010001000100000001000100000037
:1003C0000100010001000100010001000100010025
:1003D0000100010000000100000001000100000018
:1003E000000001000000010000000000000001000A
:1003F00000000100010001000100010001000100F6
:1004000001000100010001000100010001000100E4
:1004100001000100010001000100010001000100D4
:1004200001000100010001000100010001000100C4
:1004300001000100010001000100010001000100B4
:1004400001000100000001000100000001000100A6
:100450000100010001000100010001000100010094
:100460000000010000000100010000000000010088
:100470000000010000000000000001000000010079
:100480000100010001000100010001000100010064
:100490000100010001000100010001000100010054
:1004A0000100010001000100010001000100010044
:1004B0000100010001000100010001000100010034
:1004C0000100010001000100010001000100010024
:1004D0000000010001000000010001000100010016
:1004E0000100010001000100010001000000010005
:1004F00000000100010000000000010000000100F8
:1005000000000000000001000000010001000100E7
:1005100001000100010001000100010001000100D3
:1005200001000100010001000100010001000100C3
:1005300001000100010001000100010001000100B3
:1005400001000100010001000100010001000100A3
:100550000100010001000100010001000000010094
:100560000100000001000100010001000100010084
:100570000100010001000100000001000000010075
:100580000100000000000100000001000000000068
:100590000000010000000100010001000100010055
:1005A0000100010001000100010001000100010043
:1005B0000100010001000100010001000100010033
:1005C0000100010001000100010001000100010023
:1005D0000100010001000100010001000100010013
:1005E0000100010001000100000001000100000005
:1005F00001000100010001000100010001000100F3
:1006000001000100000001000000010001000000E5
:1006100000000100000001000000000000000100D7
:1006200000000100010001000100010001000100C3
:1006300001000100010001000100010001000100B2
:1006400001000100010001000100010001000100A2
:100650000100010001000100010001000100010092
:100660000100010001000100010001000100010082
:100670000100010000000100010000000100010074
:100680000100010001000100010001000100010062
:100690000000010000000100010000000000010056
:1006A0000000010000000000000001000000010047
:1006B0000100010001000100010001000100010032
:1006C0000100010001000100010001000100010022
:1006D0000100010001000100010001000100010012
:1006E0000100010001000100010001000100010002
:1006F00001000100010001000100010001000100F2
:1007000000000100010000000100010001000100E3
:1007100001000100010001000100010000000100D2
:1007200000000100010000000000010000000100C5
:1007300000000000000001000000010001000100B5
:1007400001000100010001000100010001000100A1
:100750000100010001000100010001000100010091
:100760000100010001000100010001000100010081
:100770000100010001000100010001000100010071
:100780000100010001000100010001000000010062
:100790000100000001000100010001000100010052
:1007A0000100010001000100000001000000010043
:1007B0000100000000000100000001000000000036
:1007C0000000010000000100010001000100010023
:1007D0000100010001000100010001000100010011
:1007E0000100010001000100010001000100010001
:1007F00001000100010001000100010001000100F1
:1008000001000100010001000100010001000100E0
:1008100001000100010001000000010001000000D2
:1008200001000100010001000100010001000100C0
:1008300001000100000001000000010001000000B3
:1008400000000100000001000000000000000100A5
:100850000000010001000100010001000100010091
:100860000100010001000100010001000100010080
:100870000100010001000100010001000100010070
:100880000100010001000100010001000100010060
:100890000100010001000100010001000100010050
:1008A0000100010000000100010000000100010042
:1008B0000100010001000100010001000100010030
:1008C0000000010000000100010000000000010024
:1008D0000000010000000000000001000000010015
:1008E0000100010001000100010001000100010000
:1008F00001000100010001000100010001000100F0
:1009000001000100010001000100010001000100DF
:1009100001000100010001000100010001000100CF
:1009200001000100010001000100010001000100BF
:1009300000000100010000000100010001000100B1
:1009400001000100010001000100010000000100A0
:100950000000010001000000000001000000010093
:100960000000000000000100000001006432146477
:100970003214783C1E1E140A05000000000101011B
:100980000202030405050607090A0B0C0E0F1112DB
:10099000141517191B1D1F212325282A2C2F31342C
:1009A00036393B3E414346494C4F5255585A5D619A
:1009B00064676A6D707376797C7F8386898C8F9289
:1009C00095989B9EA2A5A7AAADB0B3B6B9BCBEC16F
:1009D000C4C6C9CBCED0D3D5D7DADCDEE0E2E4E6BC
:1009E000E8EAEBEDEEF0F1F3F4F5F6F8F9FAFAFBDC
:1009F000FCFDFDFEFEFEFFFFFFFFFFFFFFFEFEFE14
:100A0000FDFDFCFBFAFAF9F8F6F5F4F3F1F0EEED82
:100A1000EBEAE8E6E4E2E0DEDCDAD7D5D3D0CECB11
:100A2000C9C6C4C1BEBCB9B6B3B0ADAAA7A5A29E83
:100A30009B9895928F8C898683807C797673706D74
:100A40006A6764615D5A5855524F4C494643413E6E
:100A50003B393634312F2C2A282523211F1D1B1901
:100A600017151412110F0E0C0B0A090706050504C1
:100A7000030202010101000000000000000001016A
:100A8000010101010101010202020202020202024D
:100A9000030303030303030304040404040405051C
:100AA00005050506060606060707070708080808DD
:100AB0000909090A0A0A0A0B0B0B0C0C0C0D0D0D87
:100AC0000E0E0F0F0F101011111112121313141418
:100AD000151516161717181819191A1A1B1C1C1D8C
:100AE0001D1E1F1F202021222223242525262727E3
:100AF00028292A2B2B2C2D2E2F2F30313233343511
:100B000036363738393A3B3C3D3E3F40414243441C
:100B1000464748494A4B4C4D4F50515253555657F2
:100B2000585A5B5C5E5F606263646667696A6C6D9D
:100B30006E707173747678797B7C7E808183848615
:100B4000888A8B8D8F91929496989A9B9D9FA1A352
:100B5000A5A7A9ABADAFB1B3B5B7B9BBBDBFC1C454
:100B6000C6C8CACCCFD1D3D6D8DADCDFE1E4E6E818
:100B7000EBEDF0F2F5F7FAFCFF12036B006500797C
:100B80000062006F006100720064000000160371D3
:100B9000006D006B006200750069006C0064006508
:100BA00000720000000403090409026D0004010042
:100BB000A0FA09040000010301010009211101004C
:100BC000012240000705810308000A090401000111
:100BD00003010200092111010001224D00070582D5
:100BE0000308000A090402000103000000092111A2
:100BF0000100012236000705830308000A090403E7
:100C00000001030000000921110100012239000741
:100C10000584032000011201100100000008EDFE10
:100C2000606001000102000105010906A10105073C
:100C300019E029E7150025019508750181020508CD
:100C40001901290595057501910295017503910119
:100C50000507190029F71500250195F8750181028E
:100C6000C005010980A10185021601002603001AB2
:100C700081002A8300751095018100C0050C0901CF
:100C8000A1018503160100269C021A01002A9C027C
:100C9000751095018100C005010902A1010901A19A
:100CA0000005091901290515002501950575018122
:100CB000029501750381010501093009311581256E
:100CC0007F95027508810609381581257F95017584
:100CD000088106050C0A38021581257F95017508E3
:100CE0008106C0C005010906A101050719E029E731
:100CF000150025019508750181029501750881018E
:100D000005081901290595057501910295017503DD
:100D100091010507190029FF150026FF00950675AA
:100D2000088100C011241FBECFEFDAE0DEBFCDBFC7
:100D300004B603FE27C080919F029091A002A0916B
:100D4000A102B091A2028730904BA740B04BD1F4E2
:100D500010929F021092A0021092A1021092A20281
:100D600014BE84B7877F84BF0FB6F894A89580918E
:100D70006000886180936000109260000FBEE0E028
:100D8000F8E3099511E0A0E0B1E0E4E6F7E502C080
:100D900005900D92AC33B107D9F722E0ACE3B1E096
:100DA00001C01D92AF39B207E1F70E94D6240C941E
:100DB000B02B0C94000090E080E008950895089511
:100DC00081FF03C0809A889808958098FCCF81E0C5
:100DD000089581E008950C94E9060E94BF162FEF54
:100DE00084E39CE0215080409040E1F700C0000087
:100DF0000C94ED1EFF920F931F93CF93DF938C0102
:100E0000FC01C081D18180918D01811148C0828116
:100E1000882309F43FC0CE010E94261CF82E682FBB
:100E2000CE010E94CC1BBE018F2D0E94DB08EC017D
:100E3000B8010E94EB06882309F478C0B801CE01FE
:100E40000E940B0B882309F471C0C633F0E7DF075B
:100E500009F484C0C0F5C53190E7D90728F5C23040
:100E6000E0E7DE0708F099C0C115F0E7DF0709F4F5
:100E700058C0C130D04709F460C081E080933E0182
:100E800080933F01C801DF91CF911F910F91FF9097
:100E90000C94E706CE010E94FB1BF82EC4CFCE01B6
:100EA0000E94261CBE01C1CFC43390E7D90709F4C4
:100EB0004EC0C533D04709F7F80182818823B1F1CC
:100EC0000E94260F33C0CA33F0E7DF0709F457C08A
:100ED00070F4F8018281C833F0E7DF0709F44AC0F3
:100EE00008F443C0882311F10E946A0E1FC0CC335E
:100EF000E0E7DE0709F4D5C008F448C0CD33D04799
:100F000009F0BBCFF8018281882309F4F1C0109267
:100F10003F010E94921E90933D0180933C0180E22C
:100F2000CDC0F801828181110E94ED0680E0DF9141
:100F3000CF911F910F91FF900895F801828188232E
:100F4000A9F380912002816080932002EFCFF80105
:100F50008281882359F30E94300FE8CFF801828103
:100F6000882321F30E941B0EE1CF8823F9F20E940F
:100F7000330EDCCF8823D1F20E94520ED7CFF80176
:100F80008281882399F20E94820ED0CFF80182815B
:100F9000882361F20E949A0EC9CFF80182818823CA
:100FA00009F470CF0E94E31D811102C00E94BD1D93
:100FB0000E94001E90E09093900280938F02FE01A9
:100FC000E350F04780918F028160E231F105C8F46F
:100FD000E451F84F0C94622BFE070A080E08120821
:100FE00016081A081E08220826082A082E083208A1
:100FF00036083A083E08420846084A0880918F029F
:10100000826080938F0280918F020E94041E0E9452
:10101000BF168CCF80918F028460F3CF80918F02B6
:101020008860EFCF80918F028061EBCF80918F023B
:101030008062E7CF80918F028064E3CF80918F023E
:101040008068DFCF80918F028460EACF80918F0229
:101050008E7FD7CF80918F028D7FD3CF80918F02EB
:101060008B7FCFCF80918F02877FCBCF80918F02F4
:101070008F7EC7CF80918F028F7DC3CF80918F02EB
:101080008F7BBFCF80918F028F77BBCF80918F02F4
:101090008B7FEACF90918F02892F97FB87F9805839
:1010A000B0CFF8018281882361F010923E010E9446
:1010B000921E90933D0180933C0182E00E9429148E
:1010C00035CF80913E0181110FC080913C019091FC
:1010D0003D010E949E1E883C910530F486E20E94EC
:1010E000FE1286E20E94DA1382E00E9430141ECFC4
:1010F00080913F0181110FC080913C0190913D0191
:101100000E949E1E883C910530F487E20E94FE12E8
:1011100087E20E94DA1380E2E8CF0C945C0B269AF7
:101120002E988FEF9FEF909387008093860082E246
:101130008093800089E1809381000C948B220E942F
:101140008F080C945A0B2E9881110AC08091800050
:101150008F7D8093800010928B0010928A000895FA
:10116000853061F4809180008062809380008FEFF1
:101170009FEF90938B0080938A0008959091800058
:1011800090629093800025E030E0A901481B51094E
:10119000CA019A01220F331F280F391F8FEF9FEFCB
:1011A00002C0969587952A95E2F7E3CF0C94E00666
:1011B0000C94D6080895972F70E02EE0929F600D52
:1011C000711D1124FB0196E4899FE00DF11D11248E
:1011D000EE0FFF1FE455FF4F859194910895FC0198
:1011E000EE0FFF1FE459F64F8591949108950E94E8
:1011F000DB080E948A0A811520E5920708F040C0AA
:10120000811530E4930708F0FAC0883E910518F57F
:10121000803E910508F07DC1883A910580F4853AB9
:10122000910508F087C08130910509F472C120F062
:101230008430910508F06DC190E080E008958D3B09
:10124000910508F482C0803C9105B0F3805C91095F
:101250000E94EF080895811540E2940750F481152B
:1012600021E0920708F055C1803F910528F3906571
:101270000895811530E3930708F0BEC09F70E8CF52
:10128000811545E5940760F5811524E5920708F07E
:10129000E5C0811532E5930750F4811541E59407C7
:1012A00008F4B0C0982F8827816F906A0895282F7E
:1012B00026952695AC01437055278115934508F076
:1012C000BEC081E090E002C0880F991F4A95E2F706
:1012D00040E2249F90011124822B932B9C68089557
:1012E000803340E7940798F4803220E7920708F0B3
:1012F000BFC0811536E5930708F4B5C09C01305690
:101300009F702115304108F097CF90620895813386
:1013100020E7920709F4B3C008F4AEC0823340E777
:10132000940709F4AFC08333904709F085CF80E07C
:1013300093ED0895853A910509F4A7C0863A910581
:1013400009F0A6C082E890E40895883A910509F46E
:10135000A2C0893A910509F4A1C08A3A910509F41D
:10136000A0C08B3A910509F49FC08C3A910509F40D
:101370009EC08B3B910509F49DC08C3B910509F4FF
:101380009CC08D3A910509F49BC0803B910509F4FE
:101390009AC08E3A910509F499C08F3A910509F4E3
:1013A00098C0813B910509F497C0823B910509F4EF
:1013B00096C0833B910509F495C0843B910509F4DF
:1013C00094C0853B910509F493C0863B910509F4CF
:1013D00092C0873B910509F491C0883B910509F4BF
:1013E00090C0893B910509F48FC08A3B910509F4AF
:1013F0008EC080E094E408959927906C08959F70C2
:10140000906A08959C0154E0369527955A95E1F726
:10141000922F9370482F437021E030E002C0220FDA
:10142000331F4A95E2F73C68392B86958695837081
:1014300040E2849FC0011124822B932B089581E008
:1014400090E002C0880F991F4A95E2F740E2249F7E
:1014500090011124822B932B9A680895982F882746
:10146000846F906A0895982F882788279F714DCFA1
:1014700080529047946D089580E091ED089580E04A
:1014800090ED089580E092ED089581E890E408954C
:1014900083E890E4089582EE94E4089589EE94E45C
:1014A00008958AEE94E4089585EB94E4089586EB1C
:1014B00094E4089583EB94E4089584EB94E4089510
:1014C00087EB94E408958CEC94E408958DEC94E417
:1014D000089583E895E408958AE895E4089582E9FB
:1014E00095E4089584E995E4089581E296E40895E9
:1014F00083E296E4089584E296E4089585E296E412
:10150000089586E296E4089587E296E408958AE2D3
:1015100096E408958238910549F1B0F4813391053C
:1015200009F45CC048F48932910509F452C08A324A
:10153000910509F458C008958533910509F444C014
:101540008933910599F00895833E910531F138F47E
:10155000803E910591F0823E9105B1F00895863E5E
:10156000910511F1873E910541F1089520918F0277
:101570002370C9F080EE90E0089520918F0220FF43
:1015800012C089E390E0089520918F0222FF0BC0E2
:1015900024FF2EC090E080E0089520918F0222FD6C
:1015A0002AC024FDF7CF089520918F0223FFFBCF9F
:1015B00024FDF0CF87EE90E0089520918F0223FF65
:1015C000F0CF86EE90E0089520918F0225FD16C0A1
:1015D000089520918F0225FD14C0089520918F0257
:1015E00026FD12C0089520918F0226FD10C0089597
:1015F00083EE90E0089582EE90E0089589E290E015
:10160000089585E390E008958AE290E0089581E3EB
:1016100090E0C9CF08950F931F93CF938C01FB01E6
:101620008281811106C0C1E08C2FCF911F910F9153
:101630000895C0914D01C11125C00531104799F79A
:101640000E940A0B81E080934D010E94921E9093AC
:101650004C0180934B011092400110924201109274
:1016600041011092440110924301109246011092E0
:101670004501109248011092470110924A011092C0
:101680004901D2CF80914B0190914C010E949E1E46
:10169000883C910540F680914001E82FF0E0EE0F84
:1016A000FF1FEF5BFE4F118300838F5F809340012C
:1016B000C0E0BACF0C94DE060C94DF06CF93DF9324
:1016C00085B7806885BF85B7806885BFA2E2B1E035
:1016D00047E251E0C1E0D0E08D91E82FE295EF7054
:1016E000F0E061A18F709E0101C0220F8A95EAF798
:1016F000922F9095962391A382A1822B82A34A17C1
:101700005B0751F7A4E1B1E061E070E08D91E82F53
:10171000E295EF70F0E041A18F709B0101C0220FB4
:101720008A95EAF7922F9095942391A382A1822B18
:1017300082A381E0A232B80749F7109259011092B2
:10174000580110924F0110924E0110925B011092BD
:101750005A01109251011092500110925D011092A5
:101760005C01109253011092520110925F0110928D
:101770005E01109255011092540110926101109275
:1017800060011092570110925601DF91CF910C9495
:101790009F086F927F929F92AF92BF92CF92DF92FB
:1017A000EF92FF920F931F93CF93DF93CEE4D1E09C
:1017B00002E211E0EE24E394F12CBB24B394C88040
:1017C000D98019821882D8018D918D01E82FE29578
:1017D000EF70F0E091A18F70970101C0220F8A9500
:1017E000EAF7892F822B81A382A1A22EA0948A21BD
:1017F00082A3B0EABA95F1F784E1682E81E0782EF1
:1018000090E080E0D3017D913D01472F42954F70DC
:1018100050E0DA0190969C90488159817F70D70101
:1018200002C0AA0FBB1F7A95E2F7BD01692109F03A
:101830006FC0B701082E02C0660F771F0A94E2F747
:10184000462B572B5983488301968E309105D1F64C
:1018500081A18A2181A382A1282B22A38881998139
:10186000C816D90641F0B09262010E94921E909370
:101870006401809363012296B1E007321B0709F0EF
:101880009ECF80916201882391F1809163019091B4
:1018900064010E949E1E069750F180914E01909126
:1018A0004F0190935901809358018091500190917C
:1018B000510190935B0180935A0180915201909164
:1018C000530190935D0180935C018091540190914C
:1018D000550190935F0180935E0180915601909134
:1018E00057019093610180936001109262010E9400
:1018F0008D0881E0DF91CF911F910F91FF90EF90C4
:10190000DF90CF90BF90AF909F907F906F900895A1
:1019100070E060E095CFE82FF0E0EE0FFF1FE85A8F
:10192000FE4F808191810895089535B1242F20952F
:10193000232335B1432B3FB7F894FC01680F791F7F
:10194000E617F70711F43FBF0895819198E045B974
:10195000000000C087FF25B9880F000000C000C04C
:1019600000C025B900C09A9591F7EACF24B1242B85
:1019700024B99B01220F331F620F731F0E94950C25
:1019800087EC90E00197F1F700C00000089541E076
:101990000C94B60CCF92DF92EF92FF920F931F93AD
:1019A000CF93DF93E901662309F466C0E42EF12C9E
:1019B000EFEFF0E0E61BF109EE9D8001EF9D100DC9
:1019C000FE9D100D1124212FE12FFF27EE1AFF0A93
:1019D0005CE3C52ED12CB6010E943A2BFB01BC0161
:1019E000E69EC001E79E900DF69E900D1124B60173
:1019F0000E943A2BE230F10589F168F4812F262FFD
:101A0000210F309781F0242F461B319761F080E041
:101A100020E040E008C0E430F10551F128F1842FC6
:101A2000861B3597A1F7E42FF0E0E758F54F449176
:101A3000E22FF0E0E758F54F9491E82FF0E0E758F7
:101A4000F54FE49149839883EA83DF91CF911F9109
:101A50000F91FF90EF90DF90CF900895862F810F28
:101A6000E42F412F2E2FDFCFE42FE61B842FF9CF59
:101A7000842F462F410FD7CF842F242FD4CF88E037
:101A800090E00C94702BAB01BC0188E090E00C94CA
:101A90008E2BEDE4F2E083E0808310924E028FEF14
:101AA0008283838360914D0270914E0280914F0238
:101AB000909150020C94430D80914D02E5E5F2E0C7
:101AC00080FF06C062E170E085E592E00C94C70CEF
:101AD000118210821282339682E0EB38F807C1F748
:101AE000F1CFE5E5F2E0818360834283339692E0B3
:101AF000EB38F907C1F70C945C0DEF92FF920F934E
:101B00001F93CF93DF9300D01F92CDB7DEB7182F6E
:101B1000E92EF62E042F80914D0290914E02A09155
:101B20004F02B09150028093510290935202A093C1
:101B30005302B093540280914D0280FF1FC09E015A
:101B40002F5F3F4F812F9E2D0E94CA0C8091510222
:101B500010FB87F98093510216958091520280788C
:101B6000812BE0FA87F980935202F092530200939E
:101B700054024B8169818A810E94710D0F900F90F0
:101B80000F90DF91CF911F910F91FF90EF900895EB
:101B90000F931F93CF93DF93EC01062F142F909197
:101BA0004D0290FF43C0892F8E77823021F5CE0100
:101BB0000E947D0D80914D02C0FB87F980934D02FC
:101BC000C69580914E028078C82BD0FBC7F9C09390
:101BD0004E0200934F021093500260914D0270919B
:101BE0004E0280914F0290915002DF91CF911F9150
:101BF0000F910C94430D892F86958F732EE3280F38
:101C00002F73243018F410915002D4CF865C8F7358
:101C1000893080F6991F9927991FD0914E02CD2FB8
:101C2000CC0FC92BD7FBDD27D0F9C4CFDF91CF91E3
:101C30001F910F910895EDE4F2E02081221F2227E9
:101C4000221F30914E02432F440F842F822B37FBEB
:101C5000992790F9089668E671E00E944E2B43811F
:101C600062810C94C80D20914D02221F2227221F51
:101C700030914E02432F440F842F822B37FB99273C
:101C800090F98830910540F4805A9E4F409150025F
:101C900060914F020C94C80D089768E671E00E94AD
:101CA0004E2BF4CF60914F02683F90F4685F8091B3
:101CB0004D02881F8827881F90914E02292F220FDE
:101CC00097FB992790F940915002822B0C94C80DF4
:101CD0006FEFEDCF60914F02683090F068508091C7
:101CE0004D02881F8827881F90914E02292F220FAE
:101CF00097FB992790F940915002822B0C94C80DC4
:101D000060E0EDCF40915002483F90F4485F8091F1
:101D10004D02881F8827881F90914E02292F220F7D
:101D200097FB992790F960914F02822B0C94C80D74
:101D30004FEFEDCF40915002483090F048508091E5
:101D40004D02881F8827881F90914E02292F220F4D
:101D500097FB992790F960914F02822B0C94C80D44
:101D600040E0EDCF90914D0290FF3BC09178811102
:101D700026C0926090934D0260914D0270914E0288
:101D800080914F02909150020E94430D80914D022C
:101D9000982F9E779230D9F410927A01881F882765
:101DA000881F90914E02292F220F97FB992790F9B7
:101DB0004091500260914F02822B0C94C80D8931E2
:101DC00010F09063D7CF8F73880F982BD3CF982FB5
:101DD0009695925C9F73963108F791E090937A0103
:101DE000DDCF08958091200281608093200281E000
:101DF00080937B010E94E31D811104C00E94BD1DE0
:101E00000E94490D0E943F0D60934D0270934E0257
:101E100080934F02909350026E7761F40E94490DB7
:101E20000E943F0D60934D0270934E0280934F02CB
:101E30009093500281E080937A0180914D0280FF5F
:101E400004C086958F730C94B20E089580914D0254
:101E500086958F738F5F893108F081E00C94B20E04
:101E600090914D02892F8E7F90FF816080934D026B
:101E700060914D0270914E0280914F0290915002FC
:101E80000E94430D80914D0280FF04C086958F73A0
:101E90000C94B20E10927A012FEF80E792E021505D
:101EA00080409040E1F700C000000C945C0DCF939F
:101EB000C82F80917801909179010E949E1EEC2F8D
:101EC000F0E0EB58F64FE491E817190609F010F529
:101ED0000E94921E9093790180937801E09177019E
:101EE000F0E0E758F64F449180914D02881F882713
:101EF000881F90914E02292F220F97FB992790F966
:101F000060914F02822B0E947D0D809177018F5F3F
:101F100080937701CF910895CF93C82F8091750159
:101F2000909176010E949E1EEC2FF0E0EE58F64F45
:101F3000E491E817190609F0E8F40E94921E9093C4
:101F40007601809375014091500260914F0280911B
:101F50007301909174010E947D0D809173019091A5
:101F60007401019668E671E00E943A2B9093740127
:101F700080937301CF910895CF92DF92FF920F93D8
:101F80001F93CF93DF93F82E80917101909172018E
:101F90000E949E1EEF2DE695F0E0EE58F64FE4917C
:101FA000E817190609F0A8F50E94921E9093720195
:101FB0008093710105E512E0D0E0C0E088E6C82E0C
:101FC000DD24D39480916F01909170018C0F9D1F3F
:101FD000B6010E943A2B98014091500260914F0245
:101FE0000E94CA0C64960D5F1F4FC83681E0D80767
:101FF00049F70E945C0D80916F0190917001F0FE95
:1020000010C00196BE010E943A2B909370018093FC
:102010006F01DF91CF911F910F91FF90DF90CF90D3
:1020200008950197F2CFAF92BF92CF92DF92EF92D5
:10203000FF920F931F93CF93DF93C82FFF24FA943F
:1020400080FD02C0FF24F39480916D0190916E0198
:102050000E949E1EC695EC2FF0E0E159F64FE491E8
:10206000E817190611F008F053C00E94921E9093D1
:102070006E0180936D01C5E5D2E010E000E097E0CD
:10208000C92ED12C198218821A8287E0A82EB12C71
:10209000E12C80916C018E0D87FD8E5E082E000C68
:1020A000990B08171907E9F4209150022A9DC001E5
:1020B0002B9D900D1124B6010E944E2B462F80912E
:1020C0004D02881F8827881F90914E02592F550F67
:1020D00097FB992790F99E0160914F02852B0E94F2
:1020E000CA0CEF0C81E0A81AB10899F60F5F1F4FD8
:1020F00023960231110531F60E945C0D80916C012E
:1021000091E0F91212C081110EC081E180936C013F
:10211000DF91CF911F910F91FF90EF90DF90CF90C3
:10212000BF90AF9008958150F1CF90E00196B80133
:102130000E944E2BEBCFBF92CF92DF92EF92FF9295
:102140000F931F93CF93DF93CDB7DEB7E6970FB60C
:10215000F894DEBF0FBECDBF182F80916A01909119
:102160006B010E949E1EE12FF0E0E459F64FE491CE
:10217000E817190611F008F07AC00E94921E909399
:102180006B0180936A018E010F5F1F4FF12CE12CD0
:102190006801D80111961C9211971C9212961C92FC
:1021A000B12C9091000180916901B99E800D11249C
:1021B00082310CF081E187FD80E0082E000C990B44
:1021C000E816F906A1F480914D02881F8827881F20
:1021D00090914E02592F550F97FB992790F998012E
:1021E0004091500260914F02852B0E94CA0CB3941B
:1021F000B7E0BB12D6CFEFEFEE1AFE0A0D5F1F4F0E
:10220000F2E1EF16F10429F625E532E009E010E0ED
:1022100052E1E52EF12CC801B7010E944E2BFC01C2
:10222000EE0FFF1FE80FF91FEC0DFD1D8181D90195
:1022300011968C93119780818C93828112968C9346
:102240000F5F1F4F2D5F3F4F0B31110521F70E948C
:102250005C0D90910001809169019130E1F48A3F19
:10226000B4F489EF809369018FEF80930001E696C3
:102270000FB6F894DEBF0FBECDBFDF91CF911F9197
:102280000F91FF90EF90DF90CF90BF900895815015
:1022900080936901ECCF89312CF088E1809369014A
:1022A00081E0E3CF8F5FF4CFCF93DF93809167011D
:1022B000909168010E949E1E883E934028F10E94E2
:1022C000921E9093680180936701809165019091BF
:1022D000660101968170992790936601809365014C
:1022E000C5E5D2E09E014091500260914F0290E01E
:1022F00080E00E94CA0C239682E0CB38D80791F781
:10230000DF91CF910C945C0DDF91CF910895809176
:102310007A01882371F180914D0286958F739EE337
:10232000980F9F73943018F482500C94570F9AE3CF
:10233000980F9F73933018F486500C948C0F97E38A
:10234000980F9F73963018F489500C94BC0F91E34A
:10235000980F9F73963018F48F500C9413109BE2D3
:10236000980F9F73933018F485510C949B100C9424
:102370005411089590938101809380010895E09114
:102380008001F0918101309721F00190F081E02DE2
:10239000099480E00895E0918001F09181013097E7
:1023A00021F00280F381E02D09940895E0918001ED
:1023B000F0918101309721F00480F581E02D09949E
:1023C000089520917E0130917F012817390771F01F
:1023D00090937F0180937E01E0918001F0918101D3
:1023E000309721F00680F781E02D0994089520911F
:1023F0007C0130917D012817390771F090937D01A0
:1024000080937C01E0918001F0918101309721F06F
:102410000084F185E02D0994089508950C940D121F
:102420000E94891E0E945E0B0E945A1F0E948B22EE
:102430000C94F20E5F926F927F928F929F92AF9266
:10244000BF92CF92DF92EF92FF920F931F93CF93A1
:10245000DF93CDB7DEB72A970FB6F894DEBF0FBE75
:10246000CDBF0E94C90B93E8A92E91E0B92E10E0D0
:1024700000E088248394912C502E802F0E948B0C96
:102480007C01F501C190D1905F01C816D90609F40D
:102490005EC08091200281FD0E94940C90E080E05B
:1024A000CE24DF243401082E02C0660C771C0A9467
:1024B000E2F7960126213721232B09F443C08E83AE
:1024C0005F82E620F72081E0EF2809F480E088872A
:1024D0000E94921E8160782F9A8789874E815F8142
:1024E00068858A850E94D412000F111FF801ED57EC
:1024F000FE4F8081918168267926718260820E94D8
:10250000DD210E94BF11909182018917B9F10E94CB
:10251000BF11809382012A960FB6F894DEBF0FBEDA
:10252000CDBFDF91CF911F910F91FF90EF90DF9082
:10253000CF90BF90AF909F908F907F906F905F9063
:102540000C94D80801968E30910509F0ABCF0F5F3F
:102550001F4F0530110509F08FCF8FEF89838A83D4
:102560001B820E94921E8160782F9D838C834981FB
:102570005A816B818D810E94D412C1CF2A960FB6E9
:10258000F894DEBF0FBECDBFDF91CF911F910F91A9
:10259000FF90EF90DF90CF90BF90AF909F908F9083
:1025A0007F906F905F900895CF93DF93CDB7DEB7A4
:1025B0002B970FB6F894DEBF0FBECDBF4F83588761
:1025C00069877A878B871E821D8285E0FE01379698
:1025D000DE01119601900D928A95E1F749815A81A9
:1025E0006B817C818D819E812B960FB6F894DEBF26
:1025F0000FBECDBFDF91CF910C947119882309F4E0
:10260000D8C0823871F40E94BF1181FDD2C089E325
:102610000E94C61C0E948E1D89E30E94031D0C941B
:102620008E1D833859F40E94BF1180FDC2C083E51E
:102630000E94C61C0E948E1D83E5EFCF843859F49A
:102640000E94BF1182FDB5C087E40E94C61C0E9493
:102650008E1D87E4E2CF9CEF980F913A18F40E9408
:10266000C61CDDCF90E2980F983050F4877091E04F
:1026700001C0990F8A95EAF7892F0E94451DCFCF97
:102680009BE5980F933070F4853A31F0863A39F033
:1026900083E890E00C94E11181E890E0FBCF82E8C0
:1026A00090E0F8CF98E5980F953108F082C0883A0D
:1026B00009F440C0893A09F440C08A3A09F440C09C
:1026C0008B3A09F440C08C3A09F440C08B3B09F4C2
:1026D00040C08C3B09F440C08D3A09F440C0803BB7
:1026E00009F440C08E3A09F440C08F3A09F440C062
:1026F000813B09F440C0823B09F440C0833B09F4AC
:1027000040C0843B09F440C0853B09F440C0863B8F
:1027100009F440C0873B09F440C0883B09F440C03D
:10272000893B09F440C08A3B09F440C090E080E056
:102730000C94F71182EE90E0FBCF89EE90E0F8CF99
:102740008AEE90E0F5CF85EB90E0F2CF86EB90E05B
:10275000EFCF83EB90E0ECCF84EB90E0E9CF87EB19
:1027600090E0E6CF8CEC90E0E3CF8DEC90E0E0CF12
:1027700083E891E0DDCF8AE891E0DACF82E991E069
:10278000D7CF84E991E0D4CF81E292E0D1CF83E248
:1027900092E0CECF84E292E0CBCF85E292E0C8CF48
:1027A00086E292E0C5CF87E292E0C2CF8AE292E071
:1027B000BFCF0895882309F44BC0823871F40E947A
:1027C000BF1181FF45C089E30E94C61C0E948E1D77
:1027D00089E30E94031D0C948E1D833859F40E94D6
:1027E000BF1180FF35C083E50E94C61C0E948E1D6C
:1027F00083E5EFCF843859F40E94BF1182FF28C0CF
:1028000087E40E94C61C0E948E1D87E4E2CF9CEFE5
:10281000980F913AF0F290E2980F983050F4877048
:1028200091E001C0990F8A95EAF7892F0E944B1D0C
:10283000D2CF9BE5980F933020F490E080E00C9489
:10284000E111885A853120F490E080E00C94F71172
:102850000895882321F00E94451D0C948E1D089533
:10286000882321F00E944B1D0C948E1D08958F9299
:102870009F92AF92BF92DF92EF92FF920F931F93BE
:10288000CF93DF937C01D62FC72FFC0105810295E2
:102890000F70128111110E94641D0E94BF1CD82E5E
:1028A000882371F0112321F180E28D0F883000F12F
:1028B00082E00E94A91C0E94BF1C91E0D82ED9265C
:1028C000EC2FE295EF70F0E0E859FB4E0C94622B90
:1028D0007A147A14CA14CA140C152815A714A7144C
:1028E0003315A714CB15CB153E164716A71467163C
:1028F000D12CE6CF0C2F0F70C07F11F00295007F16
:102900001123A9F0002359F080E28D0F883010F0D8
:10291000D11109C0802F0E94451D0E948E1D8D2F50
:102920000E94FE1214C0802F0E94561DF6CF8D2FDC
:102930000E94DA13002359F080E28D0F883010F0E6
:10294000D11124C0802F0E944B1D0E948E1DDD20BE
:1029500009F4C4C10E949C1C80FDC0C1F701128211
:102960000E94961C0E94101BC7010E947A160E94AA
:10297000961CDF91CF911F910F91FF90EF90DF9008
:10298000BF90AF909F908F900C94311B802F0E942E
:102990005C1DDBCFFC2FFF70BF2EC07FC03219F053
:1029A000B29480EFB822DD2369F0D13029F11123F0
:1029B00069F1002359F0F701858180FFB0CF8F7056
:1029C000858304C0112361F0011104C08B2D0E9486
:1029D0002914BDCF8B2D0130D1F70E94781DB7CFC0
:1029E000011106C00E947B1D8B2D0E943014AFCFB9
:1029F000013009F4ACCFF6CF112321F0063008F0F6
:102A0000A6CFE4CF053008F0A2CFEECF002361F3CC
:102A10008D2F0E94DA139BCF8C2F8695869583701D
:102A200069F0813009F093CF8D2F9C2F9370111195
:102A300002C090E080E00E94F71189CF8D2F9C2F7B
:102A40009370111102C090E080E00E94E1117FCFED
:102A50008D2F112329F00E94E6200E94D22177CFEA
:102A60000E944E21FACF8C2F837009F047C01111BC
:102A70006ECF2D2F229526952770220F220F6D2FB6
:102A80006F70862E912CB12CA12C022E04C0880CC4
:102A9000991CAA1CBB1C0A94D2F760E070E0CB0121
:102AA000D4FF0FC06FE070E080E090E004C0660FDC
:102AB000771F881F991F2A95D2F76095709580958A
:102AC0009095C695C695C370C23051F080F46829C0
:102AD00079298A299B29C13071F00E94B91A37CF10
:102AE000682979298A299B290E94D51A30CF0E940A
:102AF000B91AC501B4010E949D1A29CF86951123E8
:102B000011F08C2F8170882309F421CF2D2F22956D
:102B100026952770220F220F6D2F6F70862E912C15
:102B2000B12CA12C022E04C0880C991CAA1CBB1C21
:102B30000A94D2F760E070E0CB01D4FF0FC06FE0E1
:102B400070E080E090E004C0660F771F881F991F37
:102B50002A95D2F76095709580959095C695C69503
:102B6000C370C23051F080F4682979298A299B29E1
:102B7000C13071F00E94931BEACE682979298A2915
:102B80009B290E94AF1BE3CE0E94931BC501B40199
:102B90000E94771BDCCEE0E2ED0FE53108F062C069
:102BA000F0E0EB52FA4E0C94622BEA15EA15EA15A6
:102BB000EA15EA15EA15EA15EA15EA15EA15EA151D
:102BC000EA15EA15EA15EA15EA15F71505160C16C1
:102BD00013161D16DF708C2F8F71112321F00E94A8
:102BE000101B8D2FF4CE0E94311B8D2FFECE112392
:102BF00041F0053008F0ABCE8C2F8F710E94561B30
:102C0000A6CE063008F0A3CEF7CF8C2F8F711123FC
:102C100039F00E94101B9BCE8C2F8F711123C9F3AA
:102C20000E94311B94CE112329F08C2F8F710E94AA
:102C3000FB1A8DCE0E94F11A8ACE112349F0CF7172
:102C40008C2F0E94101B63E08C2F0E94A01C7FCE53
:102C500081E00E94A91C023008F479CE82E00E9433
:102C6000A91C75CE112329F0011159CE8C2F8F711B
:102C7000D0CF0111CDCE8C2F8F71D2CF4C2F4F7072
:102C80006D2FC7010E94DB060E941A1A60CE111137
:102C90005ECECF70C230A9F040F4CC2379F0C130C1
:102CA00009F055CE0E94B42252CEC33069F0C43030
:102CB00009F04DCE8D2F0E94032349CE0E949C2205
:102CC00046CE0E94CD2243CE0E94E02240CE4C2F21
:102CD0004F706D2FC7010E94DA0839CEDF91CF9176
:102CE0001F910F91FF90EF90DF90BF90AF909F905A
:102CF0008F9008950F931F93CF93DF93EC019881EA
:102D000089812B813C81232B39F08F3F19F481E09D
:102D10009F3F19F080E001C081E080FD17C0CE0127
:102D20000E94FA06882391F0688179818A810E9445
:102D3000721C8C010E94CB1B0E94921AB801CE011A
:102D4000DF91CF911F910F910C943714DF91CF91A8
:102D50001F910F9108950E94641D0E94751D0E948D
:102D6000371D0E948E1D0E947F220E94D22190E07A
:102D700080E00E94E11190E080E00C94F7110E9445
:102D8000531D0C94AB160E94681CE92FE295EF705E
:102D9000E250EE30E0F4F0E0E053F94E0C94622B98
:102DA000DE16DE16E716E716E916E716E716E7164B
:102DB000DE16DE16EE16E716E716EE16803F19F061
:102DC00020F4803E20F481E00895843FE1F380E028
:102DD0000895803EC0F3813FD1F7F5CF93FB88275C
:102DE00080F90895CF93DF9300D000D01F92CDB724
:102DF000DEB70F900F900F900F900F90DF91CF9153
:102E00000895CF93DF9300D000D000D0CDB7DEB7C8
:102E100026960FB6F894DEBF0FBECDBFDF91CF91DF
:102E200008951F93CF93DF93C0918E0116E0809198
:102E30008F018C1304C0DF91CF911F910895D0E0D2
:102E40001C9FF0011D9FF00D1124E057FE4F4081A3
:102E5000518162817381848195810E94011721963D
:102E6000C770E5CF4091C0015091C1016091C2018E
:102E70007091C3018091C4019091C5010C94011718
:102E80001F93CF93DF938091C501807FD1F4809110
:102E9000C2018823B1F080918E01D0918F01B09151
:102EA000C001C091C1014091C3015091C401A1E092
:102EB000BF3F09F0A0E0BA016095709516E0D81305
:102EC00004C0DF91CF911F91089521E04115510574
:102ED00021F02A2FCF3F09F020E090E020FD38C0FC
:102EE000189FF001199FF00D1124E057FE4F21812A
:102EF0002C132EC020812B132BC02281211128C01E
:102F0000238134812417350700F1241B350B283C1D
:102F10003105F0F42091C5012F7020612093C50187
:102F200026E0289FF001299FF00D1124EB56FE4F5B
:102F300080818F708061808380EC91E00E947A169E
:102F4000DF91CF911F910C941117260F371FDFCF00
:102F500001968770B4CFAF92BF92CF92DF92EF927B
:102F6000FF920F931F93CF93DF93CDB7DEB7619797
:102F70000FB6F894DEBF0FBECDBF8C0185E0F8011F
:102F8000DE011D9601900D928A95E1F7D8014C91D2
:102F900011965C9111971296EC903091C00160915E
:102FA000C1018091C3019091C40121E0009731F0EB
:102FB0006F3F19F421E03F3F09F020E0B22FB170DC
:102FC000BB2E20FD80C1F801C380D480A090C20137
:102FD000AA2009F427C1C816D906D0F1D601A81B2A
:102FE000B90BCD01FF24F394883C910508F0F12C36
:102FF0008091C501982F907FFF2009F4CAC09111DC
:1030000087C0FE2C651329C0341327C0E11025C0EA
:103010008F7080618093C5010E94321780EC91E02F
:103020000E947A168091C501F80185838F2D6196E3
:103030000FB6F894DEBF0FBECDBFDF91CF911F91C9
:103040000F91FF90EF90DF90CF90BF90AF900895D9
:10305000809590958C0D9D1DC5CF81E0CD2831F0D8
:103060005F3F19F481E04F3F09F080E080FD24C00C
:1030700081E08E25F82FF170DF2E80FF3FC0809118
:103080008E0120918F0136E0821318C04D875E8734
:103090008D859E850E94681C292F22952F702230D5
:1030A00008F1243030F59F7009F1D80115969C91F4
:1030B000907FE1F4FB2CBACF80E0DCCF90E0389F2A
:1030C000F001399FF00D1124E057FE4F6181561336
:1030D00006C06081461303C062816E110FC0019665
:1030E0008770D2CF9F7011F0882321F3805E8830E3
:1030F00008F3C8010E947A16BD2CDCCFEE2009F43B
:1031000095CF8091C50181608093C501F12C8ECF50
:10311000651312C0341310C0E1100EC0F80185838E
:10312000C8010E947A1686E0F801A0ECB1E0019097
:103130000D928A95E1F741C04D875E878D859E850A
:103140000E94C316882309F4C8C0EE2009F4C5C044
:103150008091C501803270F02091C0013091C10191
:1031600038872F831986DB86CA868C87CE0107961F
:103170000E947A1686E0F801A0ECB1E001900D9271
:103180008A95E1F70E9440170E943217FF24F394BA
:103190004DCF911115C07C2DD98AC88A6E2D898991
:1031A0000E94F21680EC91E00E947A1686E0E0EC34
:1031B000F1E0DF011D928A95E9F70E94321736CFC0
:1031C000651312C0341310C0E1100EC0F8018583DE
:1031D000C8010E947A16E0ECF1E086E0DF011D9262
:1031E0008A95E9F7FA2C22CF4D875E878D859E85DB
:1031F0000E94C316882309F470C0EE2009F46DC044
:103200008091C501803208F4B5CF2091C001309182
:10321000C1013A8329831B82DD82CC828E83CE0159
:103220000196A6CFC816D90638F1F601E81BF90BAE
:10323000CF01F12C883C910508F03DC0FE2CEE201A
:1032400009F44BC0651326C0341324C08091C50116
:1032500080FD17C0982F907FA1F0D80115968C9310
:103260001597903F09F45CCF982F907F905F8F70F7
:10327000892B15968C9354CF809590958C0D9D1D20
:10328000D8CF86E0F801A0ECB1E001900D928A95CC
:10329000E1F7CCCE4D875E878D859E850E94C31653
:1032A000811168CF8091C50181608093C501C801FB
:1032B0000E947A16BBCE7C2DD98AC88A6E2D898948
:1032C0000E94F21673CFEE2041F04D875E878D8508
:1032D0009E850E94C31681114DCFC8010E947A16A7
:1032E00055CF1F93CF93DF93CDB7DEB72C970FB693
:1032F000F894DEBF0FBECDBF4F83588769877A87AA
:103300008B879C87CE0107960E94AB17882309F410
:1033100042C09F8188852A853B85232B39F08F3FCA
:1033200019F481E09F3F19F080E001C081E080FD49
:1033300008C04F81588569857A858B859C850E9458
:10334000011716E080918E0190918F01891709F481
:1033500067C0819FC001112480579E4F0E94AB1708
:10336000882309F45DC0E0918E011E9FF0011124B5
:10337000E057FE4F40815181628173818481958144
:103380000E94011780918E0190E001968770992725
:1033900080938E01D7CF86E0FE013796DE0111962D
:1033A00001900D928A95E1F79F8188852A853B855A
:1033B000232B39F08F3F19F481E09F3F19F080E013
:1033C00001C081E080FDBDCF20918F0130E0C901B7
:1033D00001968770992740918E014817190699F038
:1033E00096E0929FD001939FB00D1124A057BE4F3D
:1033F000FE01319601900D929A95E1F780938F012D
:103400000E9411179ECF0E94BF1610928F0110923A
:103410008E0186E0E0ECF1E0DF011D928A95E9F78C
:103420002C960FB6F894DEBF0FBECDBFDF91CF91C3
:103430001F910895EF92FF920F931F93CF93DF9305
:103440008C01892B81F0F12CEE24E394E801219684
:10345000F8018491843770F4843008F05FC08130C3
:10346000B1F08230A1F1DF91CF911F910F91FF90C8
:10347000EF900895853709F44CC008F43DC09CE7EF
:10348000980F903780F78F770E94DA1349C00E5F4C
:103490001F4FFE01849190E2980F983060F487707E
:1034A000FE2D01C0FF0F8A95EAF78F2F0E94671D3E
:1034B0000E948E1D02C00E94FE128F2D815030F29C
:1034C000EFE9FFE03197F1F700C00000F7CF0E5FA2
:1034D0001F4FFE01849190E2980F983050F487704E
:1034E000FE2D01C0FF0F8A95EAF78F2F0E946D1DF8
:1034F000DFCF0E94DA13E1CF0E5F1F4FFE01C491B0
:10350000C150D8F28FE99FE00197F1F700C00000A9
:10351000F7CF0E5F1F4FFE01F490CFCF0E94FE1237
:103520008E01CBCF08956093F7017093F8018093DB
:10353000F9019093FA010C94AB160F931F9300912D
:10354000F7011091F8012091F9013091FA01DC01A5
:10355000CB01802B912BA22BB32B8093F70190935F
:10356000F801A093F901B093FA011F910F910C9407
:10357000AB160F931F930091F7011091F801209162
:10358000F9013091FA01DC01CB0180239123A223C0
:10359000B3238093F7019093F801A093F901B093BE
:1035A000FA011F910F910C94AB160F931F9300918A
:1035B000F7011091F8012091F9013091FA01DC0135
:1035C000CB0180279127A227B3278093F7019093FF
:1035D000F801A093F901B093FA011F910F910C9497
:1035E000AB161092F3011092F4011092F5011092B3
:1035F000F6010C94AB1641E050E060E070E004C0CE
:10360000440F551F661F771F8A95D2F74093F30129
:103610005093F4016093F5017093F6010C94AB168E
:1036200041E050E060E070E004C0440F551F661FA9
:10363000771F8A95D2F78091F3019091F401A091C0
:10364000F501B091F601842B952BA62BB72B809317
:10365000F3019093F401A093F501B093F6010C945B
:10366000AB1641E050E060E070E004C0440F551F2D
:10367000661F771F8A95D2F7409550956095709593
:103680008091F3019091F401A091F501B091F601C0
:1036900084239523A623B7238093F3019093F40109
:1036A000A093F501B093F6010C94AB1641E050E005
:1036B00060E070E004C0440F551F661F771F8A95B5
:1036C000D2F78091F3019091F401A091F501B091AE
:1036D000F60184279527A627B7278093F3019093B7
:1036E000F401A093F501B093F6010C94AB160F937F
:1036F0001F930091F3011091F4012091F501309195
:10370000F601DC01CB01802B912BA22BB32B8093F4
:10371000F3019093F401A093F501B093F6011F918A
:103720000F910C94AB160F931F930091F30110911E
:10373000F4012091F5013091F601DC01CB018023E9
:103740009123A223B3238093F3019093F401A093D8
:10375000F501B093F6011F910F910C94AB160F93E6
:103760001F930091F3011091F4012091F501309124
:10377000F601DC01CB0180279127A227B327809394
:10378000F3019093F401A093F501B093F6011F911A
:103790000F910C94AB1608952EE0929F800D11248A
:1037A000982F977071E001C0770F9A95EAF7869588
:1037B0008695869525E0829FC001112450E040E067
:1037C000A62FB0E0FC01E40FF51FEA53FE4F608125
:1037D0009D01042E02C0369527950A94E2F72170C8
:1037E000219526272723262720834F5F5F4F4530CB
:1037F000510541F708952EE0929F800D1124982FD6
:10380000977086958695869525E0829FA001112464
:1038100070E060E080E0FA01E60FF71FEA53FE4F28
:10382000208130E0092E02C0369527950A94E2F7F0
:1038300021703327062E01C0220F0A94EAF7822B4B
:103840006F5F7F4F6530710531F70895BF92CF925A
:10385000DF92EF92FF920F931F93CF93DF938C0130
:10386000C090F301D090F401E090F501F090F601E2
:103870008091F7019091F801A091F901B091FA01BE
:10388000C82AD92AEA2AFB2ACFE1D0E0BC2ED701E8
:10389000C6010C2E04C0B695A795979587950A94F6
:1038A000D2F780FD0EC0219788F7B12C8B2DDF91C8
:1038B000CF911F910F91FF90EF90DF90CF90BF902D
:1038C0000895B8018C2F0E94F708019761F3EECF9D
:1038D000CF93DF93EC010E94261CBE01DF91CF91B4
:1038E0000C94F7081F93CF93DF93EB0190918D0118
:1038F000992331F0CB01DF91CF911F910C94681C7B
:10390000882379F0CB010E94261C182F682FCE0146
:103910000E94CC1BBE01812FDF91CF911F910C948F
:10392000F708CB010E94FB1B182FF4CF8091FB01FD
:1039300085958595859508958091FB0187700895FB
:1039400098E0899F90011124622B6093FB010C94F5
:10395000101B9091FB01809589238093FB01282FF8
:10396000277061F4282F082E000C330B92171306D2
:1039700029F08595859585950C94311B0895909136
:10398000FB01977081E009F480E0089590911301A4
:103990009923E1F090918F0297FF18C0E82FE695E8
:1039A000E695E695EF3139F1209101013091020160
:1039B000E20FF32FF11D877021E030E001C0220FEC
:1039C0008A95EAF78181822B8183089520910101F4
:1039D00030910201F90132969FEF40E05191851735
:1039E00051F09F3F19F4511101C0942F4F5F4E3198
:1039F000A9F79F3F09F40895290F311D97FD3A95C6
:103A0000F90182830895909113019923F1F0909127
:103A10008F0297FF1AC0E82FE695E695E695EF31FD
:103A200029F12091010130910201E20FF32FF11DE4
:103A3000282F277081E090E001C0880F2A95EAF7CF
:103A4000809591818923818308952091010130918E
:103A50000201F9013296205E3F4F9191891303C014
:103A6000DF0111971C92E217F307B9F7089581E07F
:103A700090E0E0910101F0910201E80FF91F10823E
:103A8000019680329105A9F7089590911F02892B24
:103A900080931F020895982F909580911F0289238B
:103AA00080931F02089510921F02089590911E02A4
:103AB000892B80931E020895982F909580911E0265
:103AC000892380931E02089510921E0208959091FA
:103AD0001D02892B80931D020895982F9095809147
:103AE0001D02892380931D02089510921D020895DE
:103AF0008093FC0108951092FC010895209101012A
:103B000030910201F9013196205E3F4F80E09191A2
:103B100091118F5FE217F307D1F70895E09101014A
:103B2000F091020180911F028083E0910101F091E8
:103B30000201808190911E02892B8083E091010116
:103B4000F0910201808190911D02892B80839091D8
:103B5000FC01992361F0E0910101F0910201808163
:103B6000892B80830E947E1D81111092FC0180911F
:103B70000101909102010C94CB116DEE7EEF90E06B
:103B800080E00E949A2B60E082E090E00E947C2B13
:103B900060E083E090E00E947C2B60E084E090E0B5
:103BA0000E947C2B60E085E090E00E947C2B60E02E
:103BB00086E090E00E947C2B40E050E0BA0188E073
:103BC00090E00C948E2B90E080E00E94762B21E018
:103BD0008D3E9E4F09F020E0822F089582E090E014
:103BE0000C94682B682F82E090E00C947C2B83E08F
:103BF00090E00C94682B682F83E090E00C947C2B71
:103C000084E090E00C94682B682F84E090E00C94A2
:103C10007C2B86E090E00C94682B682F86E090E087
:103C20000C947C2B80919602843051F110922102E9
:103C300088E190E020E40FB6F894A89580936000A6
:103C40000FBE2093600080E00E94A30880E00E94E5
:103C5000D80883B7817F846083BF83B7816083BFC7
:103C60007894889583B78E7F83BF0FB6F894A89514
:103C700080916000886180936000109260000FBEA8
:103C8000089508950895CF930E94411E0E94C90B84
:103C90000E94421EC0E08C2F0E948B0C892B31F4B5
:103CA000CF5FC530C1F780E0CF91089581E0FCCFB0
:103CB0000E94BF160E948B220E94BF110C94D8084C
:103CC0001F920F920FB60F9211248F939F93AF9371
:103CD000BF9380912102811113C080918B0290913A
:103CE0008C02A0918D02B0918E024196A11DB11D52
:103CF00080938B0290938C02A0938D02B0938E02DE
:103D0000BF91AF919F918F910F900FBE0F901F9019
:103D1000189582E084BD93E095BD9AEF97BD80939E
:103D20006E0008952FB7F89480918B0290918C02C9
:103D3000A0918D02B0918E022FBF0895CF92DF9295
:103D4000EF92FF920F931F932FB7F89440918B023D
:103D500050918C0260918D0270918E022FBF6A018A
:103D60007B01EE24FF248C0130E020E0C016D10658
:103D7000E206F30650F0481B590BCA011F910F9140
:103D8000FF90EF90DF90CF90089541505109F3CF0D
:103D90001F920F920FB60F9211248F939F93AF93A0
:103DA000BF9380918B0290918C02A0918D02B09173
:103DB0008E020196A11DB11D80938B0290938C02FF
:103DC000A0938D02B0938E02BF91AF919F918F917E
:103DD0000F900FBE0F901F9018950E940E27F89419
:103DE0002FEF87EA91E6215080409040E1F700C034
:103DF000000087E090EBDC0180939F029093A0028B
:103E0000A093A102B093A20288E19CE00FB6F894BF
:103E1000A895809360000FBE90936000FFCFAF9293
:103E2000BF92CF92DF92EF92FF920F931F93CF93A7
:103E3000C0E0CC24C394D12CE82EF12C8C2F0E940E
:103E40008B0C5C0110E000E0C601002E02C0880F60
:103E5000991F0A94E2F78A219B21892B99F40F5F1D
:103E60001F4F0E30110581F7CF5FC53039F780E065
:103E7000CF911F910F91FF90EF90DF90CF90BF9067
:103E8000AF900895602F7C2F80E00E94DB08E81639
:103E9000F90629F781E0ECCFCF93C82F8CE20E947E
:103EA0000F1F882321F08C2FCF910C940F1F80E0DF
:103EB000CF910895CF930E94E31D811102C00E940B
:103EC000BD1DC5E608C00E94C90B8FE39CE90197A0
:103ED000F1F700C00000C150B1F789E20E944C1F09
:103EE0008111EFC08AE20E944C1F81110E94BD1D0A
:103EF00085E00E944C1F81110E94ED1E0E94EE1D64
:103F00008093200287E00E944C1F882371F08BE190
:103F10000E944C1F882309F4B1C090912002892F80
:103F20008D7F91FF826080932002809120020E9409
:103F3000F21D0E94001E90E09093900280938F02E9
:103F400080EE0E944C1F882341F090918F02892FB0
:103F50008E7F90FF816080938F0289E30E944C1FC7
:103F6000882341F090918F02892F8D7F91FF82608D
:103F700080938F0282EE0E944C1F882341F0909123
:103F80008F02892F8B7F92FF846080938F0286EE51
:103F90000E944C1F882341F090918F02892F877FC8
:103FA00093FF886080938F0283EE0E944C1F8823CA
:103FB00041F090918F02892F8F7E94FF80618093D2
:103FC0008F0285E30E944C1F882341F090918F025D
:103FD000892F8F7D95FF806280938F0281E30E94FD
:103FE0004C1F882341F090918F02892F8F7B96FF81
:103FF000806480938F0281E10E944C1F882341F0EE
:1040000090918F02892F97FB87F9805880938F02B8
:1040100080918F020E94041E87E20E944C1FC82FCD
:104020008EE10E944C1F8111C2608FE10E944C1FE3
:104030008111C46080E20E944C1F8111C86081E23E
:104040000E944C1F8111C06182E20E944C1F8111AD
:10405000C06283E20E944C1F8111C06484E20E940E
:104060004C1F882341F1C0688C2F0E94FB1D6C2FD0
:1040700070E090E080E0CF910C94931A8EE00E9463
:104080004C1F882339F090912002892F8B7F92FF5B
:10409000846049CF80E10E944C1F909120028823C8
:1040A00029F0892F877F93FF88603DCF892F8E7FEE
:1040B00090FF816038CFC111D7CF0E94F71D682FC4
:1040C000D7CFCF9108958091240280FF12C06091D4
:1040D000060185E0689FB001112475956795759577
:1040E000679560387105A8F561157105A1F1862FF6
:1040F000089581FF09C06091060185E0689FB001C5
:10410000112475956795EDCF82FF07C06091060178
:1041100085E0689FB0011124E4CF2091250222237D
:10412000A9F0909105016091060185E0689FB001BA
:1041300011242917B0F6269FA001279F500D1124A6
:10414000692F70E0CA010E944E2BCBCF65E070E072
:10415000CECF8FE7089581E008958091240280FFFB
:104160000CC06091040170E0759567957595679531
:104170006115710549F1862F089581FF06C0609190
:10418000040170E075956795F3CF6091040182FD9D
:104190000BC0909125029923A1F0609103018091B9
:1041A0000401961738F0682F70E06038710500F34D
:1041B0008FE70895899FC001112470E00E944E2B63
:1041C000F4CF61E070E0D7CF81E00895803F31F413
:1041D0000E9463208195809328020895813F19F4FD
:1041E0000E946320F8CF823F31F40E9463208195C2
:1041F000809327020895833F19F40E946320F8CF2B
:10420000893F29F40E94AD208093290208958A3FB6
:1042100021F40E94AD208195F7CF8B3F31F40E94AD
:10422000AD20819580932A0208958C3F19F40E9455
:10423000AD20F8CF843F31F48091260281608093D5
:1042400026020895853F21F4809126028260F7CFEF
:10425000863F21F4809126028460F1CF873F21F4CC
:10426000809126028860EBCF883F21F4809126025E
:104270008061E5CF8D3F31F480912402816080938D
:10428000240208958E3F21F4809124028260F7CFAA
:104290008F3FB9F7809124028460F1CF803FC1F451
:1042A0008091280287FD10922802809127028111B7
:1042B0000EC08091280281110AC0809129028111CB
:1042C00006C080912A02811102C010922502089531
:1042D000813F29F48091280218162CF3E6CF9091A3
:1042E0002702823F29F497FFE0CF10922702DDCF0B
:1042F000833F19F41916CCF3D8CF893F39F4809154
:104300002902181694F610922902CFCF8A3F29F479
:104310008091290287FFC9CFF6CF8B3F39F4809176
:104320002A0287FFC2CF10922A02BFCF8C3F29F406
:1043300080912A021816BCF3B8CF843F31F48091E3
:1043400026028E7F80932602B0CF853F21F4809194
:1043500026028D7FF7CF863F21F4809126028B7F46
:10436000F1CF873F21F480912602877FEBCF883FF2
:1043700021F4809126028F7EE5CF8D3F31F480912C
:1043800024028E7F8093240290CF8E3F21F480916F
:1043900024028D7FF7CF8F3F09F087CF80912402D1
:1043A0008B7FF0CF86E292E00E94D6110E94921E8F
:1043B000909323028093220208951F93CF93DF935B
:1043C00080912202909123020E949E1EAC01909146
:1043D00025022091070130E0911106C020910801CB
:1043E0008AE0289F900111244217530780F08091A2
:1043F0002702C091280210912902D0912A0281112E
:104400000AC0C11178C0111176C0D11174C0DF91FA
:10441000CF911F9108959F3F19F09F5F90932502C0
:10442000181624F40E9463208093270280912702AB
:1044300087FF05C00E9463208195809327021C1688
:1044400024F40E946320809328028091280287FF31
:1044500005C00E9463208195809328026091270205
:10446000662331F1C0912802CC2311F1062E000CF5
:10447000770B880B990B0E94412A23E333E343E334
:104480005FE30E94A52A0E94092A609327026C2FED
:10449000CC0F770B880B990B0E94412A23E333E35F
:1044A00043E35FE30E94A52A0E94092A6093280241
:1044B000111624F40E94AD208093290280912902D4
:1044C00087FF05C00E94AD208195809329021D16AB
:1044D00024F40E94AD2080932A0280912A0287FF53
:1044E00005C00E94AD20819580932A02DF91CF9173
:1044F0001F910C94D2219F3F09F08FCFA0CF85E070
:10450000E6E2F2E0DF011D928A95E9F710922502BA
:104510001092240208950E94E31D811102C00E949E
:10452000BD1D0E94091E8093910280FF03C08695E5
:104530000C94A30880E0FCCF80919102982F96956F
:10454000953030F49F5F990F8170892B8093910291
:10455000809191028160809391020E940D1E809152
:10456000910286950C94A30880919102982F9E7FCA
:1045700079F08250809391028E7F91E009F490E06F
:104580008091910290FB80F9809391020E940D1E10
:104590008091910286950C94A30890919102892FA5
:1045A0008E7F90FF8160809391020E940D1E80910A
:1045B000910280FF03C086950C94A30880E0FCCF95
:1045C00090919102892F86958F5F8F7791708630B9
:1045D000B8F4880F892B80939102809191028E7F8D
:1045E00091E009F490E08091910290FB80F9809332
:1045F00091020E940D1E8091910286950C94A30851
:1046000090939102EACF90919102292F26958227CB
:10461000880F9170982B909391029E7F21E009F46E
:1046200020E08091910220FB80F9809391020E940A
:104630000D1E8091910286950C94A30880914B02E7
:104640000895CF93DF9300D01F92CDB7DEB79C01C2
:1046500080919602843019F593E099833B832A83F5
:104660009093E9008FEF9091E800815095FD06C08E
:1046700095ED9A95F1F700008111F5CF8091E80052
:1046800085FF0DC050E040E063E070E0CE01019690
:104690000E947E258091E8008E778093E8000F903D
:1046A0000F900F90DF91CF910895CF93DF9300D0BB
:1046B0001F92CDB7DEB720919602243031F522E06B
:1046C0002983805891099B838A8383E08093E90042
:1046D0008FEF9091E800815095FD06C095ED9A9579
:1046E000F1F700008111F5CF8091E80085FF0DC042
:1046F00050E040E063E070E0CE0101960E947E252C
:104700008091E8008E778093E8000F900F900F90D3
:10471000DF91CF9108959C01809196028430F9F445
:1047200082E08093E9009FEF8091E800915085FD41
:1047300006C085ED8A95F1F700009111F5CF8091C3
:10474000E80085FF0CC050E040E065E070E0C90182
:104750000E947E258091E8008E778093E80008957E
:10476000CF93DF93EC01809196028430F1F4909125
:1047700013019923E9F090918F0297FF19C080935C
:10478000E9008FEF9091E800815095FD06C095E11A
:104790009A95F1F700008111F5CF8091E80050E083
:1047A00040E060E270E085FD1AC0DF91CF9108958E
:1047B00081E08093E9008FEF9091E800815095FDB2
:1047C00006C095ED9A95F1F700008111F5CF809123
:1047D000E80085FFEACF50E040E068E070E0CE01FD
:1047E0000E947E258091E8008E778093E80080E229
:1047F000FE01ABE2B2E001900D928A95E1F7D5CFD0
:1048000080919502811109C00E940E270E946B279A
:104810008091E20084608093E200089510929502F6
:104820000895089508950C94581E42E061EC81E0CB
:104830000E948C2642E061EC82E00E948C2642E0DD
:1048400061EC83E00E948C2642E261EC84E00C94EF
:104850008C2680919802833009F455C030F4813061
:1048600071F1823009F491C008958A3009F47DC055
:104870008B3009F463C0893009F044C080919702FD
:10488000813209F03FC080919B0290919C02009779
:1048900011F00397B9F58091E800877F8093E800D5
:1048A0008091E80082FF2AC08091F10080934B0242
:1048B0008091E8008B778093E8000C94C02680916B
:1048C0009702813AF9F48091E800877F8093E800AD
:1048D00080919B0290919C02892B61F460E28BE2B3
:1048E00092E070E00E94CD258091E8008B77809364
:1048F000E800089560E090E080E0F3CF80919602B8
:104900008111CECF089580919702813AD9F7809195
:104910009B0290919C02892BA9F78091E800877FE8
:104920008093E8008091E80080FFFCCF8091130124
:104930008093F1008091E8008E77BDCF809197023F
:10494000813201F780919B0290919C02892BD1F6D4
:104950008091E800877F8093E8000E94C0268091C4
:104960009902809313010C94BF16809197028132B3
:1049700049F68091E800877F8093E8000E94C02676
:1049800080919A0280934C02089580919702813A17
:1049900009F0B8CF8091E800877F8093E80080918C
:1049A000E80080FFFCCF80914C02C2CF84B7877FA4
:1049B00084BF0FB6F894A8958091600088618093B9
:1049C0006000109260000FBE80E88093610010923A
:1049D00061000E940E120E940E270E946B27809198
:1049E000E20084608093E20078940E94ED290E94A6
:1049F000101289E091E00E94BA11809196028530F0
:104A000029F00E941A120E948711F7CF0E94121EED
:104A100080919402882389F30E94431E882369F3BE
:104A20000E946825EACF292F33272330310579F1F9
:104A300058F421303105F1F02230310519F190E0C0
:104A400080E030E020E01AC02132310599F12232B5
:104A50003105A9F7643098F770E0FB01EE0FFF1FF6
:104A6000E55DFE4F20813181695D7E4FFB018081D4
:104A700090E004C082E190E026E13CE0FA0131835D
:104A8000208308958DE690E029EA3BE0F7CF99274F
:104A90008130910561F028F0029789F6E9E7FBE0A3
:104AA00002C0E5EAFBE0849190E09F01E7CFEDE8EA
:104AB000FBE0F9CF643008F0C2CFE62FF0E0EE0F54
:104AC000FF1FED5CFE4F2081318189E090E0D6CF61
:104AD00080E189BD82E189BD09B400FEFDCF8091EE
:104AE000D8008F7D8093D8008091E0008260809311
:104AF000E0008091E00081FDFCCF0895AF92BF926D
:104B0000CF92DF92FF920F931F93CF93DF936C01AD
:104B1000EB018A010E94DF26F82E811123C00115C6
:104B2000110539F0F80180819181C81BD90BC80E9D
:104B3000D91EB12CA12C2097A9F08091E80085FD09
:104B400022C08091E8008E778093E800011511055E
:104B5000A1F0F80180819181A80EB91EB182A082D6
:104B600085E0F82E8F2DDF91CF911F910F91FF904F
:104B7000DF90CF90BF90AF9008950E94DF268823EA
:104B8000D1F2F82EEFCFF60181916F018093F10001
:104B90002197FFEFAF1ABF0ACECFFC0180919D0293
:104BA00090919E0286179707A0F06115710529F470
:104BB0009091E8009E779093E80090E06115710570
:104BC00051F4911108C08091E80082FF35C080E067
:104BD0000895BC01F2CF809196028823C9F18530F7
:104BE000C9F18091E80083FD31C08091E80082FD29
:104BF000EACF8091E80080FFE1CF2091F30080911F
:104C0000F200322F282F6115710519F02830310577
:104C100058F091E02830310509F090E02091E8004B
:104C20002E772093E800CACF81918093F1006150E4
:104C300071092F5F3F4FE7CF80919602882341F0A3
:104C4000853041F08091E80083FFBDCF81E0089579
:104C500082E0089583E00895FC0180919D02909187
:104C60009E0286179707A0F06115710529F48091BF
:104C7000E8008E778093E80090E06115710551F4AB
:104C8000911108C08091E80082FF36C080E008954D
:104C9000BC01F2CF809196028823D1F18530D1F109
:104CA0008091E80083FD32C08091E80082FDEACF68
:104CB0008091E80080FFE1CF2091F3008091F20025
:104CC000322F282F6115710519F02830310558F061
:104CD00091E02830310509F090E08091E8008E776E
:104CE0008093E800CACF84918093F100319661509F
:104CF00071092F5F3F4FE6CF80919602882341F0E4
:104D0000853041F08091E80083FFBCCF81E00895B9
:104D100082E0089583E00895982F973028F08F70EF
:104D20008093E90081E008959093E900242F762F85
:104D300050E0981731F07091EC002091ED00509107
:104D4000F00021FD02C09F5FE8CF3091EB003E7F75
:104D50003093EB003091ED003D7F3093ED003091CA
:104D6000EB0031603093EB007093EC002093ED008A
:104D70005093F0002091EE0027FDE5CF80E00895EC
:104D80008091970287FF13C08091E80082FF06C0E0
:104D90008091E8008B778093E80004C080919602B0
:104DA0008111F2CF0895809196028823D9F38091E2
:104DB000E80080FFF8CF8091E8008E77ECCF20915B
:104DC000E4003091E50085E69091EC0090FF06C08C
:104DD0009091E80090FF06C080E008959091E8006F
:104DE00092FDFACF90919602992391F0953091F02F
:104DF0009091EB0095FD10C04091E4005091E500CA
:104E00002417350709F381509A01F1F684E00895DB
:104E100082E0089583E0089581E008950E947C2750
:104E20000E948427E0EEF0E0808181608083E8EDDD
:104E3000F0E080818F77808319BCA7EDB0E08C9182
:104E40008E7F8C9380818F7E80831092950208954F
:104E50000F931F93CF93DF930E947C270E94842798
:104E6000C8EDD0E088818F778883888180688883C7
:104E700088818F7D888319BC1092960210929202CD
:104E8000109294021092930200EE10E0F8018081DB
:104E90008B7F808388818160888342E060E080E04E
:104EA0000E948C26E1EEF0E080818E7F8083E2EE2E
:104EB000F0E0808181608083808188608083F80158
:104EC00080818E7F8083888180618883DF91CF910C
:104ED0001F910F910895E8EDF0E080818F7E80832F
:104EE000E7EDF0E080818160808384E082BF81E033
:104EF000809395020C942827E8EDF0E080818E7F66
:104F000080831092E20008951092DA001092E1007E
:104F100008951F920F920FB60F9211242F933F9373
:104F20004F935F936F937F938F939F93AF93BF93B1
:104F3000EF93FF938091E10082FF0BC08091E2002C
:104F400082FF07C08091E1008B7F8093E1000E9487
:104F5000EC298091DA0080FF19C08091D80080FF91
:104F600015C08091DA008E7F8093DA008091D9009D
:104F700080FF94C080E189BD82E189BD09B400FE53
:104F8000FDCF81E0809396020E9400248091E10091
:104F900080FF19C08091E20080FF15C08091E2007F
:104FA0008E7F8093E2008091E20080618093E20036
:104FB0008091D80080628093D80019BC85E08093EE
:104FC00096020E9412248091E10084FF29C0809102
:104FD000E20084FF25C080E189BD82E189BD09B47A
:104FE00000FEFDCF8091D8008F7D8093D800809106
:104FF000E1008F7E8093E1008091E2008F7E8093BC
:10500000E2008091E20081608093E2008091920250
:10501000882309F449C084E0809396020E941324F7
:105020008091E10083FF29C08091E20083FF25C0C9
:105030008091E100877F8093E10082E08093960277
:10504000109292028091E1008E7F8093E100809126
:10505000E2008E7F8093E2008091E2008061809385
:10506000E20042E060E080E00E948C268091F00047
:1050700088608093F0000E941124FF91EF91BF910E
:10508000AF919F918F917F916F915F914F913F91E0
:105090002F910F900FBE0F901F90189519BC109272
:1050A00096020E940E2472CF8091E30087FD02C019
:1050B00081E0B2CF83E0B0CF1F920F920FB60F9274
:1050C00011242F933F934F935F936F937F938F930D
:1050D0009F93AF93BF93CF93EF93FF93C091E9005A
:1050E000CF708091EC001092E9008091F000877FF2
:1050F0008093F00078940E9498281092E9008091A3
:10510000F00088608093F000C093E900FF91EF9178
:10511000CF91BF91AF919F918F917F916F915F914F
:105120004F913F912F910F900FBE0F901F901895A8
:105130001F93CF93DF93CDB7DEB7AA970FB6F8943E
:10514000DEBF0FBECDBFE7E9F2E08091F1008193B1
:1051500022E0EF39F207C9F70E9429248091E80084
:1051600083FF42C080919702909198029A3008F094
:105170003BC0E92FF0E0E154F74D0C94622BC928B5
:10518000ED28F428ED28F42848296A29F428BF29B5
:10519000CC29803879F0823839F580919B028F7064
:1051A0008093E9008091EB0085FB882780F91092BD
:1051B000E90006C08091930290919402911182605F
:1051C0009091E800977F9093E8008093F10010920F
:1051D000F1008091E8008E772DC0282F2D7F21F4DB
:1051E0008823D1F0823059F18091E80083FF0AC012
:1051F0008091E800877F8093E8008091EB008062D7
:105200008093EB00AA960FB6F894DEBF0FBECDBF19
:10521000DF91CF911F91089580919902813021F7FC
:10522000933009F080E0809394021092E90080911D
:10523000E800877F8093E8000E94C026D5CF809148
:1052400099028111F2CF80919B028F7069F2809355
:10525000E9002091EB0020FFE8CF933031F48091FA
:10526000EB0080628093EB00E0CF9091EB009061C7
:105270009093EB0021E030E001C0220F8A95EAF71D
:105280002093EA001092EA008091EB008860EACF58
:105290008111AACF109199021F778091E300807845
:1052A000812B8093E3008091E800877F8093E80062
:1052B0000E94C0268091E80080FFFCCF8091E3002F
:1052C00080688093E30083E0111101C082E0809345
:1052D00096028ACF8058823008F086CF809199025A
:1052E00090919A028C3D23E09207A1F583E08A8396
:1052F0008AE289834FB7F894DE01139620E03EE0FE
:1053000051E2E32FF0E050935700E49120FF03C0F7
:10531000E295EF703F5FEF708E2F90E0EA30C0F0C3
:10532000C7968D939D932F5F243159F74FBF80917E
:10533000E800877F8093E8006AE270E0CE01019682
:105340000E94CD258091E8008B778093E8004CCFB8
:10535000C096E7CFAE014F5F5F4F60919B020E9406
:105360001325BC01892B09F43FCF9091E800977F6A
:105370009093E80089819A810E942C26E3CF80389F
:1053800009F032CF8091E800877F8093E800809118
:1053900092028093F1001DCF811126CF9091990246
:1053A000923008F021CF8091E800877F8093E80059
:1053B000909392020E94C02680919202882331F03D
:1053C00084E0809396020E9415240ECF8091E30022
:1053D00087FDF6CF81E0F5CF0895CF9380919602B7
:1053E000882399F0C091E900CF708091EC0080FD96
:1053F0000EC080E0C82B1092E9008091E80083FD88
:105400000E949828CF70C093E900CF91089580E85A
:10541000F1CF0E94102A6894B1110C949F2A08952C
:105420000E94842A88F09F5798F0B92F9927B75186
:10543000B0F0E1F0660F771F881F991F1AF0BA9538
:10544000C9F714C0B13091F00E949E2AB1E00895CE
:105450000C949E2A672F782F8827B85F39F0B93FC0
:10546000CCF3869577956795B395D9F73EF49095EB
:105470008095709561957F4F8F4F9F4F0895E89469
:1054800009C097FB3EF490958095709561957F4F8C
:105490008F4F9F4F9923A9F0F92F96E9BB2793953A
:1054A000F695879577956795B795F111F8CFFAF44A
:1054B000BB0F11F460FF1BC06F5F7F4F8F4F9F4F7B
:1054C00016C0882311F096E911C0772321F09EE8D9
:1054D000872F762F05C0662371F096E8862F70E03F
:1054E00060E02AF09A95660F771F881FDAF7880F19
:1054F0009695879597F9089557FD9058440F551F35
:1055000059F05F3F71F04795880F97FB991F61F045
:105510009F3F79F087950895121613061406551FBC
:10552000F2CF4695F1DF08C0161617061806991F28
:10553000F1CF86957105610508940895E894BB271D
:1055400066277727CB0197F908950E94B82A0C9413
:10555000292B0E941B2B38F00E94222B20F0952330
:1055600011F00C94122B0C94182B11240C949F2ADC
:105570000E947C2A70F3959FC1F3950F50E0551F50
:10558000629FF001729FBB27F00DB11D639FAA2798
:10559000F00DB11DAA1F649F6627B00DA11D661FE7
:1055A000829F2227B00DA11D621F739FB00DA11D08
:1055B000621F839FA00D611D221F749F3327A00DC2
:1055C000611D231F849F600D211D822F762F6A2F5E
:1055D00011249F5750409AF0F1F088234AF0EE0FC3
:1055E000FF1FBB1F661F771F881F91505040A9F7F0
:1055F0009E3F510580F00C94122B0C949F2A5F3F24
:10560000E4F3983ED4F3869577956795B795F7952B
:10561000E7959F5FC1F7FE2B880F911D96958795A3
:1056200097F9089597F99F6780E870E060E0089522
:105630009FEF80EC089500240A94161617061806AA
:105640000906089500240A94121613061406050686
:105650000895092E0394000C11F4882352F0BB0F17
:1056600040F4BF2B11F460FF04C06F5F7F4F8F4F7A
:105670009F4F0895AA1BBB1B51E107C0AA1FBB1F68
:10568000A617B70710F0A61BB70B881F991F5A95CE
:10569000A9F780959095BC01CD01089597FB072E41
:1056A00016F4009407D077FD09D00E943A2B07FC2E
:1056B00005D03EF4909581959F4F08957095619522
:1056C0007F4F0895EE0FFF1F0590F491E02D099490
:1056D000F999FECF92BD81BDF89A992780B50895BA
:1056E000A6E1B0E044E050E00C94A22BA8E1B0E0C9
:1056F00042E050E00C94A22B262FF999FECF92BDE8
:1057000081BDF89A019700B4021639F01FBA20BD86
:105710000FB6F894FA9AF99A0FBE08950396272FB8
:105720000E947D2B0E947C2B252F0E947D2B242FF5
:105730000C947D2B0196272F0E947D2B0C947C2BA3
:10574000DC01CB01FC01F999FECF06C0F2BDE1BD41
:10575000F89A319600B40D9241505040B8F7089530
:04576000F894FFCFEB
:10576400FFFD012808140A321E1E23B0238B235583
:1057740023212301C63337909192939594969734BD
:105784003567F7F6F1F4F5404D3639E40C970C61C2
:0C5794000C280CBB0BD40BED0B060C001A
:00000001FF
